{
  "address": "0x85962d6C35ab64aa67047Bb0569469751e7D4eb3",
  "abi": [
    {
      "inputs": [
        {
          "internalType": "string",
          "name": "email",
          "type": "string"
        }
      ],
      "name": "CheckEmail",
      "outputs": [
        {
          "internalType": "string",
          "name": "",
          "type": "string"
        }
      ],
      "stateMutability": "view",
      "type": "function"
    },
    {
      "inputs": [
        {
          "internalType": "string",
          "name": "full_name",
          "type": "string"
        },
        {
          "internalType": "string",
          "name": "email",
          "type": "string"
        },
        {
          "internalType": "string",
          "name": "password",
          "type": "string"
        }
      ],
      "name": "CreateAccount",
      "outputs": [],
      "stateMutability": "nonpayable",
      "type": "function"
    },
    {
      "inputs": [
        {
          "internalType": "uint256",
          "name": "survey_id",
          "type": "uint256"
        },
        {
          "internalType": "uint256",
          "name": "user_id",
          "type": "uint256"
        },
        {
          "internalType": "string",
          "name": "date",
          "type": "string"
        },
        {
          "internalType": "uint256",
          "name": "trial_id",
          "type": "uint256"
        }
      ],
      "name": "CreateCompletedSurveys",
      "outputs": [],
      "stateMutability": "nonpayable",
      "type": "function"
    },
    {
      "inputs": [
        {
          "internalType": "uint256",
          "name": "trial_id",
          "type": "uint256"
        },
        {
          "internalType": "uint256",
          "name": "user_id",
          "type": "uint256"
        },
        {
          "internalType": "string",
          "name": "date",
          "type": "string"
        }
      ],
      "name": "CreateOngoingTrail",
      "outputs": [],
      "stateMutability": "nonpayable",
      "type": "function"
    },
    {
      "inputs": [
        {
          "internalType": "uint256",
          "name": "survey_id",
          "type": "uint256"
        },
        {
          "internalType": "string",
          "name": "metadata",
          "type": "string"
        }
      ],
      "name": "CreateOrSaveSections",
      "outputs": [],
      "stateMutability": "nonpayable",
      "type": "function"
    },
    {
      "inputs": [
        {
          "internalType": "uint256",
          "name": "trial_id",
          "type": "uint256"
        },
        {
          "internalType": "uint256",
          "name": "user_id",
          "type": "uint256"
        },
        {
          "internalType": "uint256",
          "name": "survey_id",
          "type": "uint256"
        },
        {
          "internalType": "uint256",
          "name": "section_id",
          "type": "uint256"
        },
        {
          "internalType": "uint256",
          "name": "question_id",
          "type": "uint256"
        },
        {
          "internalType": "string",
          "name": "answer",
          "type": "string"
        }
      ],
      "name": "CreateQuestionAnswer",
      "outputs": [],
      "stateMutability": "nonpayable",
      "type": "function"
    },
    {
      "inputs": [
        {
          "internalType": "uint256",
          "name": "trial_id",
          "type": "uint256"
        },
        {
          "internalType": "uint256",
          "name": "user_id",
          "type": "uint256"
        },
        {
          "internalType": "string",
          "name": "name",
          "type": "string"
        },
        {
          "internalType": "string",
          "name": "description",
          "type": "string"
        },
        {
          "internalType": "string",
          "name": "date",
          "type": "string"
        },
        {
          "internalType": "string",
          "name": "image",
          "type": "string"
        },
        {
          "internalType": "uint256",
          "name": "reward",
          "type": "uint256"
        }
      ],
      "name": "CreateSurvey",
      "outputs": [],
      "stateMutability": "nonpayable",
      "type": "function"
    },
    {
      "inputs": [
        {
          "internalType": "string",
          "name": "name",
          "type": "string"
        },
        {
          "internalType": "string",
          "name": "image",
          "type": "string"
        }
      ],
      "name": "CreateSurveyCategory",
      "outputs": [],
      "stateMutability": "nonpayable",
      "type": "function"
    },
    {
      "inputs": [
        {
          "internalType": "uint256",
          "name": "user_id",
          "type": "uint256"
        },
        {
          "internalType": "string",
          "name": "image",
          "type": "string"
        },
        {
          "internalType": "string",
          "name": "title",
          "type": "string"
        },
        {
          "internalType": "string",
          "name": "description",
          "type": "string"
        },
        {
          "internalType": "uint256",
          "name": "contributors",
          "type": "uint256"
        },
        {
          "internalType": "uint256",
          "name": "audience",
          "type": "uint256"
        },
        {
          "internalType": "uint256",
          "name": "budget",
          "type": "uint256"
        },
        {
          "internalType": "string",
          "name": "date",
          "type": "string"
        }
      ],
      "name": "CreateTrial",
      "outputs": [],
      "stateMutability": "nonpayable",
      "type": "function"
    },
    {
      "inputs": [
        {
          "internalType": "uint256",
          "name": "user_id",
          "type": "uint256"
        }
      ],
      "name": "GetOngoingTrial",
      "outputs": [
        {
          "internalType": "string",
          "name": "",
          "type": "string"
        }
      ],
      "stateMutability": "view",
      "type": "function"
    },
    {
      "inputs": [
        {
          "internalType": "string",
          "name": "email",
          "type": "string"
        },
        {
          "internalType": "string",
          "name": "password",
          "type": "string"
        }
      ],
      "name": "Login",
      "outputs": [
        {
          "internalType": "string",
          "name": "",
          "type": "string"
        }
      ],
      "stateMutability": "view",
      "type": "function"
    },
    {
      "inputs": [
        {
          "internalType": "uint256",
          "name": "trial_id",
          "type": "uint256"
        },
        {
          "internalType": "string",
          "name": "audience_info",
          "type": "string"
        }
      ],
      "name": "UpdateAudience",
      "outputs": [],
      "stateMutability": "nonpayable",
      "type": "function"
    },
    {
      "inputs": [
        {
          "internalType": "uint256",
          "name": "user_id",
          "type": "uint256"
        },
        {
          "internalType": "string",
          "name": "given_name",
          "type": "string"
        },
        {
          "internalType": "string",
          "name": "identifier",
          "type": "string"
        },
        {
          "internalType": "string",
          "name": "patient_id",
          "type": "string"
        }
      ],
      "name": "UpdateFhir",
      "outputs": [],
      "stateMutability": "nonpayable",
      "type": "function"
    },
    {
      "inputs": [
        {
          "internalType": "uint256",
          "name": "trial_id",
          "type": "uint256"
        },
        {
          "internalType": "string",
          "name": "reward_type",
          "type": "string"
        },
        {
          "internalType": "uint256",
          "name": "reward_price",
          "type": "uint256"
        },
        {
          "internalType": "uint256",
          "name": "total_spending_limit",
          "type": "uint256"
        }
      ],
      "name": "UpdateReward",
      "outputs": [],
      "stateMutability": "nonpayable",
      "type": "function"
    },
    {
      "inputs": [
        {
          "internalType": "uint256",
          "name": "survey_id",
          "type": "uint256"
        },
        {
          "internalType": "string",
          "name": "name",
          "type": "string"
        },
        {
          "internalType": "string",
          "name": "description",
          "type": "string"
        },
        {
          "internalType": "string",
          "name": "image",
          "type": "string"
        },
        {
          "internalType": "uint256",
          "name": "reward",
          "type": "uint256"
        }
      ],
      "name": "UpdateSurvey",
      "outputs": [],
      "stateMutability": "nonpayable",
      "type": "function"
    },
    {
      "inputs": [
        {
          "internalType": "uint256",
          "name": "trial_id",
          "type": "uint256"
        },
        {
          "internalType": "string",
          "name": "image",
          "type": "string"
        },
        {
          "internalType": "string",
          "name": "title",
          "type": "string"
        },
        {
          "internalType": "string",
          "name": "description",
          "type": "string"
        },
        {
          "internalType": "uint256",
          "name": "budget",
          "type": "uint256"
        }
      ],
      "name": "UpdateTrial",
      "outputs": [],
      "stateMutability": "nonpayable",
      "type": "function"
    },
    {
      "inputs": [
        {
          "internalType": "uint256",
          "name": "user_id",
          "type": "uint256"
        },
        {
          "internalType": "string",
          "name": "image",
          "type": "string"
        },
        {
          "internalType": "uint256",
          "name": "credits",
          "type": "uint256"
        }
      ],
      "name": "UpdateUser",
      "outputs": [],
      "stateMutability": "nonpayable",
      "type": "function"
    },
    {
      "inputs": [],
      "name": "_AnsweredIds",
      "outputs": [
        {
          "internalType": "uint256",
          "name": "",
          "type": "uint256"
        }
      ],
      "stateMutability": "view",
      "type": "function"
    },
    {
      "inputs": [],
      "name": "_CompletedSurveyIds",
      "outputs": [
        {
          "internalType": "uint256",
          "name": "",
          "type": "uint256"
        }
      ],
      "stateMutability": "view",
      "type": "function"
    },
    {
      "inputs": [],
      "name": "_OngoingIds",
      "outputs": [
        {
          "internalType": "uint256",
          "name": "",
          "type": "uint256"
        }
      ],
      "stateMutability": "view",
      "type": "function"
    },
    {
      "inputs": [],
      "name": "_SurveyCategoryIds",
      "outputs": [
        {
          "internalType": "uint256",
          "name": "",
          "type": "uint256"
        }
      ],
      "stateMutability": "view",
      "type": "function"
    },
    {
      "inputs": [],
      "name": "_SurveyIds",
      "outputs": [
        {
          "internalType": "uint256",
          "name": "",
          "type": "uint256"
        }
      ],
      "stateMutability": "view",
      "type": "function"
    },
    {
      "inputs": [],
      "name": "_TrialIds",
      "outputs": [
        {
          "internalType": "uint256",
          "name": "",
          "type": "uint256"
        }
      ],
      "stateMutability": "view",
      "type": "function"
    },
    {
      "inputs": [],
      "name": "_UserIds",
      "outputs": [
        {
          "internalType": "uint256",
          "name": "",
          "type": "uint256"
        }
      ],
      "stateMutability": "view",
      "type": "function"
    },
    {
      "inputs": [
        {
          "internalType": "uint256",
          "name": "",
          "type": "uint256"
        }
      ],
      "name": "_categoryMap",
      "outputs": [
        {
          "internalType": "string",
          "name": "name",
          "type": "string"
        },
        {
          "internalType": "string",
          "name": "image",
          "type": "string"
        }
      ],
      "stateMutability": "view",
      "type": "function"
    },
    {
      "inputs": [
        {
          "internalType": "uint256",
          "name": "",
          "type": "uint256"
        }
      ],
      "name": "_completedsurveyMap",
      "outputs": [
        {
          "internalType": "uint256",
          "name": "completed_survey_id",
          "type": "uint256"
        },
        {
          "internalType": "uint256",
          "name": "trial_id",
          "type": "uint256"
        },
        {
          "internalType": "uint256",
          "name": "user_id",
          "type": "uint256"
        },
        {
          "internalType": "uint256",
          "name": "survey_id",
          "type": "uint256"
        },
        {
          "internalType": "string",
          "name": "date",
          "type": "string"
        }
      ],
      "stateMutability": "view",
      "type": "function"
    },
    {
      "inputs": [
        {
          "internalType": "uint256",
          "name": "",
          "type": "uint256"
        }
      ],
      "name": "_fhirMap",
      "outputs": [
        {
          "internalType": "uint256",
          "name": "user_id",
          "type": "uint256"
        },
        {
          "internalType": "string",
          "name": "given_name",
          "type": "string"
        },
        {
          "internalType": "string",
          "name": "identifier",
          "type": "string"
        },
        {
          "internalType": "string",
          "name": "patient_id",
          "type": "string"
        }
      ],
      "stateMutability": "view",
      "type": "function"
    },
    {
      "inputs": [
        {
          "internalType": "uint256",
          "name": "",
          "type": "uint256"
        }
      ],
      "name": "_ongoingMap",
      "outputs": [
        {
          "internalType": "uint256",
          "name": "ongoing_id",
          "type": "uint256"
        },
        {
          "internalType": "uint256",
          "name": "trial_id",
          "type": "uint256"
        },
        {
          "internalType": "uint256",
          "name": "user_id",
          "type": "uint256"
        },
        {
          "internalType": "string",
          "name": "date",
          "type": "string"
        }
      ],
      "stateMutability": "view",
      "type": "function"
    },
    {
      "inputs": [
        {
          "internalType": "uint256",
          "name": "",
          "type": "uint256"
        }
      ],
      "name": "_questionanswerdMap",
      "outputs": [
        {
          "internalType": "uint256",
          "name": "answer_id",
          "type": "uint256"
        },
        {
          "internalType": "uint256",
          "name": "trial_id",
          "type": "uint256"
        },
        {
          "internalType": "uint256",
          "name": "user_id",
          "type": "uint256"
        },
        {
          "internalType": "uint256",
          "name": "survey_id",
          "type": "uint256"
        },
        {
          "internalType": "uint256",
          "name": "section_id",
          "type": "uint256"
        },
        {
          "internalType": "uint256",
          "name": "question_id",
          "type": "uint256"
        },
        {
          "internalType": "string",
          "name": "answer",
          "type": "string"
        }
      ],
      "stateMutability": "view",
      "type": "function"
    },
    {
      "inputs": [
        {
          "internalType": "uint256",
          "name": "",
          "type": "uint256"
        }
      ],
      "name": "_sectionsMap",
      "outputs": [
        {
          "internalType": "string",
          "name": "",
          "type": "string"
        }
      ],
      "stateMutability": "view",
      "type": "function"
    },
    {
      "inputs": [
        {
          "internalType": "uint256",
          "name": "",
          "type": "uint256"
        }
      ],
      "name": "_surveyMap",
      "outputs": [
        {
          "internalType": "uint256",
          "name": "survey_id",
          "type": "uint256"
        },
        {
          "internalType": "uint256",
          "name": "trial_id",
          "type": "uint256"
        },
        {
          "internalType": "uint256",
          "name": "user_id",
          "type": "uint256"
        },
        {
          "internalType": "string",
          "name": "name",
          "type": "string"
        },
        {
          "internalType": "string",
          "name": "description",
          "type": "string"
        },
        {
          "internalType": "string",
          "name": "date",
          "type": "string"
        },
        {
          "internalType": "string",
          "name": "image",
          "type": "string"
        },
        {
          "internalType": "uint256",
          "name": "reward",
          "type": "uint256"
        },
        {
          "internalType": "uint256",
          "name": "submission",
          "type": "uint256"
        }
      ],
      "stateMutability": "view",
      "type": "function"
    },
    {
      "inputs": [
        {
          "internalType": "uint256",
          "name": "",
          "type": "uint256"
        }
      ],
      "name": "_trialAudienceMap",
      "outputs": [
        {
          "internalType": "string",
          "name": "",
          "type": "string"
        }
      ],
      "stateMutability": "view",
      "type": "function"
    },
    {
      "inputs": [
        {
          "internalType": "uint256",
          "name": "",
          "type": "uint256"
        }
      ],
      "name": "_trialMap",
      "outputs": [
        {
          "internalType": "uint256",
          "name": "trial_id",
          "type": "uint256"
        },
        {
          "internalType": "uint256",
          "name": "user_id",
          "type": "uint256"
        },
        {
          "internalType": "string",
          "name": "image",
          "type": "string"
        },
        {
          "internalType": "string",
          "name": "title",
          "type": "string"
        },
        {
          "internalType": "string",
          "name": "description",
          "type": "string"
        },
        {
          "internalType": "uint256",
          "name": "contributors",
          "type": "uint256"
        },
        {
          "internalType": "uint256",
          "name": "audience",
          "type": "uint256"
        },
        {
          "internalType": "uint256",
          "name": "budget",
          "type": "uint256"
        },
        {
          "internalType": "string",
          "name": "date",
          "type": "string"
        }
      ],
      "stateMutability": "view",
      "type": "function"
    },
    {
      "inputs": [
        {
          "internalType": "uint256",
          "name": "",
          "type": "uint256"
        }
      ],
      "name": "_trialRewardMap",
      "outputs": [
        {
          "internalType": "uint256",
          "name": "trial_id",
          "type": "uint256"
        },
        {
          "internalType": "uint256",
          "name": "user_id",
          "type": "uint256"
        },
        {
          "internalType": "string",
          "name": "reward_type",
          "type": "string"
        },
        {
          "internalType": "uint256",
          "name": "reward_price",
          "type": "uint256"
        },
        {
          "internalType": "uint256",
          "name": "total_spending_limit",
          "type": "uint256"
        }
      ],
      "stateMutability": "view",
      "type": "function"
    },
    {
      "inputs": [
        {
          "internalType": "uint256",
          "name": "user_id",
          "type": "uint256"
        }
      ],
      "name": "getAllCompletedSurveysIDByUser",
      "outputs": [
        {
          "internalType": "uint256[]",
          "name": "",
          "type": "uint256[]"
        }
      ],
      "stateMutability": "view",
      "type": "function"
    },
    {
      "inputs": [
        {
          "internalType": "uint256",
          "name": "trial_id",
          "type": "uint256"
        }
      ],
      "name": "getAllSurveysIDByTrial",
      "outputs": [
        {
          "internalType": "uint256[]",
          "name": "",
          "type": "uint256[]"
        }
      ],
      "stateMutability": "view",
      "type": "function"
    },
    {
      "inputs": [
        {
          "internalType": "uint256",
          "name": "user_id",
          "type": "uint256"
        }
      ],
      "name": "getUserDetails",
      "outputs": [
        {
          "internalType": "string",
          "name": "",
          "type": "string"
        },
        {
          "internalType": "uint256",
          "name": "",
          "type": "uint256"
        },
        {
          "internalType": "string",
          "name": "",
          "type": "string"
        },
        {
          "internalType": "string",
          "name": "",
          "type": "string"
        }
      ],
      "stateMutability": "view",
      "type": "function"
    },
    {
      "inputs": [],
      "name": "owner",
      "outputs": [
        {
          "internalType": "address",
          "name": "",
          "type": "address"
        }
      ],
      "stateMutability": "view",
      "type": "function"
    },
    {
      "inputs": [],
      "name": "reset_all",
      "outputs": [],
      "stateMutability": "nonpayable",
      "type": "function"
    }
  ],
  "transactionHash": "0x434cd50890daecc4a9e6f6761d8ab46b4975145d7fded3af79c0ca6cfe166ac5",
  "args": [],
  "numDeployments": 2,
  "solcInputHash": "ffea6b39446974ddd8d70c74f3658069",
  "bytecode": "0x608060405234801561001057600080fd5b50613ed0806100206000396000f3fe608060405234801561001057600080fd5b506004361061023d5760003560e01c806390d6cf051161013b578063ce08988c116100b8578063eb6b28701161007c578063eb6b287014610707578063ebe197ca14610725578063f0d8e87314610758578063f6aaa80414610789578063f8b7800f146107bc5761023d565b8063ce08988c14610631578063da01f01e1461064f578063de7acfd714610683578063e57f973f146106bb578063ea7efaa6146106d75761023d565b8063b16060a6116100ff578063b16060a61461056b578063b6e604bd14610575578063bed208fe14610593578063c13b2836146105cb578063ccef4218146106015761023d565b806390d6cf05146104c5578063a5f3fc7d146104f9578063a92e1c4c14610515578063ac7aef0e14610531578063ad23f8f91461054f5761023d565b806345948fde116101c957806366cad7341161018d57806366cad7341461040f578063682d562b1461042b5780637d423e101461045b5780638da5cb5b14610477578063902841d4146104955761023d565b806345948fde1461036f57806349b9b07b1461038b5780634f8b36eb146103bb57806355391705146103d75780635f27aea1146103f35761023d565b80632a8caf4a116102105780632a8caf4a146102cf5780632c02dd60146102ff5780632ffb08f71461031b5780633896f130146103375780633eebd0d0146103535761023d565b806301c66109146102425780631429f775146102605780631c1a9f7b1461027e57806329b36423146102b1575b600080fd5b61024a6107ec565b60405161025791906137c3565b60405180910390f35b6102686107f2565b60405161027591906137c3565b60405180910390f35b61029860048036038101906102939190612e89565b6107f8565b6040516102a89493929190613769565b60405180910390f35b6102b9610a0b565b6040516102c691906137c3565b60405180910390f35b6102e960048036038101906102e49190612e89565b610a11565b6040516102f69190613710565b60405180910390f35b6103196004803603810190610314919061309c565b610ab1565b005b610335600480360381019061033091906134b8565b610c6a565b005b610351600480360381019061034c9190613323565b610d30565b005b61036d60048036038101906103689190613231565b610e53565b005b61038960048036038101906103849190612de2565b610eba565b005b6103a560048036038101906103a09190612e89565b610fbd565b6040516103b291906136ee565b60405180910390f35b6103d560048036038101906103d09190612d6a565b6110d5565b005b6103f160048036038101906103ec9190612fcd565b611158565b005b61040d60048036038101906104089190612fcd565b6111fb565b005b61042960048036038101906104249190612eb6565b61129e565b005b61044560048036038101906104409190612e89565b6112ca565b60405161045291906136ee565b60405180910390f35b61047560048036038101906104709190613435565b6113e2565b005b61047f6114df565b60405161048c91906136d3565b60405180910390f35b6104af60048036038101906104aa9190612e89565b611505565b6040516104bc9190613710565b60405180910390f35b6104df60048036038101906104da9190612e89565b6115ab565b6040516104f0959493929190613a30565b60405180910390f35b610513600480360381019061050e91906132b4565b611669565b005b61052f600480360381019061052a9190612f12565b61172a565b005b6105396117cc565b60405161054691906137c3565b60405180910390f35b61056960048036038101906105649190612eb6565b6117d2565b005b6105736117fe565b005b61057d611ce6565b60405161058a91906137c3565b60405180910390f35b6105ad60048036038101906105a89190612e89565b611cec565b6040516105c299989796959493929190613838565b60405180910390f35b6105e560048036038101906105e09190612e89565b611f5a565b6040516105f89796959493929190613a8a565b60405180910390f35b61061b60048036038101906106169190612d6a565b612024565b6040516106289190613710565b60405180910390f35b61063961210c565b60405161064691906137c3565b60405180910390f35b61066960048036038101906106649190612e89565b612112565b60405161067a9594939291906138e1565b60405180910390f35b61069d60048036038101906106989190612e89565b6121d0565b6040516106b299989796959493929190613987565b60405180910390f35b6106d560048036038101906106d091906131c2565b61243e565b005b6106f160048036038101906106ec9190612e89565b612489565b6040516106fe9190613710565b60405180910390f35b61070f612529565b60405161071c91906137c3565b60405180910390f35b61073f600480360381019061073a9190612e89565b61252f565b60405161074f94939291906137de565b60405180910390f35b610772600480360381019061076d9190612e89565b6126f7565b604051610780929190613732565b60405180910390f35b6107a3600480360381019061079e9190612e89565b61282b565b6040516107b3949392919061393b565b60405180910390f35b6107d660048036038101906107d19190612d21565b6128e3565b6040516107e39190613710565b60405180910390f35b60055481565b60025481565b60606000606080600760008681526020019081526020016000206004016007600087815260200190815260200160002060050154600760008881526020019081526020016000206001016007600089815260200190815260200160002060020183805461086490613c9f565b80601f016020809104026020016040519081016040528092919081815260200182805461089090613c9f565b80156108dd5780601f106108b2576101008083540402835291602001916108dd565b820191906000526020600020905b8154815290600101906020018083116108c057829003601f168201915b505050505093508180546108f090613c9f565b80601f016020809104026020016040519081016040528092919081815260200182805461091c90613c9f565b80156109695780601f1061093e57610100808354040283529160200191610969565b820191906000526020600020905b81548152906001019060200180831161094c57829003601f168201915b5050505050915080805461097c90613c9f565b80601f01602080910402602001604051908101604052809291908181526020018280546109a890613c9f565b80156109f55780601f106109ca576101008083540402835291602001916109f5565b820191906000526020600020905b8154815290600101906020018083116109d857829003601f168201915b5050505050905093509350935093509193509193565b60035481565b600a6020528060005260406000206000915090508054610a3090613c9f565b80601f0160208091040260200160405190810160405280929190818152602001828054610a5c90613c9f565b8015610aa95780601f10610a7e57610100808354040283529160200191610aa9565b820191906000526020600020905b815481529060010190602001808311610a8c57829003601f168201915b505050505081565b60405180610120016040528060015481526020018981526020018881526020018781526020018681526020018581526020018481526020018381526020018281525060086000600154815260200190815260200160002060008201518160000155602082015181600101556040820151816002019080519060200190610b38929190612bb9565b506060820151816003019080519060200190610b55929190612bb9565b506080820151816004019080519060200190610b72929190612bb9565b5060a0820151816005015560c0820151816006015560e08201518160070155610100820151816008019080519060200190610bae929190612bb9565b509050506040518060a001604052806001548152602001898152602001604051806020016040528060008152508152602001600081526020018381525060096000600154815260200190815260200160002060008201518160000155602082015181600101556040820151816002019080519060200190610c30929190612bb9565b50606082015181600301556080820151816004015590505060016000815480929190610c5b90613d02565b91905055505050505050505050565b6040518060e00160405280600554815260200187815260200186815260200185815260200184815260200183815260200182815250601060006005548152602001908152602001600020600082015181600001556020820151816001015560408201518160020155606082015181600301556080820151816004015560a0820151816005015560c0820151816006019080519060200190610d0c929190612bb9565b5090505060056000815480929190610d2390613d02565b9190505550505050505050565b60405180610120016040528060025481526020018881526020018781526020018681526020018581526020018481526020018381526020018281526020016000815250600b600060025481526020019081526020016000206000820151816000015560208201518160010155604082015181600201556060820151816003019080519060200190610dc2929190612bb9565b506080820151816004019080519060200190610ddf929190612bb9565b5060a0820151816005019080519060200190610dfc929190612bb9565b5060c0820151816006019080519060200190610e19929190612bb9565b5060e08201518160070155610100820151816008015590505060026000815480929190610e4590613d02565b919050555050505050505050565b82600960008681526020019081526020016000206002019080519060200190610e7d929190612bb9565b5081600960008681526020019081526020016000206003018190555080600960008681526020019081526020016000206004018190555050505050565b6040518060c001604052806000548152602001848152602001838152602001828152602001604051806060016040528060288152602001613e7360289139815260200160008152506007600080548152602001908152602001600020600082015181600001556020820151816001019080519060200190610f3c929190612bb9565b506040820151816002019080519060200190610f59929190612bb9565b506060820151816003019080519060200190610f76929190612bb9565b506080820151816004019080519060200190610f93929190612bb9565b5060a08201518160050155905050600080815480929190610fb390613d02565b9190505550505050565b60606000805b60065481101561100d578360116000838152602001908152602001600020600201541415610ffa578180610ff690613d02565b9250505b808061100590613d02565b915050610fc3565b5060008167ffffffffffffffff81111561102a57611029613e07565b5b6040519080825280602002602001820160405280156110585781602001602082028036833780820191505090505b5090506000805b6006548110156110c95785601160008381526020019081526020016000206002015414156110b6578083838151811061109b5761109a613dd8565b5b60200260200101818152505081806110b290613d02565b9250505b80806110c190613d02565b91505061105f565b50819350505050919050565b604051806040016040528083815260200182815250600c60006003548152602001908152602001600020600082015181600001908051906020019061111b929190612bb9565b506020820151816001019080519060200190611138929190612bb9565b509050506003600081548092919061114f90613d02565b91905055505050565b83600860008781526020019081526020016000206002019080519060200190611182929190612bb9565b50826008600087815260200190815260200160002060030190805190602001906111ad929190612bb9565b50816008600087815260200190815260200160002060040190805190602001906111d8929190612bb9565b508060086000878152602001908152602001600020600701819055505050505050565b83600b60008781526020019081526020016000206003019080519060200190611225929190612bb9565b5082600b60008781526020019081526020016000206004019080519060200190611250929190612bb9565b5081600b6000878152602001908152602001600020600601908051906020019061127b929190612bb9565b5080600b6000878152602001908152602001600020600701819055505050505050565b80600d600084815260200190815260200160002090805190602001906112c5929190612bb9565b505050565b60606000805b60025481101561131a5783600b600083815260200190815260200160002060010154141561130757818061130390613d02565b9250505b808061131290613d02565b9150506112d0565b5060008167ffffffffffffffff81111561133757611336613e07565b5b6040519080825280602002602001820160405280156113655781602001602082028036833780820191505090505b5090506000805b6002548110156113d65785600b60008381526020019081526020016000206001015414156113c357808383815181106113a8576113a7613dd8565b5b60200260200101818152505081806113bf90613d02565b9250505b80806113ce90613d02565b91505061136c565b50819350505050919050565b6040518060a00160405280600654815260200182815260200184815260200185815260200183815250601160006006548152602001908152602001600020600082015181600001556020820151816001015560408201518160020155606082015181600301556080820151816004019080519060200190611464929190612bb9565b509050506001600b6000868152602001908152602001600020600801600082825461148f9190613bcb565b9250508190555081600b600086815260200190815260200160002060050190805190602001906114c0929190612bb9565b50600660008154809291906114d490613d02565b919050555050505050565b601260009054906101000a900473ffffffffffffffffffffffffffffffffffffffff1681565b606060005b60045481101561156c5782600f600083815260200190815260200160002060020154141561155957611551600f60008381526020019081526020016000206001015461298e565b9150506115a6565b808061156490613d02565b91505061150a565b506040518060400160405280600581526020017f46616c736500000000000000000000000000000000000000000000000000000081525090505b919050565b60116020528060005260406000206000915090508060000154908060010154908060020154908060030154908060040180546115e690613c9f565b80601f016020809104026020016040519081016040528092919081815260200182805461161290613c9f565b801561165f5780601f106116345761010080835404028352916020019161165f565b820191906000526020600020905b81548152906001019060200180831161164257829003601f168201915b5050505050905085565b6040518060800160405280600454815260200184815260200183815260200182815250600f6000600454815260200190815260200160002060008201518160000155602082015181600101556040820151816002015560608201518160030190805190602001906116db929190612bb9565b5090505060016008600085815260200190815260200160002060050160008282546117069190613bcb565b925050819055506004600081548092919061172090613d02565b9190505550505050565b83600e60008681526020019081526020016000206000018190555082600e6000868152602001908152602001600020600101908051906020019061176f929190612bb9565b5081600e6000868152602001908152602001600020600201908051906020019061179a929190612bb9565b5080600e600086815260200190815260200160002060030190805190602001906117c5929190612bb9565b5050505050565b60015481565b80600a600084815260200190815260200160002090805190602001906117f9929190612bb9565b505050565b60005b60005481101561188457600760008281526020019081526020016000206000808201600090556001820160006118379190612c3f565b6002820160006118479190612c3f565b6003820160006118579190612c3f565b6004820160006118679190612c3f565b60058201600090555050808061187c90613d02565b915050611801565b5060005b600154811015611923576008600082815260200190815260200160002060008082016000905560018201600090556002820160006118c69190612c3f565b6003820160006118d69190612c3f565b6004820160006118e69190612c3f565b60058201600090556006820160009055600782016000905560088201600061190e9190612c3f565b5050808061191b90613d02565b915050611888565b5060005b60015481101561198a576009600082815260200190815260200160002060008082016000905560018201600090556002820160006119659190612c3f565b600382016000905560048201600090555050808061198290613d02565b915050611927565b5060005b6001548110156119ca57600a600082815260200190815260200160002060006119b79190612c3f565b80806119c290613d02565b91505061198e565b5060005b600254811015611a6957600b600082815260200190815260200160002060008082016000905560018201600090556002820160009055600382016000611a149190612c3f565b600482016000611a249190612c3f565b600582016000611a349190612c3f565b600682016000611a449190612c3f565b6007820160009055600882016000905550508080611a6190613d02565b9150506119ce565b5060005b600354811015611ac057600c600082815260200190815260200160002060008082016000611a9b9190612c3f565b600182016000611aab9190612c3f565b50508080611ab890613d02565b915050611a6d565b5060005b600154811015611b0057600d60008281526020019081526020016000206000611aed9190612c3f565b8080611af890613d02565b915050611ac4565b5060005b600054811015611b6f57600e6000828152602001908152602001600020600080820160009055600182016000611b3a9190612c3f565b600282016000611b4a9190612c3f565b600382016000611b5a9190612c3f565b50508080611b6790613d02565b915050611b04565b5060005b600454811015611bce57600f600082815260200190815260200160002060008082016000905560018201600090556002820160009055600382016000611bb99190612c3f565b50508080611bc690613d02565b915050611b73565b5060005b600554811015611c45576010600082815260200190815260200160002060008082016000905560018201600090556002820160009055600382016000905560048201600090556005820160009055600682016000611c309190612c3f565b50508080611c3d90613d02565b915050611bd2565b5060005b600654811015611cac5760116000828152602001908152602001600020600080820160009055600182016000905560028201600090556003820160009055600482016000611c979190612c3f565b50508080611ca490613d02565b915050611c49565b5060008081905550600060018190555060006002819055506000600381905550600060048190555060006005819055506000600681905550565b60065481565b6008602052806000526040600020600091509050806000015490806001015490806002018054611d1b90613c9f565b80601f0160208091040260200160405190810160405280929190818152602001828054611d4790613c9f565b8015611d945780601f10611d6957610100808354040283529160200191611d94565b820191906000526020600020905b815481529060010190602001808311611d7757829003601f168201915b505050505090806003018054611da990613c9f565b80601f0160208091040260200160405190810160405280929190818152602001828054611dd590613c9f565b8015611e225780601f10611df757610100808354040283529160200191611e22565b820191906000526020600020905b815481529060010190602001808311611e0557829003601f168201915b505050505090806004018054611e3790613c9f565b80601f0160208091040260200160405190810160405280929190818152602001828054611e6390613c9f565b8015611eb05780601f10611e8557610100808354040283529160200191611eb0565b820191906000526020600020905b815481529060010190602001808311611e9357829003601f168201915b505050505090806005015490806006015490806007015490806008018054611ed790613c9f565b80601f0160208091040260200160405190810160405280929190818152602001828054611f0390613c9f565b8015611f505780601f10611f2557610100808354040283529160200191611f50565b820191906000526020600020905b815481529060010190602001808311611f3357829003601f168201915b5050505050905089565b6010602052806000526040600020600091509050806000015490806001015490806002015490806003015490806004015490806005015490806006018054611fa190613c9f565b80601f0160208091040260200160405190810160405280929190818152602001828054611fcd90613c9f565b801561201a5780601f10611fef5761010080835404028352916020019161201a565b820191906000526020600020905b815481529060010190602001808311611ffd57829003601f168201915b5050505050905087565b606060005b6000548110156120cc5783805190602001206007600083815260200190815260200160002060020160405161205e91906136bc565b60405180910390201480156120a3575082805190602001206007600083815260200190815260200160002060030160405161209991906136bc565b6040518091039020145b156120b9576120b18161298e565b915050612106565b80806120c490613d02565b915050612029565b506040518060400160405280600581526020017f46616c736500000000000000000000000000000000000000000000000000000081525090505b92915050565b60005481565b600960205280600052604060002060009150905080600001549080600101549080600201805461214190613c9f565b80601f016020809104026020016040519081016040528092919081815260200182805461216d90613c9f565b80156121ba5780601f1061218f576101008083540402835291602001916121ba565b820191906000526020600020905b81548152906001019060200180831161219d57829003601f168201915b5050505050908060030154908060040154905085565b600b60205280600052604060002060009150905080600001549080600101549080600201549080600301805461220590613c9f565b80601f016020809104026020016040519081016040528092919081815260200182805461223190613c9f565b801561227e5780601f106122535761010080835404028352916020019161227e565b820191906000526020600020905b81548152906001019060200180831161226157829003601f168201915b50505050509080600401805461229390613c9f565b80601f01602080910402602001604051908101604052809291908181526020018280546122bf90613c9f565b801561230c5780601f106122e15761010080835404028352916020019161230c565b820191906000526020600020905b8154815290600101906020018083116122ef57829003601f168201915b50505050509080600501805461232190613c9f565b80601f016020809104026020016040519081016040528092919081815260200182805461234d90613c9f565b801561239a5780601f1061236f5761010080835404028352916020019161239a565b820191906000526020600020905b81548152906001019060200180831161237d57829003601f168201915b5050505050908060060180546123af90613c9f565b80601f01602080910402602001604051908101604052809291908181526020018280546123db90613c9f565b80156124285780601f106123fd57610100808354040283529160200191612428565b820191906000526020600020905b81548152906001019060200180831161240b57829003601f168201915b5050505050908060070154908060080154905089565b81600760008581526020019081526020016000206004019080519060200190612468929190612bb9565b50806007600085815260200190815260200160002060050181905550505050565b600d60205280600052604060002060009150905080546124a890613c9f565b80601f01602080910402602001604051908101604052809291908181526020018280546124d490613c9f565b80156125215780601f106124f657610100808354040283529160200191612521565b820191906000526020600020905b81548152906001019060200180831161250457829003601f168201915b505050505081565b60045481565b600e60205280600052604060002060009150905080600001549080600101805461255890613c9f565b80601f016020809104026020016040519081016040528092919081815260200182805461258490613c9f565b80156125d15780601f106125a6576101008083540402835291602001916125d1565b820191906000526020600020905b8154815290600101906020018083116125b457829003601f168201915b5050505050908060020180546125e690613c9f565b80601f016020809104026020016040519081016040528092919081815260200182805461261290613c9f565b801561265f5780601f106126345761010080835404028352916020019161265f565b820191906000526020600020905b81548152906001019060200180831161264257829003601f168201915b50505050509080600301805461267490613c9f565b80601f01602080910402602001604051908101604052809291908181526020018280546126a090613c9f565b80156126ed5780601f106126c2576101008083540402835291602001916126ed565b820191906000526020600020905b8154815290600101906020018083116126d057829003601f168201915b5050505050905084565b600c60205280600052604060002060009150905080600001805461271a90613c9f565b80601f016020809104026020016040519081016040528092919081815260200182805461274690613c9f565b80156127935780601f1061276857610100808354040283529160200191612793565b820191906000526020600020905b81548152906001019060200180831161277657829003601f168201915b5050505050908060010180546127a890613c9f565b80601f01602080910402602001604051908101604052809291908181526020018280546127d490613c9f565b80156128215780601f106127f657610100808354040283529160200191612821565b820191906000526020600020905b81548152906001019060200180831161280457829003601f168201915b5050505050905082565b600f60205280600052604060002060009150905080600001549080600101549080600201549080600301805461286090613c9f565b80601f016020809104026020016040519081016040528092919081815260200182805461288c90613c9f565b80156128d95780601f106128ae576101008083540402835291602001916128d9565b820191906000526020600020905b8154815290600101906020018083116128bc57829003601f168201915b5050505050905084565b606060005b60005481101561294f5782805190602001206007600083815260200190815260200160002060020160405161291d91906136bc565b6040518091039020141561293c576129348161298e565b915050612989565b808061294790613d02565b9150506128e8565b506040518060400160405280600581526020017f46616c736500000000000000000000000000000000000000000000000000000081525090505b919050565b60606000600161299d84612a66565b01905060008167ffffffffffffffff8111156129bc576129bb613e07565b5b6040519080825280601f01601f1916602001820160405280156129ee5781602001600182028036833780820191505090505b509050600082602001820190505b600115612a5b578080600190039150507f3031323334353637383961626364656600000000000000000000000000000000600a86061a8153600a8581612a4557612a44613d7a565b5b0494506000851415612a5657612a5b565b6129fc565b819350505050919050565b600080600090507a184f03e93ff9f4daa797ed6e38ed64bf6a1f0100000000000000008310612ac4577a184f03e93ff9f4daa797ed6e38ed64bf6a1f0100000000000000008381612aba57612ab9613d7a565b5b0492506040810190505b6d04ee2d6d415b85acef81000000008310612b01576d04ee2d6d415b85acef81000000008381612af757612af6613d7a565b5b0492506020810190505b662386f26fc100008310612b3057662386f26fc100008381612b2657612b25613d7a565b5b0492506010810190505b6305f5e1008310612b59576305f5e1008381612b4f57612b4e613d7a565b5b0492506008810190505b6127108310612b7e576127108381612b7457612b73613d7a565b5b0492506004810190505b60648310612ba15760648381612b9757612b96613d7a565b5b0492506002810190505b600a8310612bb0576001810190505b80915050919050565b828054612bc590613c9f565b90600052602060002090601f016020900481019282612be75760008555612c2e565b82601f10612c0057805160ff1916838001178555612c2e565b82800160010185558215612c2e579182015b82811115612c2d578251825591602001919060010190612c12565b5b509050612c3b9190612c7f565b5090565b508054612c4b90613c9f565b6000825580601f10612c5d5750612c7c565b601f016020900490600052602060002090810190612c7b9190612c7f565b5b50565b5b80821115612c98576000816000905550600101612c80565b5090565b6000612caf612caa84613b25565b613b00565b905082815260208101848484011115612ccb57612cca613e3b565b5b612cd6848285613c5d565b509392505050565b600082601f830112612cf357612cf2613e36565b5b8135612d03848260208601612c9c565b91505092915050565b600081359050612d1b81613e5b565b92915050565b600060208284031215612d3757612d36613e45565b5b600082013567ffffffffffffffff811115612d5557612d54613e40565b5b612d6184828501612cde565b91505092915050565b60008060408385031215612d8157612d80613e45565b5b600083013567ffffffffffffffff811115612d9f57612d9e613e40565b5b612dab85828601612cde565b925050602083013567ffffffffffffffff811115612dcc57612dcb613e40565b5b612dd885828601612cde565b9150509250929050565b600080600060608486031215612dfb57612dfa613e45565b5b600084013567ffffffffffffffff811115612e1957612e18613e40565b5b612e2586828701612cde565b935050602084013567ffffffffffffffff811115612e4657612e45613e40565b5b612e5286828701612cde565b925050604084013567ffffffffffffffff811115612e7357612e72613e40565b5b612e7f86828701612cde565b9150509250925092565b600060208284031215612e9f57612e9e613e45565b5b6000612ead84828501612d0c565b91505092915050565b60008060408385031215612ecd57612ecc613e45565b5b6000612edb85828601612d0c565b925050602083013567ffffffffffffffff811115612efc57612efb613e40565b5b612f0885828601612cde565b9150509250929050565b60008060008060808587031215612f2c57612f2b613e45565b5b6000612f3a87828801612d0c565b945050602085013567ffffffffffffffff811115612f5b57612f5a613e40565b5b612f6787828801612cde565b935050604085013567ffffffffffffffff811115612f8857612f87613e40565b5b612f9487828801612cde565b925050606085013567ffffffffffffffff811115612fb557612fb4613e40565b5b612fc187828801612cde565b91505092959194509250565b600080600080600060a08688031215612fe957612fe8613e45565b5b6000612ff788828901612d0c565b955050602086013567ffffffffffffffff81111561301857613017613e40565b5b61302488828901612cde565b945050604086013567ffffffffffffffff81111561304557613044613e40565b5b61305188828901612cde565b935050606086013567ffffffffffffffff81111561307257613071613e40565b5b61307e88828901612cde565b925050608061308f88828901612d0c565b9150509295509295909350565b600080600080600080600080610100898b0312156130bd576130bc613e45565b5b60006130cb8b828c01612d0c565b985050602089013567ffffffffffffffff8111156130ec576130eb613e40565b5b6130f88b828c01612cde565b975050604089013567ffffffffffffffff81111561311957613118613e40565b5b6131258b828c01612cde565b965050606089013567ffffffffffffffff81111561314657613145613e40565b5b6131528b828c01612cde565b95505060806131638b828c01612d0c565b94505060a06131748b828c01612d0c565b93505060c06131858b828c01612d0c565b92505060e089013567ffffffffffffffff8111156131a6576131a5613e40565b5b6131b28b828c01612cde565b9150509295985092959890939650565b6000806000606084860312156131db576131da613e45565b5b60006131e986828701612d0c565b935050602084013567ffffffffffffffff81111561320a57613209613e40565b5b61321686828701612cde565b925050604061322786828701612d0c565b9150509250925092565b6000806000806080858703121561324b5761324a613e45565b5b600061325987828801612d0c565b945050602085013567ffffffffffffffff81111561327a57613279613e40565b5b61328687828801612cde565b935050604061329787828801612d0c565b92505060606132a887828801612d0c565b91505092959194509250565b6000806000606084860312156132cd576132cc613e45565b5b60006132db86828701612d0c565b93505060206132ec86828701612d0c565b925050604084013567ffffffffffffffff81111561330d5761330c613e40565b5b61331986828701612cde565b9150509250925092565b600080600080600080600060e0888a03121561334257613341613e45565b5b60006133508a828b01612d0c565b97505060206133618a828b01612d0c565b965050604088013567ffffffffffffffff81111561338257613381613e40565b5b61338e8a828b01612cde565b955050606088013567ffffffffffffffff8111156133af576133ae613e40565b5b6133bb8a828b01612cde565b945050608088013567ffffffffffffffff8111156133dc576133db613e40565b5b6133e88a828b01612cde565b93505060a088013567ffffffffffffffff81111561340957613408613e40565b5b6134158a828b01612cde565b92505060c06134268a828b01612d0c565b91505092959891949750929550565b6000806000806080858703121561344f5761344e613e45565b5b600061345d87828801612d0c565b945050602061346e87828801612d0c565b935050604085013567ffffffffffffffff81111561348f5761348e613e40565b5b61349b87828801612cde565b92505060606134ac87828801612d0c565b91505092959194509250565b60008060008060008060c087890312156134d5576134d4613e45565b5b60006134e389828a01612d0c565b96505060206134f489828a01612d0c565b955050604061350589828a01612d0c565b945050606061351689828a01612d0c565b935050608061352789828a01612d0c565b92505060a087013567ffffffffffffffff81111561354857613547613e40565b5b61355489828a01612cde565b9150509295509295509295565b600061356d838361369e565b60208301905092915050565b61358281613c21565b82525050565b600061359382613b7b565b61359d8185613b9e565b93506135a883613b56565b8060005b838110156135d95781516135c08882613561565b97506135cb83613b91565b9250506001810190506135ac565b5085935050505092915050565b600081546135f381613c9f565b6135fd8186613baf565b9450600182166000811461361857600181146136295761365c565b60ff1983168652818601935061365c565b61363285613b66565b60005b8381101561365457815481890152600182019150602081019050613635565b838801955050505b50505092915050565b600061367082613b86565b61367a8185613bba565b935061368a818560208601613c6c565b61369381613e4a565b840191505092915050565b6136a781613c53565b82525050565b6136b681613c53565b82525050565b60006136c882846135e6565b915081905092915050565b60006020820190506136e86000830184613579565b92915050565b600060208201905081810360008301526137088184613588565b905092915050565b6000602082019050818103600083015261372a8184613665565b905092915050565b6000604082019050818103600083015261374c8185613665565b905081810360208301526137608184613665565b90509392505050565b600060808201905081810360008301526137838187613665565b905061379260208301866136ad565b81810360408301526137a48185613665565b905081810360608301526137b88184613665565b905095945050505050565b60006020820190506137d860008301846136ad565b92915050565b60006080820190506137f360008301876136ad565b81810360208301526138058186613665565b905081810360408301526138198185613665565b9050818103606083015261382d8184613665565b905095945050505050565b60006101208201905061384e600083018c6136ad565b61385b602083018b6136ad565b818103604083015261386d818a613665565b905081810360608301526138818189613665565b905081810360808301526138958188613665565b90506138a460a08301876136ad565b6138b160c08301866136ad565b6138be60e08301856136ad565b8181036101008301526138d18184613665565b90509a9950505050505050505050565b600060a0820190506138f660008301886136ad565b61390360208301876136ad565b81810360408301526139158186613665565b905061392460608301856136ad565b61393160808301846136ad565b9695505050505050565b600060808201905061395060008301876136ad565b61395d60208301866136ad565b61396a60408301856136ad565b818103606083015261397c8184613665565b905095945050505050565b60006101208201905061399d600083018c6136ad565b6139aa602083018b6136ad565b6139b7604083018a6136ad565b81810360608301526139c98189613665565b905081810360808301526139dd8188613665565b905081810360a08301526139f18187613665565b905081810360c0830152613a058186613665565b9050613a1460e08301856136ad565b613a226101008301846136ad565b9a9950505050505050505050565b600060a082019050613a4560008301886136ad565b613a5260208301876136ad565b613a5f60408301866136ad565b613a6c60608301856136ad565b8181036080830152613a7e8184613665565b90509695505050505050565b600060e082019050613a9f600083018a6136ad565b613aac60208301896136ad565b613ab960408301886136ad565b613ac660608301876136ad565b613ad360808301866136ad565b613ae060a08301856136ad565b81810360c0830152613af28184613665565b905098975050505050505050565b6000613b0a613b1b565b9050613b168282613cd1565b919050565b6000604051905090565b600067ffffffffffffffff821115613b4057613b3f613e07565b5b613b4982613e4a565b9050602081019050919050565b6000819050602082019050919050565b60008190508160005260206000209050919050565b600081519050919050565b600081519050919050565b6000602082019050919050565b600082825260208201905092915050565b600081905092915050565b600082825260208201905092915050565b6000613bd682613c53565b9150613be183613c53565b9250827fffffffffffffffffffffffffffffffffffffffffffffffffffffffffffffffff03821115613c1657613c15613d4b565b5b828201905092915050565b6000613c2c82613c33565b9050919050565b600073ffffffffffffffffffffffffffffffffffffffff82169050919050565b6000819050919050565b82818337600083830152505050565b60005b83811015613c8a578082015181840152602081019050613c6f565b83811115613c99576000848401525b50505050565b60006002820490506001821680613cb757607f821691505b60208210811415613ccb57613cca613da9565b5b50919050565b613cda82613e4a565b810181811067ffffffffffffffff82111715613cf957613cf8613e07565b5b80604052505050565b6000613d0d82613c53565b91507fffffffffffffffffffffffffffffffffffffffffffffffffffffffffffffffff821415613d4057613d3f613d4b565b5b600182019050919050565b7f4e487b7100000000000000000000000000000000000000000000000000000000600052601160045260246000fd5b7f4e487b7100000000000000000000000000000000000000000000000000000000600052601260045260246000fd5b7f4e487b7100000000000000000000000000000000000000000000000000000000600052602260045260246000fd5b7f4e487b7100000000000000000000000000000000000000000000000000000000600052603260045260246000fd5b7f4e487b7100000000000000000000000000000000000000000000000000000000600052604160045260246000fd5b600080fd5b600080fd5b600080fd5b600080fd5b6000601f19601f8301169050919050565b613e6481613c53565b8114613e6f57600080fd5b5056fe68747470733a2f2f692e706f7374696d672e63632f537378477735635a2f706572736f6e2e6a7067a2646970667358221220bf0a66347f943723bed196ca7259a85329819ab0e868813d11c5fb9b72e1588764736f6c63430008060033",
  "devdoc": {
    "kind": "dev",
    "methods": {},
    "version": 1
  },
  "userdoc": {
    "kind": "user",
    "methods": {
      "_categoryMap(uint256)": {
        "notice": "The map of all the Survey Category ."
      },
      "_completedsurveyMap(uint256)": {
        "notice": "The map of all the Completed Surveys."
      },
      "_fhirMap(uint256)": {
        "notice": "The map of all the FHIR information."
      },
      "_ongoingMap(uint256)": {
        "notice": "The map of all the OnGoing Trials."
      },
      "_questionanswerdMap(uint256)": {
        "notice": "The map of all the Question Answerd in a Survey."
      },
      "_sectionsMap(uint256)": {
        "notice": "The map of all the Survey Sections  ."
      },
      "_surveyMap(uint256)": {
        "notice": "The map of all the Surveys information."
      },
      "_trialAudienceMap(uint256)": {
        "notice": "The map of all the Rewards information."
      },
      "_trialMap(uint256)": {
        "notice": "The map of all the Trials information."
      },
      "_trialRewardMap(uint256)": {
        "notice": "The map of all the Rewards information."
      }
    },
    "version": 1
  },
  "storageLayout": {
    "storage": [
      {
        "astId": 1190,
        "contract": "contracts/WaveData.sol:WaveData",
        "label": "_UserIds",
        "offset": 0,
        "slot": "0",
        "type": "t_uint256"
      },
      {
        "astId": 1192,
        "contract": "contracts/WaveData.sol:WaveData",
        "label": "_TrialIds",
        "offset": 0,
        "slot": "1",
        "type": "t_uint256"
      },
      {
        "astId": 1194,
        "contract": "contracts/WaveData.sol:WaveData",
        "label": "_SurveyIds",
        "offset": 0,
        "slot": "2",
        "type": "t_uint256"
      },
      {
        "astId": 1196,
        "contract": "contracts/WaveData.sol:WaveData",
        "label": "_SurveyCategoryIds",
        "offset": 0,
        "slot": "3",
        "type": "t_uint256"
      },
      {
        "astId": 1198,
        "contract": "contracts/WaveData.sol:WaveData",
        "label": "_OngoingIds",
        "offset": 0,
        "slot": "4",
        "type": "t_uint256"
      },
      {
        "astId": 1200,
        "contract": "contracts/WaveData.sol:WaveData",
        "label": "_AnsweredIds",
        "offset": 0,
        "slot": "5",
        "type": "t_uint256"
      },
      {
        "astId": 1202,
        "contract": "contracts/WaveData.sol:WaveData",
        "label": "_CompletedSurveyIds",
        "offset": 0,
        "slot": "6",
        "type": "t_uint256"
      },
      {
        "astId": 1208,
        "contract": "contracts/WaveData.sol:WaveData",
        "label": "_userMap",
        "offset": 0,
        "slot": "7",
        "type": "t_mapping(t_uint256,t_struct(user_struct)1061_storage)"
      },
      {
        "astId": 1214,
        "contract": "contracts/WaveData.sol:WaveData",
        "label": "_trialMap",
        "offset": 0,
        "slot": "8",
        "type": "t_mapping(t_uint256,t_struct(trial_struct)1096_storage)"
      },
      {
        "astId": 1220,
        "contract": "contracts/WaveData.sol:WaveData",
        "label": "_trialRewardMap",
        "offset": 0,
        "slot": "9",
        "type": "t_mapping(t_uint256,t_struct(reward_struct)1112_storage)"
      },
      {
        "astId": 1225,
        "contract": "contracts/WaveData.sol:WaveData",
        "label": "_trialAudienceMap",
        "offset": 0,
        "slot": "10",
        "type": "t_mapping(t_uint256,t_string_storage)"
      },
      {
        "astId": 1231,
        "contract": "contracts/WaveData.sol:WaveData",
        "label": "_surveyMap",
        "offset": 0,
        "slot": "11",
        "type": "t_mapping(t_uint256,t_struct(survey_struct)1140_storage)"
      },
      {
        "astId": 1237,
        "contract": "contracts/WaveData.sol:WaveData",
        "label": "_categoryMap",
        "offset": 0,
        "slot": "12",
        "type": "t_mapping(t_uint256,t_struct(survey_category_struct)1068_storage)"
      },
      {
        "astId": 1242,
        "contract": "contracts/WaveData.sol:WaveData",
        "label": "_sectionsMap",
        "offset": 0,
        "slot": "13",
        "type": "t_mapping(t_uint256,t_string_storage)"
      },
      {
        "astId": 1248,
        "contract": "contracts/WaveData.sol:WaveData",
        "label": "_fhirMap",
        "offset": 0,
        "slot": "14",
        "type": "t_mapping(t_uint256,t_struct(fhir_struct)1153_storage)"
      },
      {
        "astId": 1254,
        "contract": "contracts/WaveData.sol:WaveData",
        "label": "_ongoingMap",
        "offset": 0,
        "slot": "15",
        "type": "t_mapping(t_uint256,t_struct(ongoing_struct)1162_storage)"
      },
      {
        "astId": 1260,
        "contract": "contracts/WaveData.sol:WaveData",
        "label": "_questionanswerdMap",
        "offset": 0,
        "slot": "16",
        "type": "t_mapping(t_uint256,t_struct(survey_question_answer_struct)1177_storage)"
      },
      {
        "astId": 1266,
        "contract": "contracts/WaveData.sol:WaveData",
        "label": "_completedsurveyMap",
        "offset": 0,
        "slot": "17",
        "type": "t_mapping(t_uint256,t_struct(completed_survey_struct)1188_storage)"
      },
      {
        "astId": 1268,
        "contract": "contracts/WaveData.sol:WaveData",
        "label": "owner",
        "offset": 0,
        "slot": "18",
        "type": "t_address"
      }
    ],
    "types": {
      "t_address": {
        "encoding": "inplace",
        "label": "address",
        "numberOfBytes": "20"
      },
      "t_mapping(t_uint256,t_string_storage)": {
        "encoding": "mapping",
        "key": "t_uint256",
        "label": "mapping(uint256 => string)",
        "numberOfBytes": "32",
        "value": "t_string_storage"
      },
      "t_mapping(t_uint256,t_struct(completed_survey_struct)1188_storage)": {
        "encoding": "mapping",
        "key": "t_uint256",
        "label": "mapping(uint256 => struct WaveData.completed_survey_struct)",
        "numberOfBytes": "32",
        "value": "t_struct(completed_survey_struct)1188_storage"
      },
      "t_mapping(t_uint256,t_struct(fhir_struct)1153_storage)": {
        "encoding": "mapping",
        "key": "t_uint256",
        "label": "mapping(uint256 => struct WaveData.fhir_struct)",
        "numberOfBytes": "32",
        "value": "t_struct(fhir_struct)1153_storage"
      },
      "t_mapping(t_uint256,t_struct(ongoing_struct)1162_storage)": {
        "encoding": "mapping",
        "key": "t_uint256",
        "label": "mapping(uint256 => struct WaveData.ongoing_struct)",
        "numberOfBytes": "32",
        "value": "t_struct(ongoing_struct)1162_storage"
      },
      "t_mapping(t_uint256,t_struct(reward_struct)1112_storage)": {
        "encoding": "mapping",
        "key": "t_uint256",
        "label": "mapping(uint256 => struct WaveData.reward_struct)",
        "numberOfBytes": "32",
        "value": "t_struct(reward_struct)1112_storage"
      },
      "t_mapping(t_uint256,t_struct(survey_category_struct)1068_storage)": {
        "encoding": "mapping",
        "key": "t_uint256",
        "label": "mapping(uint256 => struct WaveData.survey_category_struct)",
        "numberOfBytes": "32",
        "value": "t_struct(survey_category_struct)1068_storage"
      },
      "t_mapping(t_uint256,t_struct(survey_question_answer_struct)1177_storage)": {
        "encoding": "mapping",
        "key": "t_uint256",
        "label": "mapping(uint256 => struct WaveData.survey_question_answer_struct)",
        "numberOfBytes": "32",
        "value": "t_struct(survey_question_answer_struct)1177_storage"
      },
      "t_mapping(t_uint256,t_struct(survey_struct)1140_storage)": {
        "encoding": "mapping",
        "key": "t_uint256",
        "label": "mapping(uint256 => struct WaveData.survey_struct)",
        "numberOfBytes": "32",
        "value": "t_struct(survey_struct)1140_storage"
      },
      "t_mapping(t_uint256,t_struct(trial_struct)1096_storage)": {
        "encoding": "mapping",
        "key": "t_uint256",
        "label": "mapping(uint256 => struct WaveData.trial_struct)",
        "numberOfBytes": "32",
        "value": "t_struct(trial_struct)1096_storage"
      },
      "t_mapping(t_uint256,t_struct(user_struct)1061_storage)": {
        "encoding": "mapping",
        "key": "t_uint256",
        "label": "mapping(uint256 => struct WaveData.user_struct)",
        "numberOfBytes": "32",
        "value": "t_struct(user_struct)1061_storage"
      },
      "t_string_storage": {
        "encoding": "bytes",
        "label": "string",
        "numberOfBytes": "32"
      },
      "t_struct(completed_survey_struct)1188_storage": {
        "encoding": "inplace",
        "label": "struct WaveData.completed_survey_struct",
        "members": [
          {
            "astId": 1179,
            "contract": "contracts/WaveData.sol:WaveData",
            "label": "completed_survey_id",
            "offset": 0,
            "slot": "0",
            "type": "t_uint256"
          },
          {
            "astId": 1181,
            "contract": "contracts/WaveData.sol:WaveData",
            "label": "trial_id",
            "offset": 0,
            "slot": "1",
            "type": "t_uint256"
          },
          {
            "astId": 1183,
            "contract": "contracts/WaveData.sol:WaveData",
            "label": "user_id",
            "offset": 0,
            "slot": "2",
            "type": "t_uint256"
          },
          {
            "astId": 1185,
            "contract": "contracts/WaveData.sol:WaveData",
            "label": "survey_id",
            "offset": 0,
            "slot": "3",
            "type": "t_uint256"
          },
          {
            "astId": 1187,
            "contract": "contracts/WaveData.sol:WaveData",
            "label": "date",
            "offset": 0,
            "slot": "4",
            "type": "t_string_storage"
          }
        ],
        "numberOfBytes": "160"
      },
      "t_struct(fhir_struct)1153_storage": {
        "encoding": "inplace",
        "label": "struct WaveData.fhir_struct",
        "members": [
          {
            "astId": 1143,
            "contract": "contracts/WaveData.sol:WaveData",
            "label": "user_id",
            "offset": 0,
            "slot": "0",
            "type": "t_uint256"
          },
          {
            "astId": 1146,
            "contract": "contracts/WaveData.sol:WaveData",
            "label": "given_name",
            "offset": 0,
            "slot": "1",
            "type": "t_string_storage"
          },
          {
            "astId": 1149,
            "contract": "contracts/WaveData.sol:WaveData",
            "label": "identifier",
            "offset": 0,
            "slot": "2",
            "type": "t_string_storage"
          },
          {
            "astId": 1152,
            "contract": "contracts/WaveData.sol:WaveData",
            "label": "patient_id",
            "offset": 0,
            "slot": "3",
            "type": "t_string_storage"
          }
        ],
        "numberOfBytes": "128"
      },
      "t_struct(ongoing_struct)1162_storage": {
        "encoding": "inplace",
        "label": "struct WaveData.ongoing_struct",
        "members": [
          {
            "astId": 1155,
            "contract": "contracts/WaveData.sol:WaveData",
            "label": "ongoing_id",
            "offset": 0,
            "slot": "0",
            "type": "t_uint256"
          },
          {
            "astId": 1157,
            "contract": "contracts/WaveData.sol:WaveData",
            "label": "trial_id",
            "offset": 0,
            "slot": "1",
            "type": "t_uint256"
          },
          {
            "astId": 1159,
            "contract": "contracts/WaveData.sol:WaveData",
            "label": "user_id",
            "offset": 0,
            "slot": "2",
            "type": "t_uint256"
          },
          {
            "astId": 1161,
            "contract": "contracts/WaveData.sol:WaveData",
            "label": "date",
            "offset": 0,
            "slot": "3",
            "type": "t_string_storage"
          }
        ],
        "numberOfBytes": "128"
      },
      "t_struct(reward_struct)1112_storage": {
        "encoding": "inplace",
        "label": "struct WaveData.reward_struct",
        "members": [
          {
            "astId": 1099,
            "contract": "contracts/WaveData.sol:WaveData",
            "label": "trial_id",
            "offset": 0,
            "slot": "0",
            "type": "t_uint256"
          },
          {
            "astId": 1102,
            "contract": "contracts/WaveData.sol:WaveData",
            "label": "user_id",
            "offset": 0,
            "slot": "1",
            "type": "t_uint256"
          },
          {
            "astId": 1105,
            "contract": "contracts/WaveData.sol:WaveData",
            "label": "reward_type",
            "offset": 0,
            "slot": "2",
            "type": "t_string_storage"
          },
          {
            "astId": 1108,
            "contract": "contracts/WaveData.sol:WaveData",
            "label": "reward_price",
            "offset": 0,
            "slot": "3",
            "type": "t_uint256"
          },
          {
            "astId": 1111,
            "contract": "contracts/WaveData.sol:WaveData",
            "label": "total_spending_limit",
            "offset": 0,
            "slot": "4",
            "type": "t_uint256"
          }
        ],
        "numberOfBytes": "160"
      },
      "t_struct(survey_category_struct)1068_storage": {
        "encoding": "inplace",
        "label": "struct WaveData.survey_category_struct",
        "members": [
          {
            "astId": 1064,
            "contract": "contracts/WaveData.sol:WaveData",
            "label": "name",
            "offset": 0,
            "slot": "0",
            "type": "t_string_storage"
          },
          {
            "astId": 1067,
            "contract": "contracts/WaveData.sol:WaveData",
            "label": "image",
            "offset": 0,
            "slot": "1",
            "type": "t_string_storage"
          }
        ],
        "numberOfBytes": "64"
      },
      "t_struct(survey_question_answer_struct)1177_storage": {
        "encoding": "inplace",
        "label": "struct WaveData.survey_question_answer_struct",
        "members": [
          {
            "astId": 1164,
            "contract": "contracts/WaveData.sol:WaveData",
            "label": "answer_id",
            "offset": 0,
            "slot": "0",
            "type": "t_uint256"
          },
          {
            "astId": 1166,
            "contract": "contracts/WaveData.sol:WaveData",
            "label": "trial_id",
            "offset": 0,
            "slot": "1",
            "type": "t_uint256"
          },
          {
            "astId": 1168,
            "contract": "contracts/WaveData.sol:WaveData",
            "label": "user_id",
            "offset": 0,
            "slot": "2",
            "type": "t_uint256"
          },
          {
            "astId": 1170,
            "contract": "contracts/WaveData.sol:WaveData",
            "label": "survey_id",
            "offset": 0,
            "slot": "3",
            "type": "t_uint256"
          },
          {
            "astId": 1172,
            "contract": "contracts/WaveData.sol:WaveData",
            "label": "section_id",
            "offset": 0,
            "slot": "4",
            "type": "t_uint256"
          },
          {
            "astId": 1174,
            "contract": "contracts/WaveData.sol:WaveData",
            "label": "question_id",
            "offset": 0,
            "slot": "5",
            "type": "t_uint256"
          },
          {
            "astId": 1176,
            "contract": "contracts/WaveData.sol:WaveData",
            "label": "answer",
            "offset": 0,
            "slot": "6",
            "type": "t_string_storage"
          }
        ],
        "numberOfBytes": "224"
      },
      "t_struct(survey_struct)1140_storage": {
        "encoding": "inplace",
        "label": "struct WaveData.survey_struct",
        "members": [
          {
            "astId": 1115,
            "contract": "contracts/WaveData.sol:WaveData",
            "label": "survey_id",
            "offset": 0,
            "slot": "0",
            "type": "t_uint256"
          },
          {
            "astId": 1118,
            "contract": "contracts/WaveData.sol:WaveData",
            "label": "trial_id",
            "offset": 0,
            "slot": "1",
            "type": "t_uint256"
          },
          {
            "astId": 1121,
            "contract": "contracts/WaveData.sol:WaveData",
            "label": "user_id",
            "offset": 0,
            "slot": "2",
            "type": "t_uint256"
          },
          {
            "astId": 1124,
            "contract": "contracts/WaveData.sol:WaveData",
            "label": "name",
            "offset": 0,
            "slot": "3",
            "type": "t_string_storage"
          },
          {
            "astId": 1127,
            "contract": "contracts/WaveData.sol:WaveData",
            "label": "description",
            "offset": 0,
            "slot": "4",
            "type": "t_string_storage"
          },
          {
            "astId": 1130,
            "contract": "contracts/WaveData.sol:WaveData",
            "label": "date",
            "offset": 0,
            "slot": "5",
            "type": "t_string_storage"
          },
          {
            "astId": 1133,
            "contract": "contracts/WaveData.sol:WaveData",
            "label": "image",
            "offset": 0,
            "slot": "6",
            "type": "t_string_storage"
          },
          {
            "astId": 1136,
            "contract": "contracts/WaveData.sol:WaveData",
            "label": "reward",
            "offset": 0,
            "slot": "7",
            "type": "t_uint256"
          },
          {
            "astId": 1139,
            "contract": "contracts/WaveData.sol:WaveData",
            "label": "submission",
            "offset": 0,
            "slot": "8",
            "type": "t_uint256"
          }
        ],
        "numberOfBytes": "288"
      },
      "t_struct(trial_struct)1096_storage": {
        "encoding": "inplace",
        "label": "struct WaveData.trial_struct",
        "members": [
          {
            "astId": 1071,
            "contract": "contracts/WaveData.sol:WaveData",
            "label": "trial_id",
            "offset": 0,
            "slot": "0",
            "type": "t_uint256"
          },
          {
            "astId": 1074,
            "contract": "contracts/WaveData.sol:WaveData",
            "label": "user_id",
            "offset": 0,
            "slot": "1",
            "type": "t_uint256"
          },
          {
            "astId": 1077,
            "contract": "contracts/WaveData.sol:WaveData",
            "label": "image",
            "offset": 0,
            "slot": "2",
            "type": "t_string_storage"
          },
          {
            "astId": 1080,
            "contract": "contracts/WaveData.sol:WaveData",
            "label": "title",
            "offset": 0,
            "slot": "3",
            "type": "t_string_storage"
          },
          {
            "astId": 1083,
            "contract": "contracts/WaveData.sol:WaveData",
            "label": "description",
            "offset": 0,
            "slot": "4",
            "type": "t_string_storage"
          },
          {
            "astId": 1086,
            "contract": "contracts/WaveData.sol:WaveData",
            "label": "contributors",
            "offset": 0,
            "slot": "5",
            "type": "t_uint256"
          },
          {
            "astId": 1089,
            "contract": "contracts/WaveData.sol:WaveData",
            "label": "audience",
            "offset": 0,
            "slot": "6",
            "type": "t_uint256"
          },
          {
            "astId": 1092,
            "contract": "contracts/WaveData.sol:WaveData",
            "label": "budget",
            "offset": 0,
            "slot": "7",
            "type": "t_uint256"
          },
          {
            "astId": 1095,
            "contract": "contracts/WaveData.sol:WaveData",
            "label": "date",
            "offset": 0,
            "slot": "8",
            "type": "t_string_storage"
          }
        ],
        "numberOfBytes": "288"
      },
      "t_struct(user_struct)1061_storage": {
        "encoding": "inplace",
        "label": "struct WaveData.user_struct",
        "members": [
          {
            "astId": 1045,
            "contract": "contracts/WaveData.sol:WaveData",
            "label": "user_id",
            "offset": 0,
            "slot": "0",
            "type": "t_uint256"
          },
          {
            "astId": 1048,
            "contract": "contracts/WaveData.sol:WaveData",
            "label": "name",
            "offset": 0,
            "slot": "1",
            "type": "t_string_storage"
          },
          {
            "astId": 1051,
            "contract": "contracts/WaveData.sol:WaveData",
            "label": "email",
            "offset": 0,
            "slot": "2",
            "type": "t_string_storage"
          },
          {
            "astId": 1054,
            "contract": "contracts/WaveData.sol:WaveData",
            "label": "password",
            "offset": 0,
            "slot": "3",
            "type": "t_string_storage"
          },
          {
            "astId": 1057,
            "contract": "contracts/WaveData.sol:WaveData",
            "label": "image",
            "offset": 0,
            "slot": "4",
            "type": "t_string_storage"
          },
          {
            "astId": 1060,
            "contract": "contracts/WaveData.sol:WaveData",
            "label": "credits",
            "offset": 0,
            "slot": "5",
            "type": "t_uint256"
          }
        ],
        "numberOfBytes": "192"
      },
      "t_uint256": {
        "encoding": "inplace",
        "label": "uint256",
        "numberOfBytes": "32"
      }
    }
  }
}