{"contracts/WaveData.sol":{"WaveData":{"abi":[{"inputs":[{"internalType":"string","name":"email","type":"string"}],"name":"CheckEmail","outputs":[{"internalType":"string","name":"","type":"string"}],"stateMutability":"view","type":"function"},{"inputs":[{"internalType":"string","name":"full_name","type":"string"},{"internalType":"string","name":"email","type":"string"},{"internalType":"string","name":"password","type":"string"}],"name":"CreateAccount","outputs":[],"stateMutability":"nonpayable","type":"function"},{"inputs":[{"internalType":"uint256","name":"survey_id","type":"uint256"},{"internalType":"uint256","name":"user_id","type":"uint256"},{"internalType":"string","name":"date","type":"string"},{"internalType":"uint256","name":"trial_id","type":"uint256"}],"name":"CreateCompletedSurveys","outputs":[],"stateMutability":"nonpayable","type":"function"},{"inputs":[{"internalType":"uint256","name":"trial_id","type":"uint256"},{"internalType":"uint256","name":"user_id","type":"uint256"},{"internalType":"string","name":"date","type":"string"}],"name":"CreateOngoingTrail","outputs":[],"stateMutability":"nonpayable","type":"function"},{"inputs":[{"internalType":"uint256","name":"survey_id","type":"uint256"},{"internalType":"string","name":"metadata","type":"string"}],"name":"CreateOrSaveSections","outputs":[],"stateMutability":"nonpayable","type":"function"},{"inputs":[{"internalType":"uint256","name":"trial_id","type":"uint256"},{"internalType":"uint256","name":"user_id","type":"uint256"},{"internalType":"uint256","name":"survey_id","type":"uint256"},{"internalType":"uint256","name":"section_id","type":"uint256"},{"internalType":"uint256","name":"question_id","type":"uint256"},{"internalType":"string","name":"answer","type":"string"}],"name":"CreateQuestionAnswer","outputs":[],"stateMutability":"nonpayable","type":"function"},{"inputs":[{"internalType":"uint256","name":"trial_id","type":"uint256"},{"internalType":"uint256","name":"user_id","type":"uint256"},{"internalType":"string","name":"name","type":"string"},{"internalType":"string","name":"description","type":"string"},{"internalType":"string","name":"date","type":"string"},{"internalType":"string","name":"image","type":"string"},{"internalType":"uint256","name":"reward","type":"uint256"}],"name":"CreateSurvey","outputs":[],"stateMutability":"nonpayable","type":"function"},{"inputs":[{"internalType":"string","name":"name","type":"string"},{"internalType":"string","name":"image","type":"string"}],"name":"CreateSurveyCategory","outputs":[],"stateMutability":"nonpayable","type":"function"},{"inputs":[{"internalType":"uint256","name":"user_id","type":"uint256"},{"internalType":"string","name":"image","type":"string"},{"internalType":"string","name":"title","type":"string"},{"internalType":"string","name":"description","type":"string"},{"internalType":"uint256","name":"contributors","type":"uint256"},{"internalType":"uint256","name":"audience","type":"uint256"},{"internalType":"uint256","name":"budget","type":"uint256"},{"internalType":"string","name":"date","type":"string"}],"name":"CreateTrial","outputs":[],"stateMutability":"nonpayable","type":"function"},{"inputs":[{"internalType":"uint256","name":"user_id","type":"uint256"}],"name":"GetOngoingTrial","outputs":[{"internalType":"string","name":"","type":"string"}],"stateMutability":"view","type":"function"},{"inputs":[{"internalType":"string","name":"email","type":"string"},{"internalType":"string","name":"password","type":"string"}],"name":"Login","outputs":[{"internalType":"string","name":"","type":"string"}],"stateMutability":"view","type":"function"},{"inputs":[{"internalType":"uint256","name":"trial_id","type":"uint256"},{"internalType":"string","name":"audience_info","type":"string"}],"name":"UpdateAudience","outputs":[],"stateMutability":"nonpayable","type":"function"},{"inputs":[{"internalType":"uint256","name":"user_id","type":"uint256"},{"internalType":"string","name":"given_name","type":"string"},{"internalType":"string","name":"identifier","type":"string"},{"internalType":"string","name":"patient_id","type":"string"}],"name":"UpdateFhir","outputs":[],"stateMutability":"nonpayable","type":"function"},{"inputs":[{"internalType":"uint256","name":"trial_id","type":"uint256"},{"internalType":"string","name":"reward_type","type":"string"},{"internalType":"uint256","name":"reward_price","type":"uint256"},{"internalType":"uint256","name":"total_spending_limit","type":"uint256"}],"name":"UpdateReward","outputs":[],"stateMutability":"nonpayable","type":"function"},{"inputs":[{"internalType":"uint256","name":"survey_id","type":"uint256"},{"internalType":"string","name":"name","type":"string"},{"internalType":"string","name":"description","type":"string"},{"internalType":"string","name":"image","type":"string"},{"internalType":"uint256","name":"reward","type":"uint256"}],"name":"UpdateSurvey","outputs":[],"stateMutability":"nonpayable","type":"function"},{"inputs":[{"internalType":"uint256","name":"trial_id","type":"uint256"},{"internalType":"string","name":"image","type":"string"},{"internalType":"string","name":"title","type":"string"},{"internalType":"string","name":"description","type":"string"},{"internalType":"uint256","name":"budget","type":"uint256"}],"name":"UpdateTrial","outputs":[],"stateMutability":"nonpayable","type":"function"},{"inputs":[{"internalType":"uint256","name":"user_id","type":"uint256"},{"internalType":"string","name":"image","type":"string"},{"internalType":"uint256","name":"credits","type":"uint256"}],"name":"UpdateUser","outputs":[],"stateMutability":"nonpayable","type":"function"},{"inputs":[],"name":"_AnsweredIds","outputs":[{"internalType":"uint256","name":"","type":"uint256"}],"stateMutability":"view","type":"function"},{"inputs":[],"name":"_CompletedSurveyIds","outputs":[{"internalType":"uint256","name":"","type":"uint256"}],"stateMutability":"view","type":"function"},{"inputs":[],"name":"_OngoingIds","outputs":[{"internalType":"uint256","name":"","type":"uint256"}],"stateMutability":"view","type":"function"},{"inputs":[],"name":"_SurveyCategoryIds","outputs":[{"internalType":"uint256","name":"","type":"uint256"}],"stateMutability":"view","type":"function"},{"inputs":[],"name":"_SurveyIds","outputs":[{"internalType":"uint256","name":"","type":"uint256"}],"stateMutability":"view","type":"function"},{"inputs":[],"name":"_TrialIds","outputs":[{"internalType":"uint256","name":"","type":"uint256"}],"stateMutability":"view","type":"function"},{"inputs":[],"name":"_UserIds","outputs":[{"internalType":"uint256","name":"","type":"uint256"}],"stateMutability":"view","type":"function"},{"inputs":[{"internalType":"uint256","name":"","type":"uint256"}],"name":"_categoryMap","outputs":[{"internalType":"string","name":"name","type":"string"},{"internalType":"string","name":"image","type":"string"}],"stateMutability":"view","type":"function"},{"inputs":[{"internalType":"uint256","name":"","type":"uint256"}],"name":"_completedsurveyMap","outputs":[{"internalType":"uint256","name":"completed_survey_id","type":"uint256"},{"internalType":"uint256","name":"trial_id","type":"uint256"},{"internalType":"uint256","name":"user_id","type":"uint256"},{"internalType":"uint256","name":"survey_id","type":"uint256"},{"internalType":"string","name":"date","type":"string"}],"stateMutability":"view","type":"function"},{"inputs":[{"internalType":"uint256","name":"","type":"uint256"}],"name":"_fhirMap","outputs":[{"internalType":"uint256","name":"user_id","type":"uint256"},{"internalType":"string","name":"given_name","type":"string"},{"internalType":"string","name":"identifier","type":"string"},{"internalType":"string","name":"patient_id","type":"string"}],"stateMutability":"view","type":"function"},{"inputs":[{"internalType":"uint256","name":"","type":"uint256"}],"name":"_ongoingMap","outputs":[{"internalType":"uint256","name":"ongoing_id","type":"uint256"},{"internalType":"uint256","name":"trial_id","type":"uint256"},{"internalType":"uint256","name":"user_id","type":"uint256"},{"internalType":"string","name":"date","type":"string"}],"stateMutability":"view","type":"function"},{"inputs":[{"internalType":"uint256","name":"","type":"uint256"}],"name":"_questionanswerdMap","outputs":[{"internalType":"uint256","name":"answer_id","type":"uint256"},{"internalType":"uint256","name":"trial_id","type":"uint256"},{"internalType":"uint256","name":"user_id","type":"uint256"},{"internalType":"uint256","name":"survey_id","type":"uint256"},{"internalType":"uint256","name":"section_id","type":"uint256"},{"internalType":"uint256","name":"question_id","type":"uint256"},{"internalType":"string","name":"answer","type":"string"}],"stateMutability":"view","type":"function"},{"inputs":[{"internalType":"uint256","name":"","type":"uint256"}],"name":"_sectionsMap","outputs":[{"internalType":"string","name":"","type":"string"}],"stateMutability":"view","type":"function"},{"inputs":[{"internalType":"uint256","name":"","type":"uint256"}],"name":"_surveyMap","outputs":[{"internalType":"uint256","name":"survey_id","type":"uint256"},{"internalType":"uint256","name":"trial_id","type":"uint256"},{"internalType":"uint256","name":"user_id","type":"uint256"},{"internalType":"string","name":"name","type":"string"},{"internalType":"string","name":"description","type":"string"},{"internalType":"string","name":"date","type":"string"},{"internalType":"string","name":"image","type":"string"},{"internalType":"uint256","name":"reward","type":"uint256"},{"internalType":"uint256","name":"submission","type":"uint256"}],"stateMutability":"view","type":"function"},{"inputs":[{"internalType":"uint256","name":"","type":"uint256"}],"name":"_trialAudienceMap","outputs":[{"internalType":"string","name":"","type":"string"}],"stateMutability":"view","type":"function"},{"inputs":[{"internalType":"uint256","name":"","type":"uint256"}],"name":"_trialMap","outputs":[{"internalType":"uint256","name":"trial_id","type":"uint256"},{"internalType":"uint256","name":"user_id","type":"uint256"},{"internalType":"string","name":"image","type":"string"},{"internalType":"string","name":"title","type":"string"},{"internalType":"string","name":"description","type":"string"},{"internalType":"uint256","name":"contributors","type":"uint256"},{"internalType":"uint256","name":"audience","type":"uint256"},{"internalType":"uint256","name":"budget","type":"uint256"},{"internalType":"string","name":"date","type":"string"}],"stateMutability":"view","type":"function"},{"inputs":[{"internalType":"uint256","name":"","type":"uint256"}],"name":"_trialRewardMap","outputs":[{"internalType":"uint256","name":"trial_id","type":"uint256"},{"internalType":"uint256","name":"user_id","type":"uint256"},{"internalType":"string","name":"reward_type","type":"string"},{"internalType":"uint256","name":"reward_price","type":"uint256"},{"internalType":"uint256","name":"total_spending_limit","type":"uint256"}],"stateMutability":"view","type":"function"},{"inputs":[{"internalType":"uint256","name":"user_id","type":"uint256"}],"name":"getAllCompletedSurveysIDByUser","outputs":[{"internalType":"uint256[]","name":"","type":"uint256[]"}],"stateMutability":"view","type":"function"},{"inputs":[{"internalType":"uint256","name":"trial_id","type":"uint256"}],"name":"getAllSurveysIDByTrial","outputs":[{"internalType":"uint256[]","name":"","type":"uint256[]"}],"stateMutability":"view","type":"function"},{"inputs":[{"internalType":"uint256","name":"user_id","type":"uint256"}],"name":"getUserDetails","outputs":[{"internalType":"string","name":"","type":"string"},{"internalType":"uint256","name":"","type":"uint256"},{"internalType":"string","name":"","type":"string"},{"internalType":"string","name":"","type":"string"}],"stateMutability":"view","type":"function"},{"inputs":[],"name":"owner","outputs":[{"internalType":"address","name":"","type":"address"}],"stateMutability":"view","type":"function"},{"inputs":[],"name":"reset_all","outputs":[],"stateMutability":"nonpayable","type":"function"}],"devdoc":{"kind":"dev","methods":{},"version":1},"evm":{"bytecode":{"linkReferences":{},"object":"608060405234801561001057600080fd5b50613ed0806100206000396000f3fe608060405234801561001057600080fd5b506004361061023d5760003560e01c806390d6cf051161013b578063ce08988c116100b8578063eb6b28701161007c578063eb6b287014610707578063ebe197ca14610725578063f0d8e87314610758578063f6aaa80414610789578063f8b7800f146107bc5761023d565b8063ce08988c14610631578063da01f01e1461064f578063de7acfd714610683578063e57f973f146106bb578063ea7efaa6146106d75761023d565b8063b16060a6116100ff578063b16060a61461056b578063b6e604bd14610575578063bed208fe14610593578063c13b2836146105cb578063ccef4218146106015761023d565b806390d6cf05146104c5578063a5f3fc7d146104f9578063a92e1c4c14610515578063ac7aef0e14610531578063ad23f8f91461054f5761023d565b806345948fde116101c957806366cad7341161018d57806366cad7341461040f578063682d562b1461042b5780637d423e101461045b5780638da5cb5b14610477578063902841d4146104955761023d565b806345948fde1461036f57806349b9b07b1461038b5780634f8b36eb146103bb57806355391705146103d75780635f27aea1146103f35761023d565b80632a8caf4a116102105780632a8caf4a146102cf5780632c02dd60146102ff5780632ffb08f71461031b5780633896f130146103375780633eebd0d0146103535761023d565b806301c66109146102425780631429f775146102605780631c1a9f7b1461027e57806329b36423146102b1575b600080fd5b61024a6107ec565b60405161025791906137c3565b60405180910390f35b6102686107f2565b60405161027591906137c3565b60405180910390f35b61029860048036038101906102939190612e89565b6107f8565b6040516102a89493929190613769565b60405180910390f35b6102b9610a0b565b6040516102c691906137c3565b60405180910390f35b6102e960048036038101906102e49190612e89565b610a11565b6040516102f69190613710565b60405180910390f35b6103196004803603810190610314919061309c565b610ab1565b005b610335600480360381019061033091906134b8565b610c6a565b005b610351600480360381019061034c9190613323565b610d30565b005b61036d60048036038101906103689190613231565b610e53565b005b61038960048036038101906103849190612de2565b610eba565b005b6103a560048036038101906103a09190612e89565b610fbd565b6040516103b291906136ee565b60405180910390f35b6103d560048036038101906103d09190612d6a565b6110d5565b005b6103f160048036038101906103ec9190612fcd565b611158565b005b61040d60048036038101906104089190612fcd565b6111fb565b005b61042960048036038101906104249190612eb6565b61129e565b005b61044560048036038101906104409190612e89565b6112ca565b60405161045291906136ee565b60405180910390f35b61047560048036038101906104709190613435565b6113e2565b005b61047f6114df565b60405161048c91906136d3565b60405180910390f35b6104af60048036038101906104aa9190612e89565b611505565b6040516104bc9190613710565b60405180910390f35b6104df60048036038101906104da9190612e89565b6115ab565b6040516104f0959493929190613a30565b60405180910390f35b610513600480360381019061050e91906132b4565b611669565b005b61052f600480360381019061052a9190612f12565b61172a565b005b6105396117cc565b60405161054691906137c3565b60405180910390f35b61056960048036038101906105649190612eb6565b6117d2565b005b6105736117fe565b005b61057d611ce6565b60405161058a91906137c3565b60405180910390f35b6105ad60048036038101906105a89190612e89565b611cec565b6040516105c299989796959493929190613838565b60405180910390f35b6105e560048036038101906105e09190612e89565b611f5a565b6040516105f89796959493929190613a8a565b60405180910390f35b61061b60048036038101906106169190612d6a565b612024565b6040516106289190613710565b60405180910390f35b61063961210c565b60405161064691906137c3565b60405180910390f35b61066960048036038101906106649190612e89565b612112565b60405161067a9594939291906138e1565b60405180910390f35b61069d60048036038101906106989190612e89565b6121d0565b6040516106b299989796959493929190613987565b60405180910390f35b6106d560048036038101906106d091906131c2565b61243e565b005b6106f160048036038101906106ec9190612e89565b612489565b6040516106fe9190613710565b60405180910390f35b61070f612529565b60405161071c91906137c3565b60405180910390f35b61073f600480360381019061073a9190612e89565b61252f565b60405161074f94939291906137de565b60405180910390f35b610772600480360381019061076d9190612e89565b6126f7565b604051610780929190613732565b60405180910390f35b6107a3600480360381019061079e9190612e89565b61282b565b6040516107b3949392919061393b565b60405180910390f35b6107d660048036038101906107d19190612d21565b6128e3565b6040516107e39190613710565b60405180910390f35b60055481565b60025481565b60606000606080600760008681526020019081526020016000206004016007600087815260200190815260200160002060050154600760008881526020019081526020016000206001016007600089815260200190815260200160002060020183805461086490613c9f565b80601f016020809104026020016040519081016040528092919081815260200182805461089090613c9f565b80156108dd5780601f106108b2576101008083540402835291602001916108dd565b820191906000526020600020905b8154815290600101906020018083116108c057829003601f168201915b505050505093508180546108f090613c9f565b80601f016020809104026020016040519081016040528092919081815260200182805461091c90613c9f565b80156109695780601f1061093e57610100808354040283529160200191610969565b820191906000526020600020905b81548152906001019060200180831161094c57829003601f168201915b5050505050915080805461097c90613c9f565b80601f01602080910402602001604051908101604052809291908181526020018280546109a890613c9f565b80156109f55780601f106109ca576101008083540402835291602001916109f5565b820191906000526020600020905b8154815290600101906020018083116109d857829003601f168201915b5050505050905093509350935093509193509193565b60035481565b600a6020528060005260406000206000915090508054610a3090613c9f565b80601f0160208091040260200160405190810160405280929190818152602001828054610a5c90613c9f565b8015610aa95780601f10610a7e57610100808354040283529160200191610aa9565b820191906000526020600020905b815481529060010190602001808311610a8c57829003601f168201915b505050505081565b60405180610120016040528060015481526020018981526020018881526020018781526020018681526020018581526020018481526020018381526020018281525060086000600154815260200190815260200160002060008201518160000155602082015181600101556040820151816002019080519060200190610b38929190612bb9565b506060820151816003019080519060200190610b55929190612bb9565b506080820151816004019080519060200190610b72929190612bb9565b5060a0820151816005015560c0820151816006015560e08201518160070155610100820151816008019080519060200190610bae929190612bb9565b509050506040518060a001604052806001548152602001898152602001604051806020016040528060008152508152602001600081526020018381525060096000600154815260200190815260200160002060008201518160000155602082015181600101556040820151816002019080519060200190610c30929190612bb9565b50606082015181600301556080820151816004015590505060016000815480929190610c5b90613d02565b91905055505050505050505050565b6040518060e00160405280600554815260200187815260200186815260200185815260200184815260200183815260200182815250601060006005548152602001908152602001600020600082015181600001556020820151816001015560408201518160020155606082015181600301556080820151816004015560a0820151816005015560c0820151816006019080519060200190610d0c929190612bb9565b5090505060056000815480929190610d2390613d02565b9190505550505050505050565b60405180610120016040528060025481526020018881526020018781526020018681526020018581526020018481526020018381526020018281526020016000815250600b600060025481526020019081526020016000206000820151816000015560208201518160010155604082015181600201556060820151816003019080519060200190610dc2929190612bb9565b506080820151816004019080519060200190610ddf929190612bb9565b5060a0820151816005019080519060200190610dfc929190612bb9565b5060c0820151816006019080519060200190610e19929190612bb9565b5060e08201518160070155610100820151816008015590505060026000815480929190610e4590613d02565b919050555050505050505050565b82600960008681526020019081526020016000206002019080519060200190610e7d929190612bb9565b5081600960008681526020019081526020016000206003018190555080600960008681526020019081526020016000206004018190555050505050565b6040518060c001604052806000548152602001848152602001838152602001828152602001604051806060016040528060288152602001613e7360289139815260200160008152506007600080548152602001908152602001600020600082015181600001556020820151816001019080519060200190610f3c929190612bb9565b506040820151816002019080519060200190610f59929190612bb9565b506060820151816003019080519060200190610f76929190612bb9565b506080820151816004019080519060200190610f93929190612bb9565b5060a08201518160050155905050600080815480929190610fb390613d02565b9190505550505050565b60606000805b60065481101561100d578360116000838152602001908152602001600020600201541415610ffa578180610ff690613d02565b9250505b808061100590613d02565b915050610fc3565b5060008167ffffffffffffffff81111561102a57611029613e07565b5b6040519080825280602002602001820160405280156110585781602001602082028036833780820191505090505b5090506000805b6006548110156110c95785601160008381526020019081526020016000206002015414156110b6578083838151811061109b5761109a613dd8565b5b60200260200101818152505081806110b290613d02565b9250505b80806110c190613d02565b91505061105f565b50819350505050919050565b604051806040016040528083815260200182815250600c60006003548152602001908152602001600020600082015181600001908051906020019061111b929190612bb9565b506020820151816001019080519060200190611138929190612bb9565b509050506003600081548092919061114f90613d02565b91905055505050565b83600860008781526020019081526020016000206002019080519060200190611182929190612bb9565b50826008600087815260200190815260200160002060030190805190602001906111ad929190612bb9565b50816008600087815260200190815260200160002060040190805190602001906111d8929190612bb9565b508060086000878152602001908152602001600020600701819055505050505050565b83600b60008781526020019081526020016000206003019080519060200190611225929190612bb9565b5082600b60008781526020019081526020016000206004019080519060200190611250929190612bb9565b5081600b6000878152602001908152602001600020600601908051906020019061127b929190612bb9565b5080600b6000878152602001908152602001600020600701819055505050505050565b80600d600084815260200190815260200160002090805190602001906112c5929190612bb9565b505050565b60606000805b60025481101561131a5783600b600083815260200190815260200160002060010154141561130757818061130390613d02565b9250505b808061131290613d02565b9150506112d0565b5060008167ffffffffffffffff81111561133757611336613e07565b5b6040519080825280602002602001820160405280156113655781602001602082028036833780820191505090505b5090506000805b6002548110156113d65785600b60008381526020019081526020016000206001015414156113c357808383815181106113a8576113a7613dd8565b5b60200260200101818152505081806113bf90613d02565b9250505b80806113ce90613d02565b91505061136c565b50819350505050919050565b6040518060a00160405280600654815260200182815260200184815260200185815260200183815250601160006006548152602001908152602001600020600082015181600001556020820151816001015560408201518160020155606082015181600301556080820151816004019080519060200190611464929190612bb9565b509050506001600b6000868152602001908152602001600020600801600082825461148f9190613bcb565b9250508190555081600b600086815260200190815260200160002060050190805190602001906114c0929190612bb9565b50600660008154809291906114d490613d02565b919050555050505050565b601260009054906101000a900473ffffffffffffffffffffffffffffffffffffffff1681565b606060005b60045481101561156c5782600f600083815260200190815260200160002060020154141561155957611551600f60008381526020019081526020016000206001015461298e565b9150506115a6565b808061156490613d02565b91505061150a565b506040518060400160405280600581526020017f46616c736500000000000000000000000000000000000000000000000000000081525090505b919050565b60116020528060005260406000206000915090508060000154908060010154908060020154908060030154908060040180546115e690613c9f565b80601f016020809104026020016040519081016040528092919081815260200182805461161290613c9f565b801561165f5780601f106116345761010080835404028352916020019161165f565b820191906000526020600020905b81548152906001019060200180831161164257829003601f168201915b5050505050905085565b6040518060800160405280600454815260200184815260200183815260200182815250600f6000600454815260200190815260200160002060008201518160000155602082015181600101556040820151816002015560608201518160030190805190602001906116db929190612bb9565b5090505060016008600085815260200190815260200160002060050160008282546117069190613bcb565b925050819055506004600081548092919061172090613d02565b9190505550505050565b83600e60008681526020019081526020016000206000018190555082600e6000868152602001908152602001600020600101908051906020019061176f929190612bb9565b5081600e6000868152602001908152602001600020600201908051906020019061179a929190612bb9565b5080600e600086815260200190815260200160002060030190805190602001906117c5929190612bb9565b5050505050565b60015481565b80600a600084815260200190815260200160002090805190602001906117f9929190612bb9565b505050565b60005b60005481101561188457600760008281526020019081526020016000206000808201600090556001820160006118379190612c3f565b6002820160006118479190612c3f565b6003820160006118579190612c3f565b6004820160006118679190612c3f565b60058201600090555050808061187c90613d02565b915050611801565b5060005b600154811015611923576008600082815260200190815260200160002060008082016000905560018201600090556002820160006118c69190612c3f565b6003820160006118d69190612c3f565b6004820160006118e69190612c3f565b60058201600090556006820160009055600782016000905560088201600061190e9190612c3f565b5050808061191b90613d02565b915050611888565b5060005b60015481101561198a576009600082815260200190815260200160002060008082016000905560018201600090556002820160006119659190612c3f565b600382016000905560048201600090555050808061198290613d02565b915050611927565b5060005b6001548110156119ca57600a600082815260200190815260200160002060006119b79190612c3f565b80806119c290613d02565b91505061198e565b5060005b600254811015611a6957600b600082815260200190815260200160002060008082016000905560018201600090556002820160009055600382016000611a149190612c3f565b600482016000611a249190612c3f565b600582016000611a349190612c3f565b600682016000611a449190612c3f565b6007820160009055600882016000905550508080611a6190613d02565b9150506119ce565b5060005b600354811015611ac057600c600082815260200190815260200160002060008082016000611a9b9190612c3f565b600182016000611aab9190612c3f565b50508080611ab890613d02565b915050611a6d565b5060005b600154811015611b0057600d60008281526020019081526020016000206000611aed9190612c3f565b8080611af890613d02565b915050611ac4565b5060005b600054811015611b6f57600e6000828152602001908152602001600020600080820160009055600182016000611b3a9190612c3f565b600282016000611b4a9190612c3f565b600382016000611b5a9190612c3f565b50508080611b6790613d02565b915050611b04565b5060005b600454811015611bce57600f600082815260200190815260200160002060008082016000905560018201600090556002820160009055600382016000611bb99190612c3f565b50508080611bc690613d02565b915050611b73565b5060005b600554811015611c45576010600082815260200190815260200160002060008082016000905560018201600090556002820160009055600382016000905560048201600090556005820160009055600682016000611c309190612c3f565b50508080611c3d90613d02565b915050611bd2565b5060005b600654811015611cac5760116000828152602001908152602001600020600080820160009055600182016000905560028201600090556003820160009055600482016000611c979190612c3f565b50508080611ca490613d02565b915050611c49565b5060008081905550600060018190555060006002819055506000600381905550600060048190555060006005819055506000600681905550565b60065481565b6008602052806000526040600020600091509050806000015490806001015490806002018054611d1b90613c9f565b80601f0160208091040260200160405190810160405280929190818152602001828054611d4790613c9f565b8015611d945780601f10611d6957610100808354040283529160200191611d94565b820191906000526020600020905b815481529060010190602001808311611d7757829003601f168201915b505050505090806003018054611da990613c9f565b80601f0160208091040260200160405190810160405280929190818152602001828054611dd590613c9f565b8015611e225780601f10611df757610100808354040283529160200191611e22565b820191906000526020600020905b815481529060010190602001808311611e0557829003601f168201915b505050505090806004018054611e3790613c9f565b80601f0160208091040260200160405190810160405280929190818152602001828054611e6390613c9f565b8015611eb05780601f10611e8557610100808354040283529160200191611eb0565b820191906000526020600020905b815481529060010190602001808311611e9357829003601f168201915b505050505090806005015490806006015490806007015490806008018054611ed790613c9f565b80601f0160208091040260200160405190810160405280929190818152602001828054611f0390613c9f565b8015611f505780601f10611f2557610100808354040283529160200191611f50565b820191906000526020600020905b815481529060010190602001808311611f3357829003601f168201915b5050505050905089565b6010602052806000526040600020600091509050806000015490806001015490806002015490806003015490806004015490806005015490806006018054611fa190613c9f565b80601f0160208091040260200160405190810160405280929190818152602001828054611fcd90613c9f565b801561201a5780601f10611fef5761010080835404028352916020019161201a565b820191906000526020600020905b815481529060010190602001808311611ffd57829003601f168201915b5050505050905087565b606060005b6000548110156120cc5783805190602001206007600083815260200190815260200160002060020160405161205e91906136bc565b60405180910390201480156120a3575082805190602001206007600083815260200190815260200160002060030160405161209991906136bc565b6040518091039020145b156120b9576120b18161298e565b915050612106565b80806120c490613d02565b915050612029565b506040518060400160405280600581526020017f46616c736500000000000000000000000000000000000000000000000000000081525090505b92915050565b60005481565b600960205280600052604060002060009150905080600001549080600101549080600201805461214190613c9f565b80601f016020809104026020016040519081016040528092919081815260200182805461216d90613c9f565b80156121ba5780601f1061218f576101008083540402835291602001916121ba565b820191906000526020600020905b81548152906001019060200180831161219d57829003601f168201915b5050505050908060030154908060040154905085565b600b60205280600052604060002060009150905080600001549080600101549080600201549080600301805461220590613c9f565b80601f016020809104026020016040519081016040528092919081815260200182805461223190613c9f565b801561227e5780601f106122535761010080835404028352916020019161227e565b820191906000526020600020905b81548152906001019060200180831161226157829003601f168201915b50505050509080600401805461229390613c9f565b80601f01602080910402602001604051908101604052809291908181526020018280546122bf90613c9f565b801561230c5780601f106122e15761010080835404028352916020019161230c565b820191906000526020600020905b8154815290600101906020018083116122ef57829003601f168201915b50505050509080600501805461232190613c9f565b80601f016020809104026020016040519081016040528092919081815260200182805461234d90613c9f565b801561239a5780601f1061236f5761010080835404028352916020019161239a565b820191906000526020600020905b81548152906001019060200180831161237d57829003601f168201915b5050505050908060060180546123af90613c9f565b80601f01602080910402602001604051908101604052809291908181526020018280546123db90613c9f565b80156124285780601f106123fd57610100808354040283529160200191612428565b820191906000526020600020905b81548152906001019060200180831161240b57829003601f168201915b5050505050908060070154908060080154905089565b81600760008581526020019081526020016000206004019080519060200190612468929190612bb9565b50806007600085815260200190815260200160002060050181905550505050565b600d60205280600052604060002060009150905080546124a890613c9f565b80601f01602080910402602001604051908101604052809291908181526020018280546124d490613c9f565b80156125215780601f106124f657610100808354040283529160200191612521565b820191906000526020600020905b81548152906001019060200180831161250457829003601f168201915b505050505081565b60045481565b600e60205280600052604060002060009150905080600001549080600101805461255890613c9f565b80601f016020809104026020016040519081016040528092919081815260200182805461258490613c9f565b80156125d15780601f106125a6576101008083540402835291602001916125d1565b820191906000526020600020905b8154815290600101906020018083116125b457829003601f168201915b5050505050908060020180546125e690613c9f565b80601f016020809104026020016040519081016040528092919081815260200182805461261290613c9f565b801561265f5780601f106126345761010080835404028352916020019161265f565b820191906000526020600020905b81548152906001019060200180831161264257829003601f168201915b50505050509080600301805461267490613c9f565b80601f01602080910402602001604051908101604052809291908181526020018280546126a090613c9f565b80156126ed5780601f106126c2576101008083540402835291602001916126ed565b820191906000526020600020905b8154815290600101906020018083116126d057829003601f168201915b5050505050905084565b600c60205280600052604060002060009150905080600001805461271a90613c9f565b80601f016020809104026020016040519081016040528092919081815260200182805461274690613c9f565b80156127935780601f1061276857610100808354040283529160200191612793565b820191906000526020600020905b81548152906001019060200180831161277657829003601f168201915b5050505050908060010180546127a890613c9f565b80601f01602080910402602001604051908101604052809291908181526020018280546127d490613c9f565b80156128215780601f106127f657610100808354040283529160200191612821565b820191906000526020600020905b81548152906001019060200180831161280457829003601f168201915b5050505050905082565b600f60205280600052604060002060009150905080600001549080600101549080600201549080600301805461286090613c9f565b80601f016020809104026020016040519081016040528092919081815260200182805461288c90613c9f565b80156128d95780601f106128ae576101008083540402835291602001916128d9565b820191906000526020600020905b8154815290600101906020018083116128bc57829003601f168201915b5050505050905084565b606060005b60005481101561294f5782805190602001206007600083815260200190815260200160002060020160405161291d91906136bc565b6040518091039020141561293c576129348161298e565b915050612989565b808061294790613d02565b9150506128e8565b506040518060400160405280600581526020017f46616c736500000000000000000000000000000000000000000000000000000081525090505b919050565b60606000600161299d84612a66565b01905060008167ffffffffffffffff8111156129bc576129bb613e07565b5b6040519080825280601f01601f1916602001820160405280156129ee5781602001600182028036833780820191505090505b509050600082602001820190505b600115612a5b578080600190039150507f3031323334353637383961626364656600000000000000000000000000000000600a86061a8153600a8581612a4557612a44613d7a565b5b0494506000851415612a5657612a5b565b6129fc565b819350505050919050565b600080600090507a184f03e93ff9f4daa797ed6e38ed64bf6a1f0100000000000000008310612ac4577a184f03e93ff9f4daa797ed6e38ed64bf6a1f0100000000000000008381612aba57612ab9613d7a565b5b0492506040810190505b6d04ee2d6d415b85acef81000000008310612b01576d04ee2d6d415b85acef81000000008381612af757612af6613d7a565b5b0492506020810190505b662386f26fc100008310612b3057662386f26fc100008381612b2657612b25613d7a565b5b0492506010810190505b6305f5e1008310612b59576305f5e1008381612b4f57612b4e613d7a565b5b0492506008810190505b6127108310612b7e576127108381612b7457612b73613d7a565b5b0492506004810190505b60648310612ba15760648381612b9757612b96613d7a565b5b0492506002810190505b600a8310612bb0576001810190505b80915050919050565b828054612bc590613c9f565b90600052602060002090601f016020900481019282612be75760008555612c2e565b82601f10612c0057805160ff1916838001178555612c2e565b82800160010185558215612c2e579182015b82811115612c2d578251825591602001919060010190612c12565b5b509050612c3b9190612c7f565b5090565b508054612c4b90613c9f565b6000825580601f10612c5d5750612c7c565b601f016020900490600052602060002090810190612c7b9190612c7f565b5b50565b5b80821115612c98576000816000905550600101612c80565b5090565b6000612caf612caa84613b25565b613b00565b905082815260208101848484011115612ccb57612cca613e3b565b5b612cd6848285613c5d565b509392505050565b600082601f830112612cf357612cf2613e36565b5b8135612d03848260208601612c9c565b91505092915050565b600081359050612d1b81613e5b565b92915050565b600060208284031215612d3757612d36613e45565b5b600082013567ffffffffffffffff811115612d5557612d54613e40565b5b612d6184828501612cde565b91505092915050565b60008060408385031215612d8157612d80613e45565b5b600083013567ffffffffffffffff811115612d9f57612d9e613e40565b5b612dab85828601612cde565b925050602083013567ffffffffffffffff811115612dcc57612dcb613e40565b5b612dd885828601612cde565b9150509250929050565b600080600060608486031215612dfb57612dfa613e45565b5b600084013567ffffffffffffffff811115612e1957612e18613e40565b5b612e2586828701612cde565b935050602084013567ffffffffffffffff811115612e4657612e45613e40565b5b612e5286828701612cde565b925050604084013567ffffffffffffffff811115612e7357612e72613e40565b5b612e7f86828701612cde565b9150509250925092565b600060208284031215612e9f57612e9e613e45565b5b6000612ead84828501612d0c565b91505092915050565b60008060408385031215612ecd57612ecc613e45565b5b6000612edb85828601612d0c565b925050602083013567ffffffffffffffff811115612efc57612efb613e40565b5b612f0885828601612cde565b9150509250929050565b60008060008060808587031215612f2c57612f2b613e45565b5b6000612f3a87828801612d0c565b945050602085013567ffffffffffffffff811115612f5b57612f5a613e40565b5b612f6787828801612cde565b935050604085013567ffffffffffffffff811115612f8857612f87613e40565b5b612f9487828801612cde565b925050606085013567ffffffffffffffff811115612fb557612fb4613e40565b5b612fc187828801612cde565b91505092959194509250565b600080600080600060a08688031215612fe957612fe8613e45565b5b6000612ff788828901612d0c565b955050602086013567ffffffffffffffff81111561301857613017613e40565b5b61302488828901612cde565b945050604086013567ffffffffffffffff81111561304557613044613e40565b5b61305188828901612cde565b935050606086013567ffffffffffffffff81111561307257613071613e40565b5b61307e88828901612cde565b925050608061308f88828901612d0c565b9150509295509295909350565b600080600080600080600080610100898b0312156130bd576130bc613e45565b5b60006130cb8b828c01612d0c565b985050602089013567ffffffffffffffff8111156130ec576130eb613e40565b5b6130f88b828c01612cde565b975050604089013567ffffffffffffffff81111561311957613118613e40565b5b6131258b828c01612cde565b965050606089013567ffffffffffffffff81111561314657613145613e40565b5b6131528b828c01612cde565b95505060806131638b828c01612d0c565b94505060a06131748b828c01612d0c565b93505060c06131858b828c01612d0c565b92505060e089013567ffffffffffffffff8111156131a6576131a5613e40565b5b6131b28b828c01612cde565b9150509295985092959890939650565b6000806000606084860312156131db576131da613e45565b5b60006131e986828701612d0c565b935050602084013567ffffffffffffffff81111561320a57613209613e40565b5b61321686828701612cde565b925050604061322786828701612d0c565b9150509250925092565b6000806000806080858703121561324b5761324a613e45565b5b600061325987828801612d0c565b945050602085013567ffffffffffffffff81111561327a57613279613e40565b5b61328687828801612cde565b935050604061329787828801612d0c565b92505060606132a887828801612d0c565b91505092959194509250565b6000806000606084860312156132cd576132cc613e45565b5b60006132db86828701612d0c565b93505060206132ec86828701612d0c565b925050604084013567ffffffffffffffff81111561330d5761330c613e40565b5b61331986828701612cde565b9150509250925092565b600080600080600080600060e0888a03121561334257613341613e45565b5b60006133508a828b01612d0c565b97505060206133618a828b01612d0c565b965050604088013567ffffffffffffffff81111561338257613381613e40565b5b61338e8a828b01612cde565b955050606088013567ffffffffffffffff8111156133af576133ae613e40565b5b6133bb8a828b01612cde565b945050608088013567ffffffffffffffff8111156133dc576133db613e40565b5b6133e88a828b01612cde565b93505060a088013567ffffffffffffffff81111561340957613408613e40565b5b6134158a828b01612cde565b92505060c06134268a828b01612d0c565b91505092959891949750929550565b6000806000806080858703121561344f5761344e613e45565b5b600061345d87828801612d0c565b945050602061346e87828801612d0c565b935050604085013567ffffffffffffffff81111561348f5761348e613e40565b5b61349b87828801612cde565b92505060606134ac87828801612d0c565b91505092959194509250565b60008060008060008060c087890312156134d5576134d4613e45565b5b60006134e389828a01612d0c565b96505060206134f489828a01612d0c565b955050604061350589828a01612d0c565b945050606061351689828a01612d0c565b935050608061352789828a01612d0c565b92505060a087013567ffffffffffffffff81111561354857613547613e40565b5b61355489828a01612cde565b9150509295509295509295565b600061356d838361369e565b60208301905092915050565b61358281613c21565b82525050565b600061359382613b7b565b61359d8185613b9e565b93506135a883613b56565b8060005b838110156135d95781516135c08882613561565b97506135cb83613b91565b9250506001810190506135ac565b5085935050505092915050565b600081546135f381613c9f565b6135fd8186613baf565b9450600182166000811461361857600181146136295761365c565b60ff1983168652818601935061365c565b61363285613b66565b60005b8381101561365457815481890152600182019150602081019050613635565b838801955050505b50505092915050565b600061367082613b86565b61367a8185613bba565b935061368a818560208601613c6c565b61369381613e4a565b840191505092915050565b6136a781613c53565b82525050565b6136b681613c53565b82525050565b60006136c882846135e6565b915081905092915050565b60006020820190506136e86000830184613579565b92915050565b600060208201905081810360008301526137088184613588565b905092915050565b6000602082019050818103600083015261372a8184613665565b905092915050565b6000604082019050818103600083015261374c8185613665565b905081810360208301526137608184613665565b90509392505050565b600060808201905081810360008301526137838187613665565b905061379260208301866136ad565b81810360408301526137a48185613665565b905081810360608301526137b88184613665565b905095945050505050565b60006020820190506137d860008301846136ad565b92915050565b60006080820190506137f360008301876136ad565b81810360208301526138058186613665565b905081810360408301526138198185613665565b9050818103606083015261382d8184613665565b905095945050505050565b60006101208201905061384e600083018c6136ad565b61385b602083018b6136ad565b818103604083015261386d818a613665565b905081810360608301526138818189613665565b905081810360808301526138958188613665565b90506138a460a08301876136ad565b6138b160c08301866136ad565b6138be60e08301856136ad565b8181036101008301526138d18184613665565b90509a9950505050505050505050565b600060a0820190506138f660008301886136ad565b61390360208301876136ad565b81810360408301526139158186613665565b905061392460608301856136ad565b61393160808301846136ad565b9695505050505050565b600060808201905061395060008301876136ad565b61395d60208301866136ad565b61396a60408301856136ad565b818103606083015261397c8184613665565b905095945050505050565b60006101208201905061399d600083018c6136ad565b6139aa602083018b6136ad565b6139b7604083018a6136ad565b81810360608301526139c98189613665565b905081810360808301526139dd8188613665565b905081810360a08301526139f18187613665565b905081810360c0830152613a058186613665565b9050613a1460e08301856136ad565b613a226101008301846136ad565b9a9950505050505050505050565b600060a082019050613a4560008301886136ad565b613a5260208301876136ad565b613a5f60408301866136ad565b613a6c60608301856136ad565b8181036080830152613a7e8184613665565b90509695505050505050565b600060e082019050613a9f600083018a6136ad565b613aac60208301896136ad565b613ab960408301886136ad565b613ac660608301876136ad565b613ad360808301866136ad565b613ae060a08301856136ad565b81810360c0830152613af28184613665565b905098975050505050505050565b6000613b0a613b1b565b9050613b168282613cd1565b919050565b6000604051905090565b600067ffffffffffffffff821115613b4057613b3f613e07565b5b613b4982613e4a565b9050602081019050919050565b6000819050602082019050919050565b60008190508160005260206000209050919050565b600081519050919050565b600081519050919050565b6000602082019050919050565b600082825260208201905092915050565b600081905092915050565b600082825260208201905092915050565b6000613bd682613c53565b9150613be183613c53565b9250827fffffffffffffffffffffffffffffffffffffffffffffffffffffffffffffffff03821115613c1657613c15613d4b565b5b828201905092915050565b6000613c2c82613c33565b9050919050565b600073ffffffffffffffffffffffffffffffffffffffff82169050919050565b6000819050919050565b82818337600083830152505050565b60005b83811015613c8a578082015181840152602081019050613c6f565b83811115613c99576000848401525b50505050565b60006002820490506001821680613cb757607f821691505b60208210811415613ccb57613cca613da9565b5b50919050565b613cda82613e4a565b810181811067ffffffffffffffff82111715613cf957613cf8613e07565b5b80604052505050565b6000613d0d82613c53565b91507fffffffffffffffffffffffffffffffffffffffffffffffffffffffffffffffff821415613d4057613d3f613d4b565b5b600182019050919050565b7f4e487b7100000000000000000000000000000000000000000000000000000000600052601160045260246000fd5b7f4e487b7100000000000000000000000000000000000000000000000000000000600052601260045260246000fd5b7f4e487b7100000000000000000000000000000000000000000000000000000000600052602260045260246000fd5b7f4e487b7100000000000000000000000000000000000000000000000000000000600052603260045260246000fd5b7f4e487b7100000000000000000000000000000000000000000000000000000000600052604160045260246000fd5b600080fd5b600080fd5b600080fd5b600080fd5b6000601f19601f8301169050919050565b613e6481613c53565b8114613e6f57600080fd5b5056fe68747470733a2f2f692e706f7374696d672e63632f537378477735635a2f706572736f6e2e6a7067a2646970667358221220bf0a66347f943723bed196ca7259a85329819ab0e868813d11c5fb9b72e1588764736f6c63430008060033","opcodes":"PUSH1 0x80 PUSH1 0x40 MSTORE CALLVALUE DUP1 ISZERO PUSH2 0x10 JUMPI PUSH1 0x0 DUP1 REVERT JUMPDEST POP PUSH2 0x3ED0 DUP1 PUSH2 0x20 PUSH1 0x0 CODECOPY PUSH1 0x0 RETURN INVALID PUSH1 0x80 PUSH1 0x40 MSTORE CALLVALUE DUP1 ISZERO PUSH2 0x10 JUMPI PUSH1 0x0 DUP1 REVERT JUMPDEST POP PUSH1 0x4 CALLDATASIZE LT PUSH2 0x23D JUMPI PUSH1 0x0 CALLDATALOAD PUSH1 0xE0 SHR DUP1 PUSH4 0x90D6CF05 GT PUSH2 0x13B JUMPI DUP1 PUSH4 0xCE08988C GT PUSH2 0xB8 JUMPI DUP1 PUSH4 0xEB6B2870 GT PUSH2 0x7C JUMPI DUP1 PUSH4 0xEB6B2870 EQ PUSH2 0x707 JUMPI DUP1 PUSH4 0xEBE197CA EQ PUSH2 0x725 JUMPI DUP1 PUSH4 0xF0D8E873 EQ PUSH2 0x758 JUMPI DUP1 PUSH4 0xF6AAA804 EQ PUSH2 0x789 JUMPI DUP1 PUSH4 0xF8B7800F EQ PUSH2 0x7BC JUMPI PUSH2 0x23D JUMP JUMPDEST DUP1 PUSH4 0xCE08988C EQ PUSH2 0x631 JUMPI DUP1 PUSH4 0xDA01F01E EQ PUSH2 0x64F JUMPI DUP1 PUSH4 0xDE7ACFD7 EQ PUSH2 0x683 JUMPI DUP1 PUSH4 0xE57F973F EQ PUSH2 0x6BB JUMPI DUP1 PUSH4 0xEA7EFAA6 EQ PUSH2 0x6D7 JUMPI PUSH2 0x23D JUMP JUMPDEST DUP1 PUSH4 0xB16060A6 GT PUSH2 0xFF JUMPI DUP1 PUSH4 0xB16060A6 EQ PUSH2 0x56B JUMPI DUP1 PUSH4 0xB6E604BD EQ PUSH2 0x575 JUMPI DUP1 PUSH4 0xBED208FE EQ PUSH2 0x593 JUMPI DUP1 PUSH4 0xC13B2836 EQ PUSH2 0x5CB JUMPI DUP1 PUSH4 0xCCEF4218 EQ PUSH2 0x601 JUMPI PUSH2 0x23D JUMP JUMPDEST DUP1 PUSH4 0x90D6CF05 EQ PUSH2 0x4C5 JUMPI DUP1 PUSH4 0xA5F3FC7D EQ PUSH2 0x4F9 JUMPI DUP1 PUSH4 0xA92E1C4C EQ PUSH2 0x515 JUMPI DUP1 PUSH4 0xAC7AEF0E EQ PUSH2 0x531 JUMPI DUP1 PUSH4 0xAD23F8F9 EQ PUSH2 0x54F JUMPI PUSH2 0x23D JUMP JUMPDEST DUP1 PUSH4 0x45948FDE GT PUSH2 0x1C9 JUMPI DUP1 PUSH4 0x66CAD734 GT PUSH2 0x18D JUMPI DUP1 PUSH4 0x66CAD734 EQ PUSH2 0x40F JUMPI DUP1 PUSH4 0x682D562B EQ PUSH2 0x42B JUMPI DUP1 PUSH4 0x7D423E10 EQ PUSH2 0x45B JUMPI DUP1 PUSH4 0x8DA5CB5B EQ PUSH2 0x477 JUMPI DUP1 PUSH4 0x902841D4 EQ PUSH2 0x495 JUMPI PUSH2 0x23D JUMP JUMPDEST DUP1 PUSH4 0x45948FDE EQ PUSH2 0x36F JUMPI DUP1 PUSH4 0x49B9B07B EQ PUSH2 0x38B JUMPI DUP1 PUSH4 0x4F8B36EB EQ PUSH2 0x3BB JUMPI DUP1 PUSH4 0x55391705 EQ PUSH2 0x3D7 JUMPI DUP1 PUSH4 0x5F27AEA1 EQ PUSH2 0x3F3 JUMPI PUSH2 0x23D JUMP JUMPDEST DUP1 PUSH4 0x2A8CAF4A GT PUSH2 0x210 JUMPI DUP1 PUSH4 0x2A8CAF4A EQ PUSH2 0x2CF JUMPI DUP1 PUSH4 0x2C02DD60 EQ PUSH2 0x2FF JUMPI DUP1 PUSH4 0x2FFB08F7 EQ PUSH2 0x31B JUMPI DUP1 PUSH4 0x3896F130 EQ PUSH2 0x337 JUMPI DUP1 PUSH4 0x3EEBD0D0 EQ PUSH2 0x353 JUMPI PUSH2 0x23D JUMP JUMPDEST DUP1 PUSH4 0x1C66109 EQ PUSH2 0x242 JUMPI DUP1 PUSH4 0x1429F775 EQ PUSH2 0x260 JUMPI DUP1 PUSH4 0x1C1A9F7B EQ PUSH2 0x27E JUMPI DUP1 PUSH4 0x29B36423 EQ PUSH2 0x2B1 JUMPI JUMPDEST PUSH1 0x0 DUP1 REVERT JUMPDEST PUSH2 0x24A PUSH2 0x7EC JUMP JUMPDEST PUSH1 0x40 MLOAD PUSH2 0x257 SWAP2 SWAP1 PUSH2 0x37C3 JUMP JUMPDEST PUSH1 0x40 MLOAD DUP1 SWAP2 SUB SWAP1 RETURN JUMPDEST PUSH2 0x268 PUSH2 0x7F2 JUMP JUMPDEST PUSH1 0x40 MLOAD PUSH2 0x275 SWAP2 SWAP1 PUSH2 0x37C3 JUMP JUMPDEST PUSH1 0x40 MLOAD DUP1 SWAP2 SUB SWAP1 RETURN JUMPDEST PUSH2 0x298 PUSH1 0x4 DUP1 CALLDATASIZE SUB DUP2 ADD SWAP1 PUSH2 0x293 SWAP2 SWAP1 PUSH2 0x2E89 JUMP JUMPDEST PUSH2 0x7F8 JUMP JUMPDEST PUSH1 0x40 MLOAD PUSH2 0x2A8 SWAP5 SWAP4 SWAP3 SWAP2 SWAP1 PUSH2 0x3769 JUMP JUMPDEST PUSH1 0x40 MLOAD DUP1 SWAP2 SUB SWAP1 RETURN JUMPDEST PUSH2 0x2B9 PUSH2 0xA0B JUMP JUMPDEST PUSH1 0x40 MLOAD PUSH2 0x2C6 SWAP2 SWAP1 PUSH2 0x37C3 JUMP JUMPDEST PUSH1 0x40 MLOAD DUP1 SWAP2 SUB SWAP1 RETURN JUMPDEST PUSH2 0x2E9 PUSH1 0x4 DUP1 CALLDATASIZE SUB DUP2 ADD SWAP1 PUSH2 0x2E4 SWAP2 SWAP1 PUSH2 0x2E89 JUMP JUMPDEST PUSH2 0xA11 JUMP JUMPDEST PUSH1 0x40 MLOAD PUSH2 0x2F6 SWAP2 SWAP1 PUSH2 0x3710 JUMP JUMPDEST PUSH1 0x40 MLOAD DUP1 SWAP2 SUB SWAP1 RETURN JUMPDEST PUSH2 0x319 PUSH1 0x4 DUP1 CALLDATASIZE SUB DUP2 ADD SWAP1 PUSH2 0x314 SWAP2 SWAP1 PUSH2 0x309C JUMP JUMPDEST PUSH2 0xAB1 JUMP JUMPDEST STOP JUMPDEST PUSH2 0x335 PUSH1 0x4 DUP1 CALLDATASIZE SUB DUP2 ADD SWAP1 PUSH2 0x330 SWAP2 SWAP1 PUSH2 0x34B8 JUMP JUMPDEST PUSH2 0xC6A JUMP JUMPDEST STOP JUMPDEST PUSH2 0x351 PUSH1 0x4 DUP1 CALLDATASIZE SUB DUP2 ADD SWAP1 PUSH2 0x34C SWAP2 SWAP1 PUSH2 0x3323 JUMP JUMPDEST PUSH2 0xD30 JUMP JUMPDEST STOP JUMPDEST PUSH2 0x36D PUSH1 0x4 DUP1 CALLDATASIZE SUB DUP2 ADD SWAP1 PUSH2 0x368 SWAP2 SWAP1 PUSH2 0x3231 JUMP JUMPDEST PUSH2 0xE53 JUMP JUMPDEST STOP JUMPDEST PUSH2 0x389 PUSH1 0x4 DUP1 CALLDATASIZE SUB DUP2 ADD SWAP1 PUSH2 0x384 SWAP2 SWAP1 PUSH2 0x2DE2 JUMP JUMPDEST PUSH2 0xEBA JUMP JUMPDEST STOP JUMPDEST PUSH2 0x3A5 PUSH1 0x4 DUP1 CALLDATASIZE SUB DUP2 ADD SWAP1 PUSH2 0x3A0 SWAP2 SWAP1 PUSH2 0x2E89 JUMP JUMPDEST PUSH2 0xFBD JUMP JUMPDEST PUSH1 0x40 MLOAD PUSH2 0x3B2 SWAP2 SWAP1 PUSH2 0x36EE JUMP JUMPDEST PUSH1 0x40 MLOAD DUP1 SWAP2 SUB SWAP1 RETURN JUMPDEST PUSH2 0x3D5 PUSH1 0x4 DUP1 CALLDATASIZE SUB DUP2 ADD SWAP1 PUSH2 0x3D0 SWAP2 SWAP1 PUSH2 0x2D6A JUMP JUMPDEST PUSH2 0x10D5 JUMP JUMPDEST STOP JUMPDEST PUSH2 0x3F1 PUSH1 0x4 DUP1 CALLDATASIZE SUB DUP2 ADD SWAP1 PUSH2 0x3EC SWAP2 SWAP1 PUSH2 0x2FCD JUMP JUMPDEST PUSH2 0x1158 JUMP JUMPDEST STOP JUMPDEST PUSH2 0x40D PUSH1 0x4 DUP1 CALLDATASIZE SUB DUP2 ADD SWAP1 PUSH2 0x408 SWAP2 SWAP1 PUSH2 0x2FCD JUMP JUMPDEST PUSH2 0x11FB JUMP JUMPDEST STOP JUMPDEST PUSH2 0x429 PUSH1 0x4 DUP1 CALLDATASIZE SUB DUP2 ADD SWAP1 PUSH2 0x424 SWAP2 SWAP1 PUSH2 0x2EB6 JUMP JUMPDEST PUSH2 0x129E JUMP JUMPDEST STOP JUMPDEST PUSH2 0x445 PUSH1 0x4 DUP1 CALLDATASIZE SUB DUP2 ADD SWAP1 PUSH2 0x440 SWAP2 SWAP1 PUSH2 0x2E89 JUMP JUMPDEST PUSH2 0x12CA JUMP JUMPDEST PUSH1 0x40 MLOAD PUSH2 0x452 SWAP2 SWAP1 PUSH2 0x36EE JUMP JUMPDEST PUSH1 0x40 MLOAD DUP1 SWAP2 SUB SWAP1 RETURN JUMPDEST PUSH2 0x475 PUSH1 0x4 DUP1 CALLDATASIZE SUB DUP2 ADD SWAP1 PUSH2 0x470 SWAP2 SWAP1 PUSH2 0x3435 JUMP JUMPDEST PUSH2 0x13E2 JUMP JUMPDEST STOP JUMPDEST PUSH2 0x47F PUSH2 0x14DF JUMP JUMPDEST PUSH1 0x40 MLOAD PUSH2 0x48C SWAP2 SWAP1 PUSH2 0x36D3 JUMP JUMPDEST PUSH1 0x40 MLOAD DUP1 SWAP2 SUB SWAP1 RETURN JUMPDEST PUSH2 0x4AF PUSH1 0x4 DUP1 CALLDATASIZE SUB DUP2 ADD SWAP1 PUSH2 0x4AA SWAP2 SWAP1 PUSH2 0x2E89 JUMP JUMPDEST PUSH2 0x1505 JUMP JUMPDEST PUSH1 0x40 MLOAD PUSH2 0x4BC SWAP2 SWAP1 PUSH2 0x3710 JUMP JUMPDEST PUSH1 0x40 MLOAD DUP1 SWAP2 SUB SWAP1 RETURN JUMPDEST PUSH2 0x4DF PUSH1 0x4 DUP1 CALLDATASIZE SUB DUP2 ADD SWAP1 PUSH2 0x4DA SWAP2 SWAP1 PUSH2 0x2E89 JUMP JUMPDEST PUSH2 0x15AB JUMP JUMPDEST PUSH1 0x40 MLOAD PUSH2 0x4F0 SWAP6 SWAP5 SWAP4 SWAP3 SWAP2 SWAP1 PUSH2 0x3A30 JUMP JUMPDEST PUSH1 0x40 MLOAD DUP1 SWAP2 SUB SWAP1 RETURN JUMPDEST PUSH2 0x513 PUSH1 0x4 DUP1 CALLDATASIZE SUB DUP2 ADD SWAP1 PUSH2 0x50E SWAP2 SWAP1 PUSH2 0x32B4 JUMP JUMPDEST PUSH2 0x1669 JUMP JUMPDEST STOP JUMPDEST PUSH2 0x52F PUSH1 0x4 DUP1 CALLDATASIZE SUB DUP2 ADD SWAP1 PUSH2 0x52A SWAP2 SWAP1 PUSH2 0x2F12 JUMP JUMPDEST PUSH2 0x172A JUMP JUMPDEST STOP JUMPDEST PUSH2 0x539 PUSH2 0x17CC JUMP JUMPDEST PUSH1 0x40 MLOAD PUSH2 0x546 SWAP2 SWAP1 PUSH2 0x37C3 JUMP JUMPDEST PUSH1 0x40 MLOAD DUP1 SWAP2 SUB SWAP1 RETURN JUMPDEST PUSH2 0x569 PUSH1 0x4 DUP1 CALLDATASIZE SUB DUP2 ADD SWAP1 PUSH2 0x564 SWAP2 SWAP1 PUSH2 0x2EB6 JUMP JUMPDEST PUSH2 0x17D2 JUMP JUMPDEST STOP JUMPDEST PUSH2 0x573 PUSH2 0x17FE JUMP JUMPDEST STOP JUMPDEST PUSH2 0x57D PUSH2 0x1CE6 JUMP JUMPDEST PUSH1 0x40 MLOAD PUSH2 0x58A SWAP2 SWAP1 PUSH2 0x37C3 JUMP JUMPDEST PUSH1 0x40 MLOAD DUP1 SWAP2 SUB SWAP1 RETURN JUMPDEST PUSH2 0x5AD PUSH1 0x4 DUP1 CALLDATASIZE SUB DUP2 ADD SWAP1 PUSH2 0x5A8 SWAP2 SWAP1 PUSH2 0x2E89 JUMP JUMPDEST PUSH2 0x1CEC JUMP JUMPDEST PUSH1 0x40 MLOAD PUSH2 0x5C2 SWAP10 SWAP9 SWAP8 SWAP7 SWAP6 SWAP5 SWAP4 SWAP3 SWAP2 SWAP1 PUSH2 0x3838 JUMP JUMPDEST PUSH1 0x40 MLOAD DUP1 SWAP2 SUB SWAP1 RETURN JUMPDEST PUSH2 0x5E5 PUSH1 0x4 DUP1 CALLDATASIZE SUB DUP2 ADD SWAP1 PUSH2 0x5E0 SWAP2 SWAP1 PUSH2 0x2E89 JUMP JUMPDEST PUSH2 0x1F5A JUMP JUMPDEST PUSH1 0x40 MLOAD PUSH2 0x5F8 SWAP8 SWAP7 SWAP6 SWAP5 SWAP4 SWAP3 SWAP2 SWAP1 PUSH2 0x3A8A JUMP JUMPDEST PUSH1 0x40 MLOAD DUP1 SWAP2 SUB SWAP1 RETURN JUMPDEST PUSH2 0x61B PUSH1 0x4 DUP1 CALLDATASIZE SUB DUP2 ADD SWAP1 PUSH2 0x616 SWAP2 SWAP1 PUSH2 0x2D6A JUMP JUMPDEST PUSH2 0x2024 JUMP JUMPDEST PUSH1 0x40 MLOAD PUSH2 0x628 SWAP2 SWAP1 PUSH2 0x3710 JUMP JUMPDEST PUSH1 0x40 MLOAD DUP1 SWAP2 SUB SWAP1 RETURN JUMPDEST PUSH2 0x639 PUSH2 0x210C JUMP JUMPDEST PUSH1 0x40 MLOAD PUSH2 0x646 SWAP2 SWAP1 PUSH2 0x37C3 JUMP JUMPDEST PUSH1 0x40 MLOAD DUP1 SWAP2 SUB SWAP1 RETURN JUMPDEST PUSH2 0x669 PUSH1 0x4 DUP1 CALLDATASIZE SUB DUP2 ADD SWAP1 PUSH2 0x664 SWAP2 SWAP1 PUSH2 0x2E89 JUMP JUMPDEST PUSH2 0x2112 JUMP JUMPDEST PUSH1 0x40 MLOAD PUSH2 0x67A SWAP6 SWAP5 SWAP4 SWAP3 SWAP2 SWAP1 PUSH2 0x38E1 JUMP JUMPDEST PUSH1 0x40 MLOAD DUP1 SWAP2 SUB SWAP1 RETURN JUMPDEST PUSH2 0x69D PUSH1 0x4 DUP1 CALLDATASIZE SUB DUP2 ADD SWAP1 PUSH2 0x698 SWAP2 SWAP1 PUSH2 0x2E89 JUMP JUMPDEST PUSH2 0x21D0 JUMP JUMPDEST PUSH1 0x40 MLOAD PUSH2 0x6B2 SWAP10 SWAP9 SWAP8 SWAP7 SWAP6 SWAP5 SWAP4 SWAP3 SWAP2 SWAP1 PUSH2 0x3987 JUMP JUMPDEST PUSH1 0x40 MLOAD DUP1 SWAP2 SUB SWAP1 RETURN JUMPDEST PUSH2 0x6D5 PUSH1 0x4 DUP1 CALLDATASIZE SUB DUP2 ADD SWAP1 PUSH2 0x6D0 SWAP2 SWAP1 PUSH2 0x31C2 JUMP JUMPDEST PUSH2 0x243E JUMP JUMPDEST STOP JUMPDEST PUSH2 0x6F1 PUSH1 0x4 DUP1 CALLDATASIZE SUB DUP2 ADD SWAP1 PUSH2 0x6EC SWAP2 SWAP1 PUSH2 0x2E89 JUMP JUMPDEST PUSH2 0x2489 JUMP JUMPDEST PUSH1 0x40 MLOAD PUSH2 0x6FE SWAP2 SWAP1 PUSH2 0x3710 JUMP JUMPDEST PUSH1 0x40 MLOAD DUP1 SWAP2 SUB SWAP1 RETURN JUMPDEST PUSH2 0x70F PUSH2 0x2529 JUMP JUMPDEST PUSH1 0x40 MLOAD PUSH2 0x71C SWAP2 SWAP1 PUSH2 0x37C3 JUMP JUMPDEST PUSH1 0x40 MLOAD DUP1 SWAP2 SUB SWAP1 RETURN JUMPDEST PUSH2 0x73F PUSH1 0x4 DUP1 CALLDATASIZE SUB DUP2 ADD SWAP1 PUSH2 0x73A SWAP2 SWAP1 PUSH2 0x2E89 JUMP JUMPDEST PUSH2 0x252F JUMP JUMPDEST PUSH1 0x40 MLOAD PUSH2 0x74F SWAP5 SWAP4 SWAP3 SWAP2 SWAP1 PUSH2 0x37DE JUMP JUMPDEST PUSH1 0x40 MLOAD DUP1 SWAP2 SUB SWAP1 RETURN JUMPDEST PUSH2 0x772 PUSH1 0x4 DUP1 CALLDATASIZE SUB DUP2 ADD SWAP1 PUSH2 0x76D SWAP2 SWAP1 PUSH2 0x2E89 JUMP JUMPDEST PUSH2 0x26F7 JUMP JUMPDEST PUSH1 0x40 MLOAD PUSH2 0x780 SWAP3 SWAP2 SWAP1 PUSH2 0x3732 JUMP JUMPDEST PUSH1 0x40 MLOAD DUP1 SWAP2 SUB SWAP1 RETURN JUMPDEST PUSH2 0x7A3 PUSH1 0x4 DUP1 CALLDATASIZE SUB DUP2 ADD SWAP1 PUSH2 0x79E SWAP2 SWAP1 PUSH2 0x2E89 JUMP JUMPDEST PUSH2 0x282B JUMP JUMPDEST PUSH1 0x40 MLOAD PUSH2 0x7B3 SWAP5 SWAP4 SWAP3 SWAP2 SWAP1 PUSH2 0x393B JUMP JUMPDEST PUSH1 0x40 MLOAD DUP1 SWAP2 SUB SWAP1 RETURN JUMPDEST PUSH2 0x7D6 PUSH1 0x4 DUP1 CALLDATASIZE SUB DUP2 ADD SWAP1 PUSH2 0x7D1 SWAP2 SWAP1 PUSH2 0x2D21 JUMP JUMPDEST PUSH2 0x28E3 JUMP JUMPDEST PUSH1 0x40 MLOAD PUSH2 0x7E3 SWAP2 SWAP1 PUSH2 0x3710 JUMP JUMPDEST PUSH1 0x40 MLOAD DUP1 SWAP2 SUB SWAP1 RETURN JUMPDEST PUSH1 0x5 SLOAD DUP2 JUMP JUMPDEST PUSH1 0x2 SLOAD DUP2 JUMP JUMPDEST PUSH1 0x60 PUSH1 0x0 PUSH1 0x60 DUP1 PUSH1 0x7 PUSH1 0x0 DUP7 DUP2 MSTORE PUSH1 0x20 ADD SWAP1 DUP2 MSTORE PUSH1 0x20 ADD PUSH1 0x0 KECCAK256 PUSH1 0x4 ADD PUSH1 0x7 PUSH1 0x0 DUP8 DUP2 MSTORE PUSH1 0x20 ADD SWAP1 DUP2 MSTORE PUSH1 0x20 ADD PUSH1 0x0 KECCAK256 PUSH1 0x5 ADD SLOAD PUSH1 0x7 PUSH1 0x0 DUP9 DUP2 MSTORE PUSH1 0x20 ADD SWAP1 DUP2 MSTORE PUSH1 0x20 ADD PUSH1 0x0 KECCAK256 PUSH1 0x1 ADD PUSH1 0x7 PUSH1 0x0 DUP10 DUP2 MSTORE PUSH1 0x20 ADD SWAP1 DUP2 MSTORE PUSH1 0x20 ADD PUSH1 0x0 KECCAK256 PUSH1 0x2 ADD DUP4 DUP1 SLOAD PUSH2 0x864 SWAP1 PUSH2 0x3C9F JUMP JUMPDEST DUP1 PUSH1 0x1F ADD PUSH1 0x20 DUP1 SWAP2 DIV MUL PUSH1 0x20 ADD PUSH1 0x40 MLOAD SWAP1 DUP2 ADD PUSH1 0x40 MSTORE DUP1 SWAP3 SWAP2 SWAP1 DUP2 DUP2 MSTORE PUSH1 0x20 ADD DUP3 DUP1 SLOAD PUSH2 0x890 SWAP1 PUSH2 0x3C9F JUMP JUMPDEST DUP1 ISZERO PUSH2 0x8DD JUMPI DUP1 PUSH1 0x1F LT PUSH2 0x8B2 JUMPI PUSH2 0x100 DUP1 DUP4 SLOAD DIV MUL DUP4 MSTORE SWAP2 PUSH1 0x20 ADD SWAP2 PUSH2 0x8DD JUMP JUMPDEST DUP3 ADD SWAP2 SWAP1 PUSH1 0x0 MSTORE PUSH1 0x20 PUSH1 0x0 KECCAK256 SWAP1 JUMPDEST DUP2 SLOAD DUP2 MSTORE SWAP1 PUSH1 0x1 ADD SWAP1 PUSH1 0x20 ADD DUP1 DUP4 GT PUSH2 0x8C0 JUMPI DUP3 SWAP1 SUB PUSH1 0x1F AND DUP3 ADD SWAP2 JUMPDEST POP POP POP POP POP SWAP4 POP DUP2 DUP1 SLOAD PUSH2 0x8F0 SWAP1 PUSH2 0x3C9F JUMP JUMPDEST DUP1 PUSH1 0x1F ADD PUSH1 0x20 DUP1 SWAP2 DIV MUL PUSH1 0x20 ADD PUSH1 0x40 MLOAD SWAP1 DUP2 ADD PUSH1 0x40 MSTORE DUP1 SWAP3 SWAP2 SWAP1 DUP2 DUP2 MSTORE PUSH1 0x20 ADD DUP3 DUP1 SLOAD PUSH2 0x91C SWAP1 PUSH2 0x3C9F JUMP JUMPDEST DUP1 ISZERO PUSH2 0x969 JUMPI DUP1 PUSH1 0x1F LT PUSH2 0x93E JUMPI PUSH2 0x100 DUP1 DUP4 SLOAD DIV MUL DUP4 MSTORE SWAP2 PUSH1 0x20 ADD SWAP2 PUSH2 0x969 JUMP JUMPDEST DUP3 ADD SWAP2 SWAP1 PUSH1 0x0 MSTORE PUSH1 0x20 PUSH1 0x0 KECCAK256 SWAP1 JUMPDEST DUP2 SLOAD DUP2 MSTORE SWAP1 PUSH1 0x1 ADD SWAP1 PUSH1 0x20 ADD DUP1 DUP4 GT PUSH2 0x94C JUMPI DUP3 SWAP1 SUB PUSH1 0x1F AND DUP3 ADD SWAP2 JUMPDEST POP POP POP POP POP SWAP2 POP DUP1 DUP1 SLOAD PUSH2 0x97C SWAP1 PUSH2 0x3C9F JUMP JUMPDEST DUP1 PUSH1 0x1F ADD PUSH1 0x20 DUP1 SWAP2 DIV MUL PUSH1 0x20 ADD PUSH1 0x40 MLOAD SWAP1 DUP2 ADD PUSH1 0x40 MSTORE DUP1 SWAP3 SWAP2 SWAP1 DUP2 DUP2 MSTORE PUSH1 0x20 ADD DUP3 DUP1 SLOAD PUSH2 0x9A8 SWAP1 PUSH2 0x3C9F JUMP JUMPDEST DUP1 ISZERO PUSH2 0x9F5 JUMPI DUP1 PUSH1 0x1F LT PUSH2 0x9CA JUMPI PUSH2 0x100 DUP1 DUP4 SLOAD DIV MUL DUP4 MSTORE SWAP2 PUSH1 0x20 ADD SWAP2 PUSH2 0x9F5 JUMP JUMPDEST DUP3 ADD SWAP2 SWAP1 PUSH1 0x0 MSTORE PUSH1 0x20 PUSH1 0x0 KECCAK256 SWAP1 JUMPDEST DUP2 SLOAD DUP2 MSTORE SWAP1 PUSH1 0x1 ADD SWAP1 PUSH1 0x20 ADD DUP1 DUP4 GT PUSH2 0x9D8 JUMPI DUP3 SWAP1 SUB PUSH1 0x1F AND DUP3 ADD SWAP2 JUMPDEST POP POP POP POP POP SWAP1 POP SWAP4 POP SWAP4 POP SWAP4 POP SWAP4 POP SWAP2 SWAP4 POP SWAP2 SWAP4 JUMP JUMPDEST PUSH1 0x3 SLOAD DUP2 JUMP JUMPDEST PUSH1 0xA PUSH1 0x20 MSTORE DUP1 PUSH1 0x0 MSTORE PUSH1 0x40 PUSH1 0x0 KECCAK256 PUSH1 0x0 SWAP2 POP SWAP1 POP DUP1 SLOAD PUSH2 0xA30 SWAP1 PUSH2 0x3C9F JUMP JUMPDEST DUP1 PUSH1 0x1F ADD PUSH1 0x20 DUP1 SWAP2 DIV MUL PUSH1 0x20 ADD PUSH1 0x40 MLOAD SWAP1 DUP2 ADD PUSH1 0x40 MSTORE DUP1 SWAP3 SWAP2 SWAP1 DUP2 DUP2 MSTORE PUSH1 0x20 ADD DUP3 DUP1 SLOAD PUSH2 0xA5C SWAP1 PUSH2 0x3C9F JUMP JUMPDEST DUP1 ISZERO PUSH2 0xAA9 JUMPI DUP1 PUSH1 0x1F LT PUSH2 0xA7E JUMPI PUSH2 0x100 DUP1 DUP4 SLOAD DIV MUL DUP4 MSTORE SWAP2 PUSH1 0x20 ADD SWAP2 PUSH2 0xAA9 JUMP JUMPDEST DUP3 ADD SWAP2 SWAP1 PUSH1 0x0 MSTORE PUSH1 0x20 PUSH1 0x0 KECCAK256 SWAP1 JUMPDEST DUP2 SLOAD DUP2 MSTORE SWAP1 PUSH1 0x1 ADD SWAP1 PUSH1 0x20 ADD DUP1 DUP4 GT PUSH2 0xA8C JUMPI DUP3 SWAP1 SUB PUSH1 0x1F AND DUP3 ADD SWAP2 JUMPDEST POP POP POP POP POP DUP2 JUMP JUMPDEST PUSH1 0x40 MLOAD DUP1 PUSH2 0x120 ADD PUSH1 0x40 MSTORE DUP1 PUSH1 0x1 SLOAD DUP2 MSTORE PUSH1 0x20 ADD DUP10 DUP2 MSTORE PUSH1 0x20 ADD DUP9 DUP2 MSTORE PUSH1 0x20 ADD DUP8 DUP2 MSTORE PUSH1 0x20 ADD DUP7 DUP2 MSTORE PUSH1 0x20 ADD DUP6 DUP2 MSTORE PUSH1 0x20 ADD DUP5 DUP2 MSTORE PUSH1 0x20 ADD DUP4 DUP2 MSTORE PUSH1 0x20 ADD DUP3 DUP2 MSTORE POP PUSH1 0x8 PUSH1 0x0 PUSH1 0x1 SLOAD DUP2 MSTORE PUSH1 0x20 ADD SWAP1 DUP2 MSTORE PUSH1 0x20 ADD PUSH1 0x0 KECCAK256 PUSH1 0x0 DUP3 ADD MLOAD DUP2 PUSH1 0x0 ADD SSTORE PUSH1 0x20 DUP3 ADD MLOAD DUP2 PUSH1 0x1 ADD SSTORE PUSH1 0x40 DUP3 ADD MLOAD DUP2 PUSH1 0x2 ADD SWAP1 DUP1 MLOAD SWAP1 PUSH1 0x20 ADD SWAP1 PUSH2 0xB38 SWAP3 SWAP2 SWAP1 PUSH2 0x2BB9 JUMP JUMPDEST POP PUSH1 0x60 DUP3 ADD MLOAD DUP2 PUSH1 0x3 ADD SWAP1 DUP1 MLOAD SWAP1 PUSH1 0x20 ADD SWAP1 PUSH2 0xB55 SWAP3 SWAP2 SWAP1 PUSH2 0x2BB9 JUMP JUMPDEST POP PUSH1 0x80 DUP3 ADD MLOAD DUP2 PUSH1 0x4 ADD SWAP1 DUP1 MLOAD SWAP1 PUSH1 0x20 ADD SWAP1 PUSH2 0xB72 SWAP3 SWAP2 SWAP1 PUSH2 0x2BB9 JUMP JUMPDEST POP PUSH1 0xA0 DUP3 ADD MLOAD DUP2 PUSH1 0x5 ADD SSTORE PUSH1 0xC0 DUP3 ADD MLOAD DUP2 PUSH1 0x6 ADD SSTORE PUSH1 0xE0 DUP3 ADD MLOAD DUP2 PUSH1 0x7 ADD SSTORE PUSH2 0x100 DUP3 ADD MLOAD DUP2 PUSH1 0x8 ADD SWAP1 DUP1 MLOAD SWAP1 PUSH1 0x20 ADD SWAP1 PUSH2 0xBAE SWAP3 SWAP2 SWAP1 PUSH2 0x2BB9 JUMP JUMPDEST POP SWAP1 POP POP PUSH1 0x40 MLOAD DUP1 PUSH1 0xA0 ADD PUSH1 0x40 MSTORE DUP1 PUSH1 0x1 SLOAD DUP2 MSTORE PUSH1 0x20 ADD DUP10 DUP2 MSTORE PUSH1 0x20 ADD PUSH1 0x40 MLOAD DUP1 PUSH1 0x20 ADD PUSH1 0x40 MSTORE DUP1 PUSH1 0x0 DUP2 MSTORE POP DUP2 MSTORE PUSH1 0x20 ADD PUSH1 0x0 DUP2 MSTORE PUSH1 0x20 ADD DUP4 DUP2 MSTORE POP PUSH1 0x9 PUSH1 0x0 PUSH1 0x1 SLOAD DUP2 MSTORE PUSH1 0x20 ADD SWAP1 DUP2 MSTORE PUSH1 0x20 ADD PUSH1 0x0 KECCAK256 PUSH1 0x0 DUP3 ADD MLOAD DUP2 PUSH1 0x0 ADD SSTORE PUSH1 0x20 DUP3 ADD MLOAD DUP2 PUSH1 0x1 ADD SSTORE PUSH1 0x40 DUP3 ADD MLOAD DUP2 PUSH1 0x2 ADD SWAP1 DUP1 MLOAD SWAP1 PUSH1 0x20 ADD SWAP1 PUSH2 0xC30 SWAP3 SWAP2 SWAP1 PUSH2 0x2BB9 JUMP JUMPDEST POP PUSH1 0x60 DUP3 ADD MLOAD DUP2 PUSH1 0x3 ADD SSTORE PUSH1 0x80 DUP3 ADD MLOAD DUP2 PUSH1 0x4 ADD SSTORE SWAP1 POP POP PUSH1 0x1 PUSH1 0x0 DUP2 SLOAD DUP1 SWAP3 SWAP2 SWAP1 PUSH2 0xC5B SWAP1 PUSH2 0x3D02 JUMP JUMPDEST SWAP2 SWAP1 POP SSTORE POP POP POP POP POP POP POP POP POP JUMP JUMPDEST PUSH1 0x40 MLOAD DUP1 PUSH1 0xE0 ADD PUSH1 0x40 MSTORE DUP1 PUSH1 0x5 SLOAD DUP2 MSTORE PUSH1 0x20 ADD DUP8 DUP2 MSTORE PUSH1 0x20 ADD DUP7 DUP2 MSTORE PUSH1 0x20 ADD DUP6 DUP2 MSTORE PUSH1 0x20 ADD DUP5 DUP2 MSTORE PUSH1 0x20 ADD DUP4 DUP2 MSTORE PUSH1 0x20 ADD DUP3 DUP2 MSTORE POP PUSH1 0x10 PUSH1 0x0 PUSH1 0x5 SLOAD DUP2 MSTORE PUSH1 0x20 ADD SWAP1 DUP2 MSTORE PUSH1 0x20 ADD PUSH1 0x0 KECCAK256 PUSH1 0x0 DUP3 ADD MLOAD DUP2 PUSH1 0x0 ADD SSTORE PUSH1 0x20 DUP3 ADD MLOAD DUP2 PUSH1 0x1 ADD SSTORE PUSH1 0x40 DUP3 ADD MLOAD DUP2 PUSH1 0x2 ADD SSTORE PUSH1 0x60 DUP3 ADD MLOAD DUP2 PUSH1 0x3 ADD SSTORE PUSH1 0x80 DUP3 ADD MLOAD DUP2 PUSH1 0x4 ADD SSTORE PUSH1 0xA0 DUP3 ADD MLOAD DUP2 PUSH1 0x5 ADD SSTORE PUSH1 0xC0 DUP3 ADD MLOAD DUP2 PUSH1 0x6 ADD SWAP1 DUP1 MLOAD SWAP1 PUSH1 0x20 ADD SWAP1 PUSH2 0xD0C SWAP3 SWAP2 SWAP1 PUSH2 0x2BB9 JUMP JUMPDEST POP SWAP1 POP POP PUSH1 0x5 PUSH1 0x0 DUP2 SLOAD DUP1 SWAP3 SWAP2 SWAP1 PUSH2 0xD23 SWAP1 PUSH2 0x3D02 JUMP JUMPDEST SWAP2 SWAP1 POP SSTORE POP POP POP POP POP POP POP JUMP JUMPDEST PUSH1 0x40 MLOAD DUP1 PUSH2 0x120 ADD PUSH1 0x40 MSTORE DUP1 PUSH1 0x2 SLOAD DUP2 MSTORE PUSH1 0x20 ADD DUP9 DUP2 MSTORE PUSH1 0x20 ADD DUP8 DUP2 MSTORE PUSH1 0x20 ADD DUP7 DUP2 MSTORE PUSH1 0x20 ADD DUP6 DUP2 MSTORE PUSH1 0x20 ADD DUP5 DUP2 MSTORE PUSH1 0x20 ADD DUP4 DUP2 MSTORE PUSH1 0x20 ADD DUP3 DUP2 MSTORE PUSH1 0x20 ADD PUSH1 0x0 DUP2 MSTORE POP PUSH1 0xB PUSH1 0x0 PUSH1 0x2 SLOAD DUP2 MSTORE PUSH1 0x20 ADD SWAP1 DUP2 MSTORE PUSH1 0x20 ADD PUSH1 0x0 KECCAK256 PUSH1 0x0 DUP3 ADD MLOAD DUP2 PUSH1 0x0 ADD SSTORE PUSH1 0x20 DUP3 ADD MLOAD DUP2 PUSH1 0x1 ADD SSTORE PUSH1 0x40 DUP3 ADD MLOAD DUP2 PUSH1 0x2 ADD SSTORE PUSH1 0x60 DUP3 ADD MLOAD DUP2 PUSH1 0x3 ADD SWAP1 DUP1 MLOAD SWAP1 PUSH1 0x20 ADD SWAP1 PUSH2 0xDC2 SWAP3 SWAP2 SWAP1 PUSH2 0x2BB9 JUMP JUMPDEST POP PUSH1 0x80 DUP3 ADD MLOAD DUP2 PUSH1 0x4 ADD SWAP1 DUP1 MLOAD SWAP1 PUSH1 0x20 ADD SWAP1 PUSH2 0xDDF SWAP3 SWAP2 SWAP1 PUSH2 0x2BB9 JUMP JUMPDEST POP PUSH1 0xA0 DUP3 ADD MLOAD DUP2 PUSH1 0x5 ADD SWAP1 DUP1 MLOAD SWAP1 PUSH1 0x20 ADD SWAP1 PUSH2 0xDFC SWAP3 SWAP2 SWAP1 PUSH2 0x2BB9 JUMP JUMPDEST POP PUSH1 0xC0 DUP3 ADD MLOAD DUP2 PUSH1 0x6 ADD SWAP1 DUP1 MLOAD SWAP1 PUSH1 0x20 ADD SWAP1 PUSH2 0xE19 SWAP3 SWAP2 SWAP1 PUSH2 0x2BB9 JUMP JUMPDEST POP PUSH1 0xE0 DUP3 ADD MLOAD DUP2 PUSH1 0x7 ADD SSTORE PUSH2 0x100 DUP3 ADD MLOAD DUP2 PUSH1 0x8 ADD SSTORE SWAP1 POP POP PUSH1 0x2 PUSH1 0x0 DUP2 SLOAD DUP1 SWAP3 SWAP2 SWAP1 PUSH2 0xE45 SWAP1 PUSH2 0x3D02 JUMP JUMPDEST SWAP2 SWAP1 POP SSTORE POP POP POP POP POP POP POP POP JUMP JUMPDEST DUP3 PUSH1 0x9 PUSH1 0x0 DUP7 DUP2 MSTORE PUSH1 0x20 ADD SWAP1 DUP2 MSTORE PUSH1 0x20 ADD PUSH1 0x0 KECCAK256 PUSH1 0x2 ADD SWAP1 DUP1 MLOAD SWAP1 PUSH1 0x20 ADD SWAP1 PUSH2 0xE7D SWAP3 SWAP2 SWAP1 PUSH2 0x2BB9 JUMP JUMPDEST POP DUP2 PUSH1 0x9 PUSH1 0x0 DUP7 DUP2 MSTORE PUSH1 0x20 ADD SWAP1 DUP2 MSTORE PUSH1 0x20 ADD PUSH1 0x0 KECCAK256 PUSH1 0x3 ADD DUP2 SWAP1 SSTORE POP DUP1 PUSH1 0x9 PUSH1 0x0 DUP7 DUP2 MSTORE PUSH1 0x20 ADD SWAP1 DUP2 MSTORE PUSH1 0x20 ADD PUSH1 0x0 KECCAK256 PUSH1 0x4 ADD DUP2 SWAP1 SSTORE POP POP POP POP POP JUMP JUMPDEST PUSH1 0x40 MLOAD DUP1 PUSH1 0xC0 ADD PUSH1 0x40 MSTORE DUP1 PUSH1 0x0 SLOAD DUP2 MSTORE PUSH1 0x20 ADD DUP5 DUP2 MSTORE PUSH1 0x20 ADD DUP4 DUP2 MSTORE PUSH1 0x20 ADD DUP3 DUP2 MSTORE PUSH1 0x20 ADD PUSH1 0x40 MLOAD DUP1 PUSH1 0x60 ADD PUSH1 0x40 MSTORE DUP1 PUSH1 0x28 DUP2 MSTORE PUSH1 0x20 ADD PUSH2 0x3E73 PUSH1 0x28 SWAP2 CODECOPY DUP2 MSTORE PUSH1 0x20 ADD PUSH1 0x0 DUP2 MSTORE POP PUSH1 0x7 PUSH1 0x0 DUP1 SLOAD DUP2 MSTORE PUSH1 0x20 ADD SWAP1 DUP2 MSTORE PUSH1 0x20 ADD PUSH1 0x0 KECCAK256 PUSH1 0x0 DUP3 ADD MLOAD DUP2 PUSH1 0x0 ADD SSTORE PUSH1 0x20 DUP3 ADD MLOAD DUP2 PUSH1 0x1 ADD SWAP1 DUP1 MLOAD SWAP1 PUSH1 0x20 ADD SWAP1 PUSH2 0xF3C SWAP3 SWAP2 SWAP1 PUSH2 0x2BB9 JUMP JUMPDEST POP PUSH1 0x40 DUP3 ADD MLOAD DUP2 PUSH1 0x2 ADD SWAP1 DUP1 MLOAD SWAP1 PUSH1 0x20 ADD SWAP1 PUSH2 0xF59 SWAP3 SWAP2 SWAP1 PUSH2 0x2BB9 JUMP JUMPDEST POP PUSH1 0x60 DUP3 ADD MLOAD DUP2 PUSH1 0x3 ADD SWAP1 DUP1 MLOAD SWAP1 PUSH1 0x20 ADD SWAP1 PUSH2 0xF76 SWAP3 SWAP2 SWAP1 PUSH2 0x2BB9 JUMP JUMPDEST POP PUSH1 0x80 DUP3 ADD MLOAD DUP2 PUSH1 0x4 ADD SWAP1 DUP1 MLOAD SWAP1 PUSH1 0x20 ADD SWAP1 PUSH2 0xF93 SWAP3 SWAP2 SWAP1 PUSH2 0x2BB9 JUMP JUMPDEST POP PUSH1 0xA0 DUP3 ADD MLOAD DUP2 PUSH1 0x5 ADD SSTORE SWAP1 POP POP PUSH1 0x0 DUP1 DUP2 SLOAD DUP1 SWAP3 SWAP2 SWAP1 PUSH2 0xFB3 SWAP1 PUSH2 0x3D02 JUMP JUMPDEST SWAP2 SWAP1 POP SSTORE POP POP POP POP JUMP JUMPDEST PUSH1 0x60 PUSH1 0x0 DUP1 JUMPDEST PUSH1 0x6 SLOAD DUP2 LT ISZERO PUSH2 0x100D JUMPI DUP4 PUSH1 0x11 PUSH1 0x0 DUP4 DUP2 MSTORE PUSH1 0x20 ADD SWAP1 DUP2 MSTORE PUSH1 0x20 ADD PUSH1 0x0 KECCAK256 PUSH1 0x2 ADD SLOAD EQ ISZERO PUSH2 0xFFA JUMPI DUP2 DUP1 PUSH2 0xFF6 SWAP1 PUSH2 0x3D02 JUMP JUMPDEST SWAP3 POP POP JUMPDEST DUP1 DUP1 PUSH2 0x1005 SWAP1 PUSH2 0x3D02 JUMP JUMPDEST SWAP2 POP POP PUSH2 0xFC3 JUMP JUMPDEST POP PUSH1 0x0 DUP2 PUSH8 0xFFFFFFFFFFFFFFFF DUP2 GT ISZERO PUSH2 0x102A JUMPI PUSH2 0x1029 PUSH2 0x3E07 JUMP JUMPDEST JUMPDEST PUSH1 0x40 MLOAD SWAP1 DUP1 DUP3 MSTORE DUP1 PUSH1 0x20 MUL PUSH1 0x20 ADD DUP3 ADD PUSH1 0x40 MSTORE DUP1 ISZERO PUSH2 0x1058 JUMPI DUP2 PUSH1 0x20 ADD PUSH1 0x20 DUP3 MUL DUP1 CALLDATASIZE DUP4 CALLDATACOPY DUP1 DUP3 ADD SWAP2 POP POP SWAP1 POP JUMPDEST POP SWAP1 POP PUSH1 0x0 DUP1 JUMPDEST PUSH1 0x6 SLOAD DUP2 LT ISZERO PUSH2 0x10C9 JUMPI DUP6 PUSH1 0x11 PUSH1 0x0 DUP4 DUP2 MSTORE PUSH1 0x20 ADD SWAP1 DUP2 MSTORE PUSH1 0x20 ADD PUSH1 0x0 KECCAK256 PUSH1 0x2 ADD SLOAD EQ ISZERO PUSH2 0x10B6 JUMPI DUP1 DUP4 DUP4 DUP2 MLOAD DUP2 LT PUSH2 0x109B JUMPI PUSH2 0x109A PUSH2 0x3DD8 JUMP JUMPDEST JUMPDEST PUSH1 0x20 MUL PUSH1 0x20 ADD ADD DUP2 DUP2 MSTORE POP POP DUP2 DUP1 PUSH2 0x10B2 SWAP1 PUSH2 0x3D02 JUMP JUMPDEST SWAP3 POP POP JUMPDEST DUP1 DUP1 PUSH2 0x10C1 SWAP1 PUSH2 0x3D02 JUMP JUMPDEST SWAP2 POP POP PUSH2 0x105F JUMP JUMPDEST POP DUP2 SWAP4 POP POP POP POP SWAP2 SWAP1 POP JUMP JUMPDEST PUSH1 0x40 MLOAD DUP1 PUSH1 0x40 ADD PUSH1 0x40 MSTORE DUP1 DUP4 DUP2 MSTORE PUSH1 0x20 ADD DUP3 DUP2 MSTORE POP PUSH1 0xC PUSH1 0x0 PUSH1 0x3 SLOAD DUP2 MSTORE PUSH1 0x20 ADD SWAP1 DUP2 MSTORE PUSH1 0x20 ADD PUSH1 0x0 KECCAK256 PUSH1 0x0 DUP3 ADD MLOAD DUP2 PUSH1 0x0 ADD SWAP1 DUP1 MLOAD SWAP1 PUSH1 0x20 ADD SWAP1 PUSH2 0x111B SWAP3 SWAP2 SWAP1 PUSH2 0x2BB9 JUMP JUMPDEST POP PUSH1 0x20 DUP3 ADD MLOAD DUP2 PUSH1 0x1 ADD SWAP1 DUP1 MLOAD SWAP1 PUSH1 0x20 ADD SWAP1 PUSH2 0x1138 SWAP3 SWAP2 SWAP1 PUSH2 0x2BB9 JUMP JUMPDEST POP SWAP1 POP POP PUSH1 0x3 PUSH1 0x0 DUP2 SLOAD DUP1 SWAP3 SWAP2 SWAP1 PUSH2 0x114F SWAP1 PUSH2 0x3D02 JUMP JUMPDEST SWAP2 SWAP1 POP SSTORE POP POP POP JUMP JUMPDEST DUP4 PUSH1 0x8 PUSH1 0x0 DUP8 DUP2 MSTORE PUSH1 0x20 ADD SWAP1 DUP2 MSTORE PUSH1 0x20 ADD PUSH1 0x0 KECCAK256 PUSH1 0x2 ADD SWAP1 DUP1 MLOAD SWAP1 PUSH1 0x20 ADD SWAP1 PUSH2 0x1182 SWAP3 SWAP2 SWAP1 PUSH2 0x2BB9 JUMP JUMPDEST POP DUP3 PUSH1 0x8 PUSH1 0x0 DUP8 DUP2 MSTORE PUSH1 0x20 ADD SWAP1 DUP2 MSTORE PUSH1 0x20 ADD PUSH1 0x0 KECCAK256 PUSH1 0x3 ADD SWAP1 DUP1 MLOAD SWAP1 PUSH1 0x20 ADD SWAP1 PUSH2 0x11AD SWAP3 SWAP2 SWAP1 PUSH2 0x2BB9 JUMP JUMPDEST POP DUP2 PUSH1 0x8 PUSH1 0x0 DUP8 DUP2 MSTORE PUSH1 0x20 ADD SWAP1 DUP2 MSTORE PUSH1 0x20 ADD PUSH1 0x0 KECCAK256 PUSH1 0x4 ADD SWAP1 DUP1 MLOAD SWAP1 PUSH1 0x20 ADD SWAP1 PUSH2 0x11D8 SWAP3 SWAP2 SWAP1 PUSH2 0x2BB9 JUMP JUMPDEST POP DUP1 PUSH1 0x8 PUSH1 0x0 DUP8 DUP2 MSTORE PUSH1 0x20 ADD SWAP1 DUP2 MSTORE PUSH1 0x20 ADD PUSH1 0x0 KECCAK256 PUSH1 0x7 ADD DUP2 SWAP1 SSTORE POP POP POP POP POP POP JUMP JUMPDEST DUP4 PUSH1 0xB PUSH1 0x0 DUP8 DUP2 MSTORE PUSH1 0x20 ADD SWAP1 DUP2 MSTORE PUSH1 0x20 ADD PUSH1 0x0 KECCAK256 PUSH1 0x3 ADD SWAP1 DUP1 MLOAD SWAP1 PUSH1 0x20 ADD SWAP1 PUSH2 0x1225 SWAP3 SWAP2 SWAP1 PUSH2 0x2BB9 JUMP JUMPDEST POP DUP3 PUSH1 0xB PUSH1 0x0 DUP8 DUP2 MSTORE PUSH1 0x20 ADD SWAP1 DUP2 MSTORE PUSH1 0x20 ADD PUSH1 0x0 KECCAK256 PUSH1 0x4 ADD SWAP1 DUP1 MLOAD SWAP1 PUSH1 0x20 ADD SWAP1 PUSH2 0x1250 SWAP3 SWAP2 SWAP1 PUSH2 0x2BB9 JUMP JUMPDEST POP DUP2 PUSH1 0xB PUSH1 0x0 DUP8 DUP2 MSTORE PUSH1 0x20 ADD SWAP1 DUP2 MSTORE PUSH1 0x20 ADD PUSH1 0x0 KECCAK256 PUSH1 0x6 ADD SWAP1 DUP1 MLOAD SWAP1 PUSH1 0x20 ADD SWAP1 PUSH2 0x127B SWAP3 SWAP2 SWAP1 PUSH2 0x2BB9 JUMP JUMPDEST POP DUP1 PUSH1 0xB PUSH1 0x0 DUP8 DUP2 MSTORE PUSH1 0x20 ADD SWAP1 DUP2 MSTORE PUSH1 0x20 ADD PUSH1 0x0 KECCAK256 PUSH1 0x7 ADD DUP2 SWAP1 SSTORE POP POP POP POP POP POP JUMP JUMPDEST DUP1 PUSH1 0xD PUSH1 0x0 DUP5 DUP2 MSTORE PUSH1 0x20 ADD SWAP1 DUP2 MSTORE PUSH1 0x20 ADD PUSH1 0x0 KECCAK256 SWAP1 DUP1 MLOAD SWAP1 PUSH1 0x20 ADD SWAP1 PUSH2 0x12C5 SWAP3 SWAP2 SWAP1 PUSH2 0x2BB9 JUMP JUMPDEST POP POP POP JUMP JUMPDEST PUSH1 0x60 PUSH1 0x0 DUP1 JUMPDEST PUSH1 0x2 SLOAD DUP2 LT ISZERO PUSH2 0x131A JUMPI DUP4 PUSH1 0xB PUSH1 0x0 DUP4 DUP2 MSTORE PUSH1 0x20 ADD SWAP1 DUP2 MSTORE PUSH1 0x20 ADD PUSH1 0x0 KECCAK256 PUSH1 0x1 ADD SLOAD EQ ISZERO PUSH2 0x1307 JUMPI DUP2 DUP1 PUSH2 0x1303 SWAP1 PUSH2 0x3D02 JUMP JUMPDEST SWAP3 POP POP JUMPDEST DUP1 DUP1 PUSH2 0x1312 SWAP1 PUSH2 0x3D02 JUMP JUMPDEST SWAP2 POP POP PUSH2 0x12D0 JUMP JUMPDEST POP PUSH1 0x0 DUP2 PUSH8 0xFFFFFFFFFFFFFFFF DUP2 GT ISZERO PUSH2 0x1337 JUMPI PUSH2 0x1336 PUSH2 0x3E07 JUMP JUMPDEST JUMPDEST PUSH1 0x40 MLOAD SWAP1 DUP1 DUP3 MSTORE DUP1 PUSH1 0x20 MUL PUSH1 0x20 ADD DUP3 ADD PUSH1 0x40 MSTORE DUP1 ISZERO PUSH2 0x1365 JUMPI DUP2 PUSH1 0x20 ADD PUSH1 0x20 DUP3 MUL DUP1 CALLDATASIZE DUP4 CALLDATACOPY DUP1 DUP3 ADD SWAP2 POP POP SWAP1 POP JUMPDEST POP SWAP1 POP PUSH1 0x0 DUP1 JUMPDEST PUSH1 0x2 SLOAD DUP2 LT ISZERO PUSH2 0x13D6 JUMPI DUP6 PUSH1 0xB PUSH1 0x0 DUP4 DUP2 MSTORE PUSH1 0x20 ADD SWAP1 DUP2 MSTORE PUSH1 0x20 ADD PUSH1 0x0 KECCAK256 PUSH1 0x1 ADD SLOAD EQ ISZERO PUSH2 0x13C3 JUMPI DUP1 DUP4 DUP4 DUP2 MLOAD DUP2 LT PUSH2 0x13A8 JUMPI PUSH2 0x13A7 PUSH2 0x3DD8 JUMP JUMPDEST JUMPDEST PUSH1 0x20 MUL PUSH1 0x20 ADD ADD DUP2 DUP2 MSTORE POP POP DUP2 DUP1 PUSH2 0x13BF SWAP1 PUSH2 0x3D02 JUMP JUMPDEST SWAP3 POP POP JUMPDEST DUP1 DUP1 PUSH2 0x13CE SWAP1 PUSH2 0x3D02 JUMP JUMPDEST SWAP2 POP POP PUSH2 0x136C JUMP JUMPDEST POP DUP2 SWAP4 POP POP POP POP SWAP2 SWAP1 POP JUMP JUMPDEST PUSH1 0x40 MLOAD DUP1 PUSH1 0xA0 ADD PUSH1 0x40 MSTORE DUP1 PUSH1 0x6 SLOAD DUP2 MSTORE PUSH1 0x20 ADD DUP3 DUP2 MSTORE PUSH1 0x20 ADD DUP5 DUP2 MSTORE PUSH1 0x20 ADD DUP6 DUP2 MSTORE PUSH1 0x20 ADD DUP4 DUP2 MSTORE POP PUSH1 0x11 PUSH1 0x0 PUSH1 0x6 SLOAD DUP2 MSTORE PUSH1 0x20 ADD SWAP1 DUP2 MSTORE PUSH1 0x20 ADD PUSH1 0x0 KECCAK256 PUSH1 0x0 DUP3 ADD MLOAD DUP2 PUSH1 0x0 ADD SSTORE PUSH1 0x20 DUP3 ADD MLOAD DUP2 PUSH1 0x1 ADD SSTORE PUSH1 0x40 DUP3 ADD MLOAD DUP2 PUSH1 0x2 ADD SSTORE PUSH1 0x60 DUP3 ADD MLOAD DUP2 PUSH1 0x3 ADD SSTORE PUSH1 0x80 DUP3 ADD MLOAD DUP2 PUSH1 0x4 ADD SWAP1 DUP1 MLOAD SWAP1 PUSH1 0x20 ADD SWAP1 PUSH2 0x1464 SWAP3 SWAP2 SWAP1 PUSH2 0x2BB9 JUMP JUMPDEST POP SWAP1 POP POP PUSH1 0x1 PUSH1 0xB PUSH1 0x0 DUP7 DUP2 MSTORE PUSH1 0x20 ADD SWAP1 DUP2 MSTORE PUSH1 0x20 ADD PUSH1 0x0 KECCAK256 PUSH1 0x8 ADD PUSH1 0x0 DUP3 DUP3 SLOAD PUSH2 0x148F SWAP2 SWAP1 PUSH2 0x3BCB JUMP JUMPDEST SWAP3 POP POP DUP2 SWAP1 SSTORE POP DUP2 PUSH1 0xB PUSH1 0x0 DUP7 DUP2 MSTORE PUSH1 0x20 ADD SWAP1 DUP2 MSTORE PUSH1 0x20 ADD PUSH1 0x0 KECCAK256 PUSH1 0x5 ADD SWAP1 DUP1 MLOAD SWAP1 PUSH1 0x20 ADD SWAP1 PUSH2 0x14C0 SWAP3 SWAP2 SWAP1 PUSH2 0x2BB9 JUMP JUMPDEST POP PUSH1 0x6 PUSH1 0x0 DUP2 SLOAD DUP1 SWAP3 SWAP2 SWAP1 PUSH2 0x14D4 SWAP1 PUSH2 0x3D02 JUMP JUMPDEST SWAP2 SWAP1 POP SSTORE POP POP POP POP POP JUMP JUMPDEST PUSH1 0x12 PUSH1 0x0 SWAP1 SLOAD SWAP1 PUSH2 0x100 EXP SWAP1 DIV PUSH20 0xFFFFFFFFFFFFFFFFFFFFFFFFFFFFFFFFFFFFFFFF AND DUP2 JUMP JUMPDEST PUSH1 0x60 PUSH1 0x0 JUMPDEST PUSH1 0x4 SLOAD DUP2 LT ISZERO PUSH2 0x156C JUMPI DUP3 PUSH1 0xF PUSH1 0x0 DUP4 DUP2 MSTORE PUSH1 0x20 ADD SWAP1 DUP2 MSTORE PUSH1 0x20 ADD PUSH1 0x0 KECCAK256 PUSH1 0x2 ADD SLOAD EQ ISZERO PUSH2 0x1559 JUMPI PUSH2 0x1551 PUSH1 0xF PUSH1 0x0 DUP4 DUP2 MSTORE PUSH1 0x20 ADD SWAP1 DUP2 MSTORE PUSH1 0x20 ADD PUSH1 0x0 KECCAK256 PUSH1 0x1 ADD SLOAD PUSH2 0x298E JUMP JUMPDEST SWAP2 POP POP PUSH2 0x15A6 JUMP JUMPDEST DUP1 DUP1 PUSH2 0x1564 SWAP1 PUSH2 0x3D02 JUMP JUMPDEST SWAP2 POP POP PUSH2 0x150A JUMP JUMPDEST POP PUSH1 0x40 MLOAD DUP1 PUSH1 0x40 ADD PUSH1 0x40 MSTORE DUP1 PUSH1 0x5 DUP2 MSTORE PUSH1 0x20 ADD PUSH32 0x46616C7365000000000000000000000000000000000000000000000000000000 DUP2 MSTORE POP SWAP1 POP JUMPDEST SWAP2 SWAP1 POP JUMP JUMPDEST PUSH1 0x11 PUSH1 0x20 MSTORE DUP1 PUSH1 0x0 MSTORE PUSH1 0x40 PUSH1 0x0 KECCAK256 PUSH1 0x0 SWAP2 POP SWAP1 POP DUP1 PUSH1 0x0 ADD SLOAD SWAP1 DUP1 PUSH1 0x1 ADD SLOAD SWAP1 DUP1 PUSH1 0x2 ADD SLOAD SWAP1 DUP1 PUSH1 0x3 ADD SLOAD SWAP1 DUP1 PUSH1 0x4 ADD DUP1 SLOAD PUSH2 0x15E6 SWAP1 PUSH2 0x3C9F JUMP JUMPDEST DUP1 PUSH1 0x1F ADD PUSH1 0x20 DUP1 SWAP2 DIV MUL PUSH1 0x20 ADD PUSH1 0x40 MLOAD SWAP1 DUP2 ADD PUSH1 0x40 MSTORE DUP1 SWAP3 SWAP2 SWAP1 DUP2 DUP2 MSTORE PUSH1 0x20 ADD DUP3 DUP1 SLOAD PUSH2 0x1612 SWAP1 PUSH2 0x3C9F JUMP JUMPDEST DUP1 ISZERO PUSH2 0x165F JUMPI DUP1 PUSH1 0x1F LT PUSH2 0x1634 JUMPI PUSH2 0x100 DUP1 DUP4 SLOAD DIV MUL DUP4 MSTORE SWAP2 PUSH1 0x20 ADD SWAP2 PUSH2 0x165F JUMP JUMPDEST DUP3 ADD SWAP2 SWAP1 PUSH1 0x0 MSTORE PUSH1 0x20 PUSH1 0x0 KECCAK256 SWAP1 JUMPDEST DUP2 SLOAD DUP2 MSTORE SWAP1 PUSH1 0x1 ADD SWAP1 PUSH1 0x20 ADD DUP1 DUP4 GT PUSH2 0x1642 JUMPI DUP3 SWAP1 SUB PUSH1 0x1F AND DUP3 ADD SWAP2 JUMPDEST POP POP POP POP POP SWAP1 POP DUP6 JUMP JUMPDEST PUSH1 0x40 MLOAD DUP1 PUSH1 0x80 ADD PUSH1 0x40 MSTORE DUP1 PUSH1 0x4 SLOAD DUP2 MSTORE PUSH1 0x20 ADD DUP5 DUP2 MSTORE PUSH1 0x20 ADD DUP4 DUP2 MSTORE PUSH1 0x20 ADD DUP3 DUP2 MSTORE POP PUSH1 0xF PUSH1 0x0 PUSH1 0x4 SLOAD DUP2 MSTORE PUSH1 0x20 ADD SWAP1 DUP2 MSTORE PUSH1 0x20 ADD PUSH1 0x0 KECCAK256 PUSH1 0x0 DUP3 ADD MLOAD DUP2 PUSH1 0x0 ADD SSTORE PUSH1 0x20 DUP3 ADD MLOAD DUP2 PUSH1 0x1 ADD SSTORE PUSH1 0x40 DUP3 ADD MLOAD DUP2 PUSH1 0x2 ADD SSTORE PUSH1 0x60 DUP3 ADD MLOAD DUP2 PUSH1 0x3 ADD SWAP1 DUP1 MLOAD SWAP1 PUSH1 0x20 ADD SWAP1 PUSH2 0x16DB SWAP3 SWAP2 SWAP1 PUSH2 0x2BB9 JUMP JUMPDEST POP SWAP1 POP POP PUSH1 0x1 PUSH1 0x8 PUSH1 0x0 DUP6 DUP2 MSTORE PUSH1 0x20 ADD SWAP1 DUP2 MSTORE PUSH1 0x20 ADD PUSH1 0x0 KECCAK256 PUSH1 0x5 ADD PUSH1 0x0 DUP3 DUP3 SLOAD PUSH2 0x1706 SWAP2 SWAP1 PUSH2 0x3BCB JUMP JUMPDEST SWAP3 POP POP DUP2 SWAP1 SSTORE POP PUSH1 0x4 PUSH1 0x0 DUP2 SLOAD DUP1 SWAP3 SWAP2 SWAP1 PUSH2 0x1720 SWAP1 PUSH2 0x3D02 JUMP JUMPDEST SWAP2 SWAP1 POP SSTORE POP POP POP POP JUMP JUMPDEST DUP4 PUSH1 0xE PUSH1 0x0 DUP7 DUP2 MSTORE PUSH1 0x20 ADD SWAP1 DUP2 MSTORE PUSH1 0x20 ADD PUSH1 0x0 KECCAK256 PUSH1 0x0 ADD DUP2 SWAP1 SSTORE POP DUP3 PUSH1 0xE PUSH1 0x0 DUP7 DUP2 MSTORE PUSH1 0x20 ADD SWAP1 DUP2 MSTORE PUSH1 0x20 ADD PUSH1 0x0 KECCAK256 PUSH1 0x1 ADD SWAP1 DUP1 MLOAD SWAP1 PUSH1 0x20 ADD SWAP1 PUSH2 0x176F SWAP3 SWAP2 SWAP1 PUSH2 0x2BB9 JUMP JUMPDEST POP DUP2 PUSH1 0xE PUSH1 0x0 DUP7 DUP2 MSTORE PUSH1 0x20 ADD SWAP1 DUP2 MSTORE PUSH1 0x20 ADD PUSH1 0x0 KECCAK256 PUSH1 0x2 ADD SWAP1 DUP1 MLOAD SWAP1 PUSH1 0x20 ADD SWAP1 PUSH2 0x179A SWAP3 SWAP2 SWAP1 PUSH2 0x2BB9 JUMP JUMPDEST POP DUP1 PUSH1 0xE PUSH1 0x0 DUP7 DUP2 MSTORE PUSH1 0x20 ADD SWAP1 DUP2 MSTORE PUSH1 0x20 ADD PUSH1 0x0 KECCAK256 PUSH1 0x3 ADD SWAP1 DUP1 MLOAD SWAP1 PUSH1 0x20 ADD SWAP1 PUSH2 0x17C5 SWAP3 SWAP2 SWAP1 PUSH2 0x2BB9 JUMP JUMPDEST POP POP POP POP POP JUMP JUMPDEST PUSH1 0x1 SLOAD DUP2 JUMP JUMPDEST DUP1 PUSH1 0xA PUSH1 0x0 DUP5 DUP2 MSTORE PUSH1 0x20 ADD SWAP1 DUP2 MSTORE PUSH1 0x20 ADD PUSH1 0x0 KECCAK256 SWAP1 DUP1 MLOAD SWAP1 PUSH1 0x20 ADD SWAP1 PUSH2 0x17F9 SWAP3 SWAP2 SWAP1 PUSH2 0x2BB9 JUMP JUMPDEST POP POP POP JUMP JUMPDEST PUSH1 0x0 JUMPDEST PUSH1 0x0 SLOAD DUP2 LT ISZERO PUSH2 0x1884 JUMPI PUSH1 0x7 PUSH1 0x0 DUP3 DUP2 MSTORE PUSH1 0x20 ADD SWAP1 DUP2 MSTORE PUSH1 0x20 ADD PUSH1 0x0 KECCAK256 PUSH1 0x0 DUP1 DUP3 ADD PUSH1 0x0 SWAP1 SSTORE PUSH1 0x1 DUP3 ADD PUSH1 0x0 PUSH2 0x1837 SWAP2 SWAP1 PUSH2 0x2C3F JUMP JUMPDEST PUSH1 0x2 DUP3 ADD PUSH1 0x0 PUSH2 0x1847 SWAP2 SWAP1 PUSH2 0x2C3F JUMP JUMPDEST PUSH1 0x3 DUP3 ADD PUSH1 0x0 PUSH2 0x1857 SWAP2 SWAP1 PUSH2 0x2C3F JUMP JUMPDEST PUSH1 0x4 DUP3 ADD PUSH1 0x0 PUSH2 0x1867 SWAP2 SWAP1 PUSH2 0x2C3F JUMP JUMPDEST PUSH1 0x5 DUP3 ADD PUSH1 0x0 SWAP1 SSTORE POP POP DUP1 DUP1 PUSH2 0x187C SWAP1 PUSH2 0x3D02 JUMP JUMPDEST SWAP2 POP POP PUSH2 0x1801 JUMP JUMPDEST POP PUSH1 0x0 JUMPDEST PUSH1 0x1 SLOAD DUP2 LT ISZERO PUSH2 0x1923 JUMPI PUSH1 0x8 PUSH1 0x0 DUP3 DUP2 MSTORE PUSH1 0x20 ADD SWAP1 DUP2 MSTORE PUSH1 0x20 ADD PUSH1 0x0 KECCAK256 PUSH1 0x0 DUP1 DUP3 ADD PUSH1 0x0 SWAP1 SSTORE PUSH1 0x1 DUP3 ADD PUSH1 0x0 SWAP1 SSTORE PUSH1 0x2 DUP3 ADD PUSH1 0x0 PUSH2 0x18C6 SWAP2 SWAP1 PUSH2 0x2C3F JUMP JUMPDEST PUSH1 0x3 DUP3 ADD PUSH1 0x0 PUSH2 0x18D6 SWAP2 SWAP1 PUSH2 0x2C3F JUMP JUMPDEST PUSH1 0x4 DUP3 ADD PUSH1 0x0 PUSH2 0x18E6 SWAP2 SWAP1 PUSH2 0x2C3F JUMP JUMPDEST PUSH1 0x5 DUP3 ADD PUSH1 0x0 SWAP1 SSTORE PUSH1 0x6 DUP3 ADD PUSH1 0x0 SWAP1 SSTORE PUSH1 0x7 DUP3 ADD PUSH1 0x0 SWAP1 SSTORE PUSH1 0x8 DUP3 ADD PUSH1 0x0 PUSH2 0x190E SWAP2 SWAP1 PUSH2 0x2C3F JUMP JUMPDEST POP POP DUP1 DUP1 PUSH2 0x191B SWAP1 PUSH2 0x3D02 JUMP JUMPDEST SWAP2 POP POP PUSH2 0x1888 JUMP JUMPDEST POP PUSH1 0x0 JUMPDEST PUSH1 0x1 SLOAD DUP2 LT ISZERO PUSH2 0x198A JUMPI PUSH1 0x9 PUSH1 0x0 DUP3 DUP2 MSTORE PUSH1 0x20 ADD SWAP1 DUP2 MSTORE PUSH1 0x20 ADD PUSH1 0x0 KECCAK256 PUSH1 0x0 DUP1 DUP3 ADD PUSH1 0x0 SWAP1 SSTORE PUSH1 0x1 DUP3 ADD PUSH1 0x0 SWAP1 SSTORE PUSH1 0x2 DUP3 ADD PUSH1 0x0 PUSH2 0x1965 SWAP2 SWAP1 PUSH2 0x2C3F JUMP JUMPDEST PUSH1 0x3 DUP3 ADD PUSH1 0x0 SWAP1 SSTORE PUSH1 0x4 DUP3 ADD PUSH1 0x0 SWAP1 SSTORE POP POP DUP1 DUP1 PUSH2 0x1982 SWAP1 PUSH2 0x3D02 JUMP JUMPDEST SWAP2 POP POP PUSH2 0x1927 JUMP JUMPDEST POP PUSH1 0x0 JUMPDEST PUSH1 0x1 SLOAD DUP2 LT ISZERO PUSH2 0x19CA JUMPI PUSH1 0xA PUSH1 0x0 DUP3 DUP2 MSTORE PUSH1 0x20 ADD SWAP1 DUP2 MSTORE PUSH1 0x20 ADD PUSH1 0x0 KECCAK256 PUSH1 0x0 PUSH2 0x19B7 SWAP2 SWAP1 PUSH2 0x2C3F JUMP JUMPDEST DUP1 DUP1 PUSH2 0x19C2 SWAP1 PUSH2 0x3D02 JUMP JUMPDEST SWAP2 POP POP PUSH2 0x198E JUMP JUMPDEST POP PUSH1 0x0 JUMPDEST PUSH1 0x2 SLOAD DUP2 LT ISZERO PUSH2 0x1A69 JUMPI PUSH1 0xB PUSH1 0x0 DUP3 DUP2 MSTORE PUSH1 0x20 ADD SWAP1 DUP2 MSTORE PUSH1 0x20 ADD PUSH1 0x0 KECCAK256 PUSH1 0x0 DUP1 DUP3 ADD PUSH1 0x0 SWAP1 SSTORE PUSH1 0x1 DUP3 ADD PUSH1 0x0 SWAP1 SSTORE PUSH1 0x2 DUP3 ADD PUSH1 0x0 SWAP1 SSTORE PUSH1 0x3 DUP3 ADD PUSH1 0x0 PUSH2 0x1A14 SWAP2 SWAP1 PUSH2 0x2C3F JUMP JUMPDEST PUSH1 0x4 DUP3 ADD PUSH1 0x0 PUSH2 0x1A24 SWAP2 SWAP1 PUSH2 0x2C3F JUMP JUMPDEST PUSH1 0x5 DUP3 ADD PUSH1 0x0 PUSH2 0x1A34 SWAP2 SWAP1 PUSH2 0x2C3F JUMP JUMPDEST PUSH1 0x6 DUP3 ADD PUSH1 0x0 PUSH2 0x1A44 SWAP2 SWAP1 PUSH2 0x2C3F JUMP JUMPDEST PUSH1 0x7 DUP3 ADD PUSH1 0x0 SWAP1 SSTORE PUSH1 0x8 DUP3 ADD PUSH1 0x0 SWAP1 SSTORE POP POP DUP1 DUP1 PUSH2 0x1A61 SWAP1 PUSH2 0x3D02 JUMP JUMPDEST SWAP2 POP POP PUSH2 0x19CE JUMP JUMPDEST POP PUSH1 0x0 JUMPDEST PUSH1 0x3 SLOAD DUP2 LT ISZERO PUSH2 0x1AC0 JUMPI PUSH1 0xC PUSH1 0x0 DUP3 DUP2 MSTORE PUSH1 0x20 ADD SWAP1 DUP2 MSTORE PUSH1 0x20 ADD PUSH1 0x0 KECCAK256 PUSH1 0x0 DUP1 DUP3 ADD PUSH1 0x0 PUSH2 0x1A9B SWAP2 SWAP1 PUSH2 0x2C3F JUMP JUMPDEST PUSH1 0x1 DUP3 ADD PUSH1 0x0 PUSH2 0x1AAB SWAP2 SWAP1 PUSH2 0x2C3F JUMP JUMPDEST POP POP DUP1 DUP1 PUSH2 0x1AB8 SWAP1 PUSH2 0x3D02 JUMP JUMPDEST SWAP2 POP POP PUSH2 0x1A6D JUMP JUMPDEST POP PUSH1 0x0 JUMPDEST PUSH1 0x1 SLOAD DUP2 LT ISZERO PUSH2 0x1B00 JUMPI PUSH1 0xD PUSH1 0x0 DUP3 DUP2 MSTORE PUSH1 0x20 ADD SWAP1 DUP2 MSTORE PUSH1 0x20 ADD PUSH1 0x0 KECCAK256 PUSH1 0x0 PUSH2 0x1AED SWAP2 SWAP1 PUSH2 0x2C3F JUMP JUMPDEST DUP1 DUP1 PUSH2 0x1AF8 SWAP1 PUSH2 0x3D02 JUMP JUMPDEST SWAP2 POP POP PUSH2 0x1AC4 JUMP JUMPDEST POP PUSH1 0x0 JUMPDEST PUSH1 0x0 SLOAD DUP2 LT ISZERO PUSH2 0x1B6F JUMPI PUSH1 0xE PUSH1 0x0 DUP3 DUP2 MSTORE PUSH1 0x20 ADD SWAP1 DUP2 MSTORE PUSH1 0x20 ADD PUSH1 0x0 KECCAK256 PUSH1 0x0 DUP1 DUP3 ADD PUSH1 0x0 SWAP1 SSTORE PUSH1 0x1 DUP3 ADD PUSH1 0x0 PUSH2 0x1B3A SWAP2 SWAP1 PUSH2 0x2C3F JUMP JUMPDEST PUSH1 0x2 DUP3 ADD PUSH1 0x0 PUSH2 0x1B4A SWAP2 SWAP1 PUSH2 0x2C3F JUMP JUMPDEST PUSH1 0x3 DUP3 ADD PUSH1 0x0 PUSH2 0x1B5A SWAP2 SWAP1 PUSH2 0x2C3F JUMP JUMPDEST POP POP DUP1 DUP1 PUSH2 0x1B67 SWAP1 PUSH2 0x3D02 JUMP JUMPDEST SWAP2 POP POP PUSH2 0x1B04 JUMP JUMPDEST POP PUSH1 0x0 JUMPDEST PUSH1 0x4 SLOAD DUP2 LT ISZERO PUSH2 0x1BCE JUMPI PUSH1 0xF PUSH1 0x0 DUP3 DUP2 MSTORE PUSH1 0x20 ADD SWAP1 DUP2 MSTORE PUSH1 0x20 ADD PUSH1 0x0 KECCAK256 PUSH1 0x0 DUP1 DUP3 ADD PUSH1 0x0 SWAP1 SSTORE PUSH1 0x1 DUP3 ADD PUSH1 0x0 SWAP1 SSTORE PUSH1 0x2 DUP3 ADD PUSH1 0x0 SWAP1 SSTORE PUSH1 0x3 DUP3 ADD PUSH1 0x0 PUSH2 0x1BB9 SWAP2 SWAP1 PUSH2 0x2C3F JUMP JUMPDEST POP POP DUP1 DUP1 PUSH2 0x1BC6 SWAP1 PUSH2 0x3D02 JUMP JUMPDEST SWAP2 POP POP PUSH2 0x1B73 JUMP JUMPDEST POP PUSH1 0x0 JUMPDEST PUSH1 0x5 SLOAD DUP2 LT ISZERO PUSH2 0x1C45 JUMPI PUSH1 0x10 PUSH1 0x0 DUP3 DUP2 MSTORE PUSH1 0x20 ADD SWAP1 DUP2 MSTORE PUSH1 0x20 ADD PUSH1 0x0 KECCAK256 PUSH1 0x0 DUP1 DUP3 ADD PUSH1 0x0 SWAP1 SSTORE PUSH1 0x1 DUP3 ADD PUSH1 0x0 SWAP1 SSTORE PUSH1 0x2 DUP3 ADD PUSH1 0x0 SWAP1 SSTORE PUSH1 0x3 DUP3 ADD PUSH1 0x0 SWAP1 SSTORE PUSH1 0x4 DUP3 ADD PUSH1 0x0 SWAP1 SSTORE PUSH1 0x5 DUP3 ADD PUSH1 0x0 SWAP1 SSTORE PUSH1 0x6 DUP3 ADD PUSH1 0x0 PUSH2 0x1C30 SWAP2 SWAP1 PUSH2 0x2C3F JUMP JUMPDEST POP POP DUP1 DUP1 PUSH2 0x1C3D SWAP1 PUSH2 0x3D02 JUMP JUMPDEST SWAP2 POP POP PUSH2 0x1BD2 JUMP JUMPDEST POP PUSH1 0x0 JUMPDEST PUSH1 0x6 SLOAD DUP2 LT ISZERO PUSH2 0x1CAC JUMPI PUSH1 0x11 PUSH1 0x0 DUP3 DUP2 MSTORE PUSH1 0x20 ADD SWAP1 DUP2 MSTORE PUSH1 0x20 ADD PUSH1 0x0 KECCAK256 PUSH1 0x0 DUP1 DUP3 ADD PUSH1 0x0 SWAP1 SSTORE PUSH1 0x1 DUP3 ADD PUSH1 0x0 SWAP1 SSTORE PUSH1 0x2 DUP3 ADD PUSH1 0x0 SWAP1 SSTORE PUSH1 0x3 DUP3 ADD PUSH1 0x0 SWAP1 SSTORE PUSH1 0x4 DUP3 ADD PUSH1 0x0 PUSH2 0x1C97 SWAP2 SWAP1 PUSH2 0x2C3F JUMP JUMPDEST POP POP DUP1 DUP1 PUSH2 0x1CA4 SWAP1 PUSH2 0x3D02 JUMP JUMPDEST SWAP2 POP POP PUSH2 0x1C49 JUMP JUMPDEST POP PUSH1 0x0 DUP1 DUP2 SWAP1 SSTORE POP PUSH1 0x0 PUSH1 0x1 DUP2 SWAP1 SSTORE POP PUSH1 0x0 PUSH1 0x2 DUP2 SWAP1 SSTORE POP PUSH1 0x0 PUSH1 0x3 DUP2 SWAP1 SSTORE POP PUSH1 0x0 PUSH1 0x4 DUP2 SWAP1 SSTORE POP PUSH1 0x0 PUSH1 0x5 DUP2 SWAP1 SSTORE POP PUSH1 0x0 PUSH1 0x6 DUP2 SWAP1 SSTORE POP JUMP JUMPDEST PUSH1 0x6 SLOAD DUP2 JUMP JUMPDEST PUSH1 0x8 PUSH1 0x20 MSTORE DUP1 PUSH1 0x0 MSTORE PUSH1 0x40 PUSH1 0x0 KECCAK256 PUSH1 0x0 SWAP2 POP SWAP1 POP DUP1 PUSH1 0x0 ADD SLOAD SWAP1 DUP1 PUSH1 0x1 ADD SLOAD SWAP1 DUP1 PUSH1 0x2 ADD DUP1 SLOAD PUSH2 0x1D1B SWAP1 PUSH2 0x3C9F JUMP JUMPDEST DUP1 PUSH1 0x1F ADD PUSH1 0x20 DUP1 SWAP2 DIV MUL PUSH1 0x20 ADD PUSH1 0x40 MLOAD SWAP1 DUP2 ADD PUSH1 0x40 MSTORE DUP1 SWAP3 SWAP2 SWAP1 DUP2 DUP2 MSTORE PUSH1 0x20 ADD DUP3 DUP1 SLOAD PUSH2 0x1D47 SWAP1 PUSH2 0x3C9F JUMP JUMPDEST DUP1 ISZERO PUSH2 0x1D94 JUMPI DUP1 PUSH1 0x1F LT PUSH2 0x1D69 JUMPI PUSH2 0x100 DUP1 DUP4 SLOAD DIV MUL DUP4 MSTORE SWAP2 PUSH1 0x20 ADD SWAP2 PUSH2 0x1D94 JUMP JUMPDEST DUP3 ADD SWAP2 SWAP1 PUSH1 0x0 MSTORE PUSH1 0x20 PUSH1 0x0 KECCAK256 SWAP1 JUMPDEST DUP2 SLOAD DUP2 MSTORE SWAP1 PUSH1 0x1 ADD SWAP1 PUSH1 0x20 ADD DUP1 DUP4 GT PUSH2 0x1D77 JUMPI DUP3 SWAP1 SUB PUSH1 0x1F AND DUP3 ADD SWAP2 JUMPDEST POP POP POP POP POP SWAP1 DUP1 PUSH1 0x3 ADD DUP1 SLOAD PUSH2 0x1DA9 SWAP1 PUSH2 0x3C9F JUMP JUMPDEST DUP1 PUSH1 0x1F ADD PUSH1 0x20 DUP1 SWAP2 DIV MUL PUSH1 0x20 ADD PUSH1 0x40 MLOAD SWAP1 DUP2 ADD PUSH1 0x40 MSTORE DUP1 SWAP3 SWAP2 SWAP1 DUP2 DUP2 MSTORE PUSH1 0x20 ADD DUP3 DUP1 SLOAD PUSH2 0x1DD5 SWAP1 PUSH2 0x3C9F JUMP JUMPDEST DUP1 ISZERO PUSH2 0x1E22 JUMPI DUP1 PUSH1 0x1F LT PUSH2 0x1DF7 JUMPI PUSH2 0x100 DUP1 DUP4 SLOAD DIV MUL DUP4 MSTORE SWAP2 PUSH1 0x20 ADD SWAP2 PUSH2 0x1E22 JUMP JUMPDEST DUP3 ADD SWAP2 SWAP1 PUSH1 0x0 MSTORE PUSH1 0x20 PUSH1 0x0 KECCAK256 SWAP1 JUMPDEST DUP2 SLOAD DUP2 MSTORE SWAP1 PUSH1 0x1 ADD SWAP1 PUSH1 0x20 ADD DUP1 DUP4 GT PUSH2 0x1E05 JUMPI DUP3 SWAP1 SUB PUSH1 0x1F AND DUP3 ADD SWAP2 JUMPDEST POP POP POP POP POP SWAP1 DUP1 PUSH1 0x4 ADD DUP1 SLOAD PUSH2 0x1E37 SWAP1 PUSH2 0x3C9F JUMP JUMPDEST DUP1 PUSH1 0x1F ADD PUSH1 0x20 DUP1 SWAP2 DIV MUL PUSH1 0x20 ADD PUSH1 0x40 MLOAD SWAP1 DUP2 ADD PUSH1 0x40 MSTORE DUP1 SWAP3 SWAP2 SWAP1 DUP2 DUP2 MSTORE PUSH1 0x20 ADD DUP3 DUP1 SLOAD PUSH2 0x1E63 SWAP1 PUSH2 0x3C9F JUMP JUMPDEST DUP1 ISZERO PUSH2 0x1EB0 JUMPI DUP1 PUSH1 0x1F LT PUSH2 0x1E85 JUMPI PUSH2 0x100 DUP1 DUP4 SLOAD DIV MUL DUP4 MSTORE SWAP2 PUSH1 0x20 ADD SWAP2 PUSH2 0x1EB0 JUMP JUMPDEST DUP3 ADD SWAP2 SWAP1 PUSH1 0x0 MSTORE PUSH1 0x20 PUSH1 0x0 KECCAK256 SWAP1 JUMPDEST DUP2 SLOAD DUP2 MSTORE SWAP1 PUSH1 0x1 ADD SWAP1 PUSH1 0x20 ADD DUP1 DUP4 GT PUSH2 0x1E93 JUMPI DUP3 SWAP1 SUB PUSH1 0x1F AND DUP3 ADD SWAP2 JUMPDEST POP POP POP POP POP SWAP1 DUP1 PUSH1 0x5 ADD SLOAD SWAP1 DUP1 PUSH1 0x6 ADD SLOAD SWAP1 DUP1 PUSH1 0x7 ADD SLOAD SWAP1 DUP1 PUSH1 0x8 ADD DUP1 SLOAD PUSH2 0x1ED7 SWAP1 PUSH2 0x3C9F JUMP JUMPDEST DUP1 PUSH1 0x1F ADD PUSH1 0x20 DUP1 SWAP2 DIV MUL PUSH1 0x20 ADD PUSH1 0x40 MLOAD SWAP1 DUP2 ADD PUSH1 0x40 MSTORE DUP1 SWAP3 SWAP2 SWAP1 DUP2 DUP2 MSTORE PUSH1 0x20 ADD DUP3 DUP1 SLOAD PUSH2 0x1F03 SWAP1 PUSH2 0x3C9F JUMP JUMPDEST DUP1 ISZERO PUSH2 0x1F50 JUMPI DUP1 PUSH1 0x1F LT PUSH2 0x1F25 JUMPI PUSH2 0x100 DUP1 DUP4 SLOAD DIV MUL DUP4 MSTORE SWAP2 PUSH1 0x20 ADD SWAP2 PUSH2 0x1F50 JUMP JUMPDEST DUP3 ADD SWAP2 SWAP1 PUSH1 0x0 MSTORE PUSH1 0x20 PUSH1 0x0 KECCAK256 SWAP1 JUMPDEST DUP2 SLOAD DUP2 MSTORE SWAP1 PUSH1 0x1 ADD SWAP1 PUSH1 0x20 ADD DUP1 DUP4 GT PUSH2 0x1F33 JUMPI DUP3 SWAP1 SUB PUSH1 0x1F AND DUP3 ADD SWAP2 JUMPDEST POP POP POP POP POP SWAP1 POP DUP10 JUMP JUMPDEST PUSH1 0x10 PUSH1 0x20 MSTORE DUP1 PUSH1 0x0 MSTORE PUSH1 0x40 PUSH1 0x0 KECCAK256 PUSH1 0x0 SWAP2 POP SWAP1 POP DUP1 PUSH1 0x0 ADD SLOAD SWAP1 DUP1 PUSH1 0x1 ADD SLOAD SWAP1 DUP1 PUSH1 0x2 ADD SLOAD SWAP1 DUP1 PUSH1 0x3 ADD SLOAD SWAP1 DUP1 PUSH1 0x4 ADD SLOAD SWAP1 DUP1 PUSH1 0x5 ADD SLOAD SWAP1 DUP1 PUSH1 0x6 ADD DUP1 SLOAD PUSH2 0x1FA1 SWAP1 PUSH2 0x3C9F JUMP JUMPDEST DUP1 PUSH1 0x1F ADD PUSH1 0x20 DUP1 SWAP2 DIV MUL PUSH1 0x20 ADD PUSH1 0x40 MLOAD SWAP1 DUP2 ADD PUSH1 0x40 MSTORE DUP1 SWAP3 SWAP2 SWAP1 DUP2 DUP2 MSTORE PUSH1 0x20 ADD DUP3 DUP1 SLOAD PUSH2 0x1FCD SWAP1 PUSH2 0x3C9F JUMP JUMPDEST DUP1 ISZERO PUSH2 0x201A JUMPI DUP1 PUSH1 0x1F LT PUSH2 0x1FEF JUMPI PUSH2 0x100 DUP1 DUP4 SLOAD DIV MUL DUP4 MSTORE SWAP2 PUSH1 0x20 ADD SWAP2 PUSH2 0x201A JUMP JUMPDEST DUP3 ADD SWAP2 SWAP1 PUSH1 0x0 MSTORE PUSH1 0x20 PUSH1 0x0 KECCAK256 SWAP1 JUMPDEST DUP2 SLOAD DUP2 MSTORE SWAP1 PUSH1 0x1 ADD SWAP1 PUSH1 0x20 ADD DUP1 DUP4 GT PUSH2 0x1FFD JUMPI DUP3 SWAP1 SUB PUSH1 0x1F AND DUP3 ADD SWAP2 JUMPDEST POP POP POP POP POP SWAP1 POP DUP8 JUMP JUMPDEST PUSH1 0x60 PUSH1 0x0 JUMPDEST PUSH1 0x0 SLOAD DUP2 LT ISZERO PUSH2 0x20CC JUMPI DUP4 DUP1 MLOAD SWAP1 PUSH1 0x20 ADD KECCAK256 PUSH1 0x7 PUSH1 0x0 DUP4 DUP2 MSTORE PUSH1 0x20 ADD SWAP1 DUP2 MSTORE PUSH1 0x20 ADD PUSH1 0x0 KECCAK256 PUSH1 0x2 ADD PUSH1 0x40 MLOAD PUSH2 0x205E SWAP2 SWAP1 PUSH2 0x36BC JUMP JUMPDEST PUSH1 0x40 MLOAD DUP1 SWAP2 SUB SWAP1 KECCAK256 EQ DUP1 ISZERO PUSH2 0x20A3 JUMPI POP DUP3 DUP1 MLOAD SWAP1 PUSH1 0x20 ADD KECCAK256 PUSH1 0x7 PUSH1 0x0 DUP4 DUP2 MSTORE PUSH1 0x20 ADD SWAP1 DUP2 MSTORE PUSH1 0x20 ADD PUSH1 0x0 KECCAK256 PUSH1 0x3 ADD PUSH1 0x40 MLOAD PUSH2 0x2099 SWAP2 SWAP1 PUSH2 0x36BC JUMP JUMPDEST PUSH1 0x40 MLOAD DUP1 SWAP2 SUB SWAP1 KECCAK256 EQ JUMPDEST ISZERO PUSH2 0x20B9 JUMPI PUSH2 0x20B1 DUP2 PUSH2 0x298E JUMP JUMPDEST SWAP2 POP POP PUSH2 0x2106 JUMP JUMPDEST DUP1 DUP1 PUSH2 0x20C4 SWAP1 PUSH2 0x3D02 JUMP JUMPDEST SWAP2 POP POP PUSH2 0x2029 JUMP JUMPDEST POP PUSH1 0x40 MLOAD DUP1 PUSH1 0x40 ADD PUSH1 0x40 MSTORE DUP1 PUSH1 0x5 DUP2 MSTORE PUSH1 0x20 ADD PUSH32 0x46616C7365000000000000000000000000000000000000000000000000000000 DUP2 MSTORE POP SWAP1 POP JUMPDEST SWAP3 SWAP2 POP POP JUMP JUMPDEST PUSH1 0x0 SLOAD DUP2 JUMP JUMPDEST PUSH1 0x9 PUSH1 0x20 MSTORE DUP1 PUSH1 0x0 MSTORE PUSH1 0x40 PUSH1 0x0 KECCAK256 PUSH1 0x0 SWAP2 POP SWAP1 POP DUP1 PUSH1 0x0 ADD SLOAD SWAP1 DUP1 PUSH1 0x1 ADD SLOAD SWAP1 DUP1 PUSH1 0x2 ADD DUP1 SLOAD PUSH2 0x2141 SWAP1 PUSH2 0x3C9F JUMP JUMPDEST DUP1 PUSH1 0x1F ADD PUSH1 0x20 DUP1 SWAP2 DIV MUL PUSH1 0x20 ADD PUSH1 0x40 MLOAD SWAP1 DUP2 ADD PUSH1 0x40 MSTORE DUP1 SWAP3 SWAP2 SWAP1 DUP2 DUP2 MSTORE PUSH1 0x20 ADD DUP3 DUP1 SLOAD PUSH2 0x216D SWAP1 PUSH2 0x3C9F JUMP JUMPDEST DUP1 ISZERO PUSH2 0x21BA JUMPI DUP1 PUSH1 0x1F LT PUSH2 0x218F JUMPI PUSH2 0x100 DUP1 DUP4 SLOAD DIV MUL DUP4 MSTORE SWAP2 PUSH1 0x20 ADD SWAP2 PUSH2 0x21BA JUMP JUMPDEST DUP3 ADD SWAP2 SWAP1 PUSH1 0x0 MSTORE PUSH1 0x20 PUSH1 0x0 KECCAK256 SWAP1 JUMPDEST DUP2 SLOAD DUP2 MSTORE SWAP1 PUSH1 0x1 ADD SWAP1 PUSH1 0x20 ADD DUP1 DUP4 GT PUSH2 0x219D JUMPI DUP3 SWAP1 SUB PUSH1 0x1F AND DUP3 ADD SWAP2 JUMPDEST POP POP POP POP POP SWAP1 DUP1 PUSH1 0x3 ADD SLOAD SWAP1 DUP1 PUSH1 0x4 ADD SLOAD SWAP1 POP DUP6 JUMP JUMPDEST PUSH1 0xB PUSH1 0x20 MSTORE DUP1 PUSH1 0x0 MSTORE PUSH1 0x40 PUSH1 0x0 KECCAK256 PUSH1 0x0 SWAP2 POP SWAP1 POP DUP1 PUSH1 0x0 ADD SLOAD SWAP1 DUP1 PUSH1 0x1 ADD SLOAD SWAP1 DUP1 PUSH1 0x2 ADD SLOAD SWAP1 DUP1 PUSH1 0x3 ADD DUP1 SLOAD PUSH2 0x2205 SWAP1 PUSH2 0x3C9F JUMP JUMPDEST DUP1 PUSH1 0x1F ADD PUSH1 0x20 DUP1 SWAP2 DIV MUL PUSH1 0x20 ADD PUSH1 0x40 MLOAD SWAP1 DUP2 ADD PUSH1 0x40 MSTORE DUP1 SWAP3 SWAP2 SWAP1 DUP2 DUP2 MSTORE PUSH1 0x20 ADD DUP3 DUP1 SLOAD PUSH2 0x2231 SWAP1 PUSH2 0x3C9F JUMP JUMPDEST DUP1 ISZERO PUSH2 0x227E JUMPI DUP1 PUSH1 0x1F LT PUSH2 0x2253 JUMPI PUSH2 0x100 DUP1 DUP4 SLOAD DIV MUL DUP4 MSTORE SWAP2 PUSH1 0x20 ADD SWAP2 PUSH2 0x227E JUMP JUMPDEST DUP3 ADD SWAP2 SWAP1 PUSH1 0x0 MSTORE PUSH1 0x20 PUSH1 0x0 KECCAK256 SWAP1 JUMPDEST DUP2 SLOAD DUP2 MSTORE SWAP1 PUSH1 0x1 ADD SWAP1 PUSH1 0x20 ADD DUP1 DUP4 GT PUSH2 0x2261 JUMPI DUP3 SWAP1 SUB PUSH1 0x1F AND DUP3 ADD SWAP2 JUMPDEST POP POP POP POP POP SWAP1 DUP1 PUSH1 0x4 ADD DUP1 SLOAD PUSH2 0x2293 SWAP1 PUSH2 0x3C9F JUMP JUMPDEST DUP1 PUSH1 0x1F ADD PUSH1 0x20 DUP1 SWAP2 DIV MUL PUSH1 0x20 ADD PUSH1 0x40 MLOAD SWAP1 DUP2 ADD PUSH1 0x40 MSTORE DUP1 SWAP3 SWAP2 SWAP1 DUP2 DUP2 MSTORE PUSH1 0x20 ADD DUP3 DUP1 SLOAD PUSH2 0x22BF SWAP1 PUSH2 0x3C9F JUMP JUMPDEST DUP1 ISZERO PUSH2 0x230C JUMPI DUP1 PUSH1 0x1F LT PUSH2 0x22E1 JUMPI PUSH2 0x100 DUP1 DUP4 SLOAD DIV MUL DUP4 MSTORE SWAP2 PUSH1 0x20 ADD SWAP2 PUSH2 0x230C JUMP JUMPDEST DUP3 ADD SWAP2 SWAP1 PUSH1 0x0 MSTORE PUSH1 0x20 PUSH1 0x0 KECCAK256 SWAP1 JUMPDEST DUP2 SLOAD DUP2 MSTORE SWAP1 PUSH1 0x1 ADD SWAP1 PUSH1 0x20 ADD DUP1 DUP4 GT PUSH2 0x22EF JUMPI DUP3 SWAP1 SUB PUSH1 0x1F AND DUP3 ADD SWAP2 JUMPDEST POP POP POP POP POP SWAP1 DUP1 PUSH1 0x5 ADD DUP1 SLOAD PUSH2 0x2321 SWAP1 PUSH2 0x3C9F JUMP JUMPDEST DUP1 PUSH1 0x1F ADD PUSH1 0x20 DUP1 SWAP2 DIV MUL PUSH1 0x20 ADD PUSH1 0x40 MLOAD SWAP1 DUP2 ADD PUSH1 0x40 MSTORE DUP1 SWAP3 SWAP2 SWAP1 DUP2 DUP2 MSTORE PUSH1 0x20 ADD DUP3 DUP1 SLOAD PUSH2 0x234D SWAP1 PUSH2 0x3C9F JUMP JUMPDEST DUP1 ISZERO PUSH2 0x239A JUMPI DUP1 PUSH1 0x1F LT PUSH2 0x236F JUMPI PUSH2 0x100 DUP1 DUP4 SLOAD DIV MUL DUP4 MSTORE SWAP2 PUSH1 0x20 ADD SWAP2 PUSH2 0x239A JUMP JUMPDEST DUP3 ADD SWAP2 SWAP1 PUSH1 0x0 MSTORE PUSH1 0x20 PUSH1 0x0 KECCAK256 SWAP1 JUMPDEST DUP2 SLOAD DUP2 MSTORE SWAP1 PUSH1 0x1 ADD SWAP1 PUSH1 0x20 ADD DUP1 DUP4 GT PUSH2 0x237D JUMPI DUP3 SWAP1 SUB PUSH1 0x1F AND DUP3 ADD SWAP2 JUMPDEST POP POP POP POP POP SWAP1 DUP1 PUSH1 0x6 ADD DUP1 SLOAD PUSH2 0x23AF SWAP1 PUSH2 0x3C9F JUMP JUMPDEST DUP1 PUSH1 0x1F ADD PUSH1 0x20 DUP1 SWAP2 DIV MUL PUSH1 0x20 ADD PUSH1 0x40 MLOAD SWAP1 DUP2 ADD PUSH1 0x40 MSTORE DUP1 SWAP3 SWAP2 SWAP1 DUP2 DUP2 MSTORE PUSH1 0x20 ADD DUP3 DUP1 SLOAD PUSH2 0x23DB SWAP1 PUSH2 0x3C9F JUMP JUMPDEST DUP1 ISZERO PUSH2 0x2428 JUMPI DUP1 PUSH1 0x1F LT PUSH2 0x23FD JUMPI PUSH2 0x100 DUP1 DUP4 SLOAD DIV MUL DUP4 MSTORE SWAP2 PUSH1 0x20 ADD SWAP2 PUSH2 0x2428 JUMP JUMPDEST DUP3 ADD SWAP2 SWAP1 PUSH1 0x0 MSTORE PUSH1 0x20 PUSH1 0x0 KECCAK256 SWAP1 JUMPDEST DUP2 SLOAD DUP2 MSTORE SWAP1 PUSH1 0x1 ADD SWAP1 PUSH1 0x20 ADD DUP1 DUP4 GT PUSH2 0x240B JUMPI DUP3 SWAP1 SUB PUSH1 0x1F AND DUP3 ADD SWAP2 JUMPDEST POP POP POP POP POP SWAP1 DUP1 PUSH1 0x7 ADD SLOAD SWAP1 DUP1 PUSH1 0x8 ADD SLOAD SWAP1 POP DUP10 JUMP JUMPDEST DUP2 PUSH1 0x7 PUSH1 0x0 DUP6 DUP2 MSTORE PUSH1 0x20 ADD SWAP1 DUP2 MSTORE PUSH1 0x20 ADD PUSH1 0x0 KECCAK256 PUSH1 0x4 ADD SWAP1 DUP1 MLOAD SWAP1 PUSH1 0x20 ADD SWAP1 PUSH2 0x2468 SWAP3 SWAP2 SWAP1 PUSH2 0x2BB9 JUMP JUMPDEST POP DUP1 PUSH1 0x7 PUSH1 0x0 DUP6 DUP2 MSTORE PUSH1 0x20 ADD SWAP1 DUP2 MSTORE PUSH1 0x20 ADD PUSH1 0x0 KECCAK256 PUSH1 0x5 ADD DUP2 SWAP1 SSTORE POP POP POP POP JUMP JUMPDEST PUSH1 0xD PUSH1 0x20 MSTORE DUP1 PUSH1 0x0 MSTORE PUSH1 0x40 PUSH1 0x0 KECCAK256 PUSH1 0x0 SWAP2 POP SWAP1 POP DUP1 SLOAD PUSH2 0x24A8 SWAP1 PUSH2 0x3C9F JUMP JUMPDEST DUP1 PUSH1 0x1F ADD PUSH1 0x20 DUP1 SWAP2 DIV MUL PUSH1 0x20 ADD PUSH1 0x40 MLOAD SWAP1 DUP2 ADD PUSH1 0x40 MSTORE DUP1 SWAP3 SWAP2 SWAP1 DUP2 DUP2 MSTORE PUSH1 0x20 ADD DUP3 DUP1 SLOAD PUSH2 0x24D4 SWAP1 PUSH2 0x3C9F JUMP JUMPDEST DUP1 ISZERO PUSH2 0x2521 JUMPI DUP1 PUSH1 0x1F LT PUSH2 0x24F6 JUMPI PUSH2 0x100 DUP1 DUP4 SLOAD DIV MUL DUP4 MSTORE SWAP2 PUSH1 0x20 ADD SWAP2 PUSH2 0x2521 JUMP JUMPDEST DUP3 ADD SWAP2 SWAP1 PUSH1 0x0 MSTORE PUSH1 0x20 PUSH1 0x0 KECCAK256 SWAP1 JUMPDEST DUP2 SLOAD DUP2 MSTORE SWAP1 PUSH1 0x1 ADD SWAP1 PUSH1 0x20 ADD DUP1 DUP4 GT PUSH2 0x2504 JUMPI DUP3 SWAP1 SUB PUSH1 0x1F AND DUP3 ADD SWAP2 JUMPDEST POP POP POP POP POP DUP2 JUMP JUMPDEST PUSH1 0x4 SLOAD DUP2 JUMP JUMPDEST PUSH1 0xE PUSH1 0x20 MSTORE DUP1 PUSH1 0x0 MSTORE PUSH1 0x40 PUSH1 0x0 KECCAK256 PUSH1 0x0 SWAP2 POP SWAP1 POP DUP1 PUSH1 0x0 ADD SLOAD SWAP1 DUP1 PUSH1 0x1 ADD DUP1 SLOAD PUSH2 0x2558 SWAP1 PUSH2 0x3C9F JUMP JUMPDEST DUP1 PUSH1 0x1F ADD PUSH1 0x20 DUP1 SWAP2 DIV MUL PUSH1 0x20 ADD PUSH1 0x40 MLOAD SWAP1 DUP2 ADD PUSH1 0x40 MSTORE DUP1 SWAP3 SWAP2 SWAP1 DUP2 DUP2 MSTORE PUSH1 0x20 ADD DUP3 DUP1 SLOAD PUSH2 0x2584 SWAP1 PUSH2 0x3C9F JUMP JUMPDEST DUP1 ISZERO PUSH2 0x25D1 JUMPI DUP1 PUSH1 0x1F LT PUSH2 0x25A6 JUMPI PUSH2 0x100 DUP1 DUP4 SLOAD DIV MUL DUP4 MSTORE SWAP2 PUSH1 0x20 ADD SWAP2 PUSH2 0x25D1 JUMP JUMPDEST DUP3 ADD SWAP2 SWAP1 PUSH1 0x0 MSTORE PUSH1 0x20 PUSH1 0x0 KECCAK256 SWAP1 JUMPDEST DUP2 SLOAD DUP2 MSTORE SWAP1 PUSH1 0x1 ADD SWAP1 PUSH1 0x20 ADD DUP1 DUP4 GT PUSH2 0x25B4 JUMPI DUP3 SWAP1 SUB PUSH1 0x1F AND DUP3 ADD SWAP2 JUMPDEST POP POP POP POP POP SWAP1 DUP1 PUSH1 0x2 ADD DUP1 SLOAD PUSH2 0x25E6 SWAP1 PUSH2 0x3C9F JUMP JUMPDEST DUP1 PUSH1 0x1F ADD PUSH1 0x20 DUP1 SWAP2 DIV MUL PUSH1 0x20 ADD PUSH1 0x40 MLOAD SWAP1 DUP2 ADD PUSH1 0x40 MSTORE DUP1 SWAP3 SWAP2 SWAP1 DUP2 DUP2 MSTORE PUSH1 0x20 ADD DUP3 DUP1 SLOAD PUSH2 0x2612 SWAP1 PUSH2 0x3C9F JUMP JUMPDEST DUP1 ISZERO PUSH2 0x265F JUMPI DUP1 PUSH1 0x1F LT PUSH2 0x2634 JUMPI PUSH2 0x100 DUP1 DUP4 SLOAD DIV MUL DUP4 MSTORE SWAP2 PUSH1 0x20 ADD SWAP2 PUSH2 0x265F JUMP JUMPDEST DUP3 ADD SWAP2 SWAP1 PUSH1 0x0 MSTORE PUSH1 0x20 PUSH1 0x0 KECCAK256 SWAP1 JUMPDEST DUP2 SLOAD DUP2 MSTORE SWAP1 PUSH1 0x1 ADD SWAP1 PUSH1 0x20 ADD DUP1 DUP4 GT PUSH2 0x2642 JUMPI DUP3 SWAP1 SUB PUSH1 0x1F AND DUP3 ADD SWAP2 JUMPDEST POP POP POP POP POP SWAP1 DUP1 PUSH1 0x3 ADD DUP1 SLOAD PUSH2 0x2674 SWAP1 PUSH2 0x3C9F JUMP JUMPDEST DUP1 PUSH1 0x1F ADD PUSH1 0x20 DUP1 SWAP2 DIV MUL PUSH1 0x20 ADD PUSH1 0x40 MLOAD SWAP1 DUP2 ADD PUSH1 0x40 MSTORE DUP1 SWAP3 SWAP2 SWAP1 DUP2 DUP2 MSTORE PUSH1 0x20 ADD DUP3 DUP1 SLOAD PUSH2 0x26A0 SWAP1 PUSH2 0x3C9F JUMP JUMPDEST DUP1 ISZERO PUSH2 0x26ED JUMPI DUP1 PUSH1 0x1F LT PUSH2 0x26C2 JUMPI PUSH2 0x100 DUP1 DUP4 SLOAD DIV MUL DUP4 MSTORE SWAP2 PUSH1 0x20 ADD SWAP2 PUSH2 0x26ED JUMP JUMPDEST DUP3 ADD SWAP2 SWAP1 PUSH1 0x0 MSTORE PUSH1 0x20 PUSH1 0x0 KECCAK256 SWAP1 JUMPDEST DUP2 SLOAD DUP2 MSTORE SWAP1 PUSH1 0x1 ADD SWAP1 PUSH1 0x20 ADD DUP1 DUP4 GT PUSH2 0x26D0 JUMPI DUP3 SWAP1 SUB PUSH1 0x1F AND DUP3 ADD SWAP2 JUMPDEST POP POP POP POP POP SWAP1 POP DUP5 JUMP JUMPDEST PUSH1 0xC PUSH1 0x20 MSTORE DUP1 PUSH1 0x0 MSTORE PUSH1 0x40 PUSH1 0x0 KECCAK256 PUSH1 0x0 SWAP2 POP SWAP1 POP DUP1 PUSH1 0x0 ADD DUP1 SLOAD PUSH2 0x271A SWAP1 PUSH2 0x3C9F JUMP JUMPDEST DUP1 PUSH1 0x1F ADD PUSH1 0x20 DUP1 SWAP2 DIV MUL PUSH1 0x20 ADD PUSH1 0x40 MLOAD SWAP1 DUP2 ADD PUSH1 0x40 MSTORE DUP1 SWAP3 SWAP2 SWAP1 DUP2 DUP2 MSTORE PUSH1 0x20 ADD DUP3 DUP1 SLOAD PUSH2 0x2746 SWAP1 PUSH2 0x3C9F JUMP JUMPDEST DUP1 ISZERO PUSH2 0x2793 JUMPI DUP1 PUSH1 0x1F LT PUSH2 0x2768 JUMPI PUSH2 0x100 DUP1 DUP4 SLOAD DIV MUL DUP4 MSTORE SWAP2 PUSH1 0x20 ADD SWAP2 PUSH2 0x2793 JUMP JUMPDEST DUP3 ADD SWAP2 SWAP1 PUSH1 0x0 MSTORE PUSH1 0x20 PUSH1 0x0 KECCAK256 SWAP1 JUMPDEST DUP2 SLOAD DUP2 MSTORE SWAP1 PUSH1 0x1 ADD SWAP1 PUSH1 0x20 ADD DUP1 DUP4 GT PUSH2 0x2776 JUMPI DUP3 SWAP1 SUB PUSH1 0x1F AND DUP3 ADD SWAP2 JUMPDEST POP POP POP POP POP SWAP1 DUP1 PUSH1 0x1 ADD DUP1 SLOAD PUSH2 0x27A8 SWAP1 PUSH2 0x3C9F JUMP JUMPDEST DUP1 PUSH1 0x1F ADD PUSH1 0x20 DUP1 SWAP2 DIV MUL PUSH1 0x20 ADD PUSH1 0x40 MLOAD SWAP1 DUP2 ADD PUSH1 0x40 MSTORE DUP1 SWAP3 SWAP2 SWAP1 DUP2 DUP2 MSTORE PUSH1 0x20 ADD DUP3 DUP1 SLOAD PUSH2 0x27D4 SWAP1 PUSH2 0x3C9F JUMP JUMPDEST DUP1 ISZERO PUSH2 0x2821 JUMPI DUP1 PUSH1 0x1F LT PUSH2 0x27F6 JUMPI PUSH2 0x100 DUP1 DUP4 SLOAD DIV MUL DUP4 MSTORE SWAP2 PUSH1 0x20 ADD SWAP2 PUSH2 0x2821 JUMP JUMPDEST DUP3 ADD SWAP2 SWAP1 PUSH1 0x0 MSTORE PUSH1 0x20 PUSH1 0x0 KECCAK256 SWAP1 JUMPDEST DUP2 SLOAD DUP2 MSTORE SWAP1 PUSH1 0x1 ADD SWAP1 PUSH1 0x20 ADD DUP1 DUP4 GT PUSH2 0x2804 JUMPI DUP3 SWAP1 SUB PUSH1 0x1F AND DUP3 ADD SWAP2 JUMPDEST POP POP POP POP POP SWAP1 POP DUP3 JUMP JUMPDEST PUSH1 0xF PUSH1 0x20 MSTORE DUP1 PUSH1 0x0 MSTORE PUSH1 0x40 PUSH1 0x0 KECCAK256 PUSH1 0x0 SWAP2 POP SWAP1 POP DUP1 PUSH1 0x0 ADD SLOAD SWAP1 DUP1 PUSH1 0x1 ADD SLOAD SWAP1 DUP1 PUSH1 0x2 ADD SLOAD SWAP1 DUP1 PUSH1 0x3 ADD DUP1 SLOAD PUSH2 0x2860 SWAP1 PUSH2 0x3C9F JUMP JUMPDEST DUP1 PUSH1 0x1F ADD PUSH1 0x20 DUP1 SWAP2 DIV MUL PUSH1 0x20 ADD PUSH1 0x40 MLOAD SWAP1 DUP2 ADD PUSH1 0x40 MSTORE DUP1 SWAP3 SWAP2 SWAP1 DUP2 DUP2 MSTORE PUSH1 0x20 ADD DUP3 DUP1 SLOAD PUSH2 0x288C SWAP1 PUSH2 0x3C9F JUMP JUMPDEST DUP1 ISZERO PUSH2 0x28D9 JUMPI DUP1 PUSH1 0x1F LT PUSH2 0x28AE JUMPI PUSH2 0x100 DUP1 DUP4 SLOAD DIV MUL DUP4 MSTORE SWAP2 PUSH1 0x20 ADD SWAP2 PUSH2 0x28D9 JUMP JUMPDEST DUP3 ADD SWAP2 SWAP1 PUSH1 0x0 MSTORE PUSH1 0x20 PUSH1 0x0 KECCAK256 SWAP1 JUMPDEST DUP2 SLOAD DUP2 MSTORE SWAP1 PUSH1 0x1 ADD SWAP1 PUSH1 0x20 ADD DUP1 DUP4 GT PUSH2 0x28BC JUMPI DUP3 SWAP1 SUB PUSH1 0x1F AND DUP3 ADD SWAP2 JUMPDEST POP POP POP POP POP SWAP1 POP DUP5 JUMP JUMPDEST PUSH1 0x60 PUSH1 0x0 JUMPDEST PUSH1 0x0 SLOAD DUP2 LT ISZERO PUSH2 0x294F JUMPI DUP3 DUP1 MLOAD SWAP1 PUSH1 0x20 ADD KECCAK256 PUSH1 0x7 PUSH1 0x0 DUP4 DUP2 MSTORE PUSH1 0x20 ADD SWAP1 DUP2 MSTORE PUSH1 0x20 ADD PUSH1 0x0 KECCAK256 PUSH1 0x2 ADD PUSH1 0x40 MLOAD PUSH2 0x291D SWAP2 SWAP1 PUSH2 0x36BC JUMP JUMPDEST PUSH1 0x40 MLOAD DUP1 SWAP2 SUB SWAP1 KECCAK256 EQ ISZERO PUSH2 0x293C JUMPI PUSH2 0x2934 DUP2 PUSH2 0x298E JUMP JUMPDEST SWAP2 POP POP PUSH2 0x2989 JUMP JUMPDEST DUP1 DUP1 PUSH2 0x2947 SWAP1 PUSH2 0x3D02 JUMP JUMPDEST SWAP2 POP POP PUSH2 0x28E8 JUMP JUMPDEST POP PUSH1 0x40 MLOAD DUP1 PUSH1 0x40 ADD PUSH1 0x40 MSTORE DUP1 PUSH1 0x5 DUP2 MSTORE PUSH1 0x20 ADD PUSH32 0x46616C7365000000000000000000000000000000000000000000000000000000 DUP2 MSTORE POP SWAP1 POP JUMPDEST SWAP2 SWAP1 POP JUMP JUMPDEST PUSH1 0x60 PUSH1 0x0 PUSH1 0x1 PUSH2 0x299D DUP5 PUSH2 0x2A66 JUMP JUMPDEST ADD SWAP1 POP PUSH1 0x0 DUP2 PUSH8 0xFFFFFFFFFFFFFFFF DUP2 GT ISZERO PUSH2 0x29BC JUMPI PUSH2 0x29BB PUSH2 0x3E07 JUMP JUMPDEST JUMPDEST PUSH1 0x40 MLOAD SWAP1 DUP1 DUP3 MSTORE DUP1 PUSH1 0x1F ADD PUSH1 0x1F NOT AND PUSH1 0x20 ADD DUP3 ADD PUSH1 0x40 MSTORE DUP1 ISZERO PUSH2 0x29EE JUMPI DUP2 PUSH1 0x20 ADD PUSH1 0x1 DUP3 MUL DUP1 CALLDATASIZE DUP4 CALLDATACOPY DUP1 DUP3 ADD SWAP2 POP POP SWAP1 POP JUMPDEST POP SWAP1 POP PUSH1 0x0 DUP3 PUSH1 0x20 ADD DUP3 ADD SWAP1 POP JUMPDEST PUSH1 0x1 ISZERO PUSH2 0x2A5B JUMPI DUP1 DUP1 PUSH1 0x1 SWAP1 SUB SWAP2 POP POP PUSH32 0x3031323334353637383961626364656600000000000000000000000000000000 PUSH1 0xA DUP7 MOD BYTE DUP2 MSTORE8 PUSH1 0xA DUP6 DUP2 PUSH2 0x2A45 JUMPI PUSH2 0x2A44 PUSH2 0x3D7A JUMP JUMPDEST JUMPDEST DIV SWAP5 POP PUSH1 0x0 DUP6 EQ ISZERO PUSH2 0x2A56 JUMPI PUSH2 0x2A5B JUMP JUMPDEST PUSH2 0x29FC JUMP JUMPDEST DUP2 SWAP4 POP POP POP POP SWAP2 SWAP1 POP JUMP JUMPDEST PUSH1 0x0 DUP1 PUSH1 0x0 SWAP1 POP PUSH27 0x184F03E93FF9F4DAA797ED6E38ED64BF6A1F010000000000000000 DUP4 LT PUSH2 0x2AC4 JUMPI PUSH27 0x184F03E93FF9F4DAA797ED6E38ED64BF6A1F010000000000000000 DUP4 DUP2 PUSH2 0x2ABA JUMPI PUSH2 0x2AB9 PUSH2 0x3D7A JUMP JUMPDEST JUMPDEST DIV SWAP3 POP PUSH1 0x40 DUP2 ADD SWAP1 POP JUMPDEST PUSH14 0x4EE2D6D415B85ACEF8100000000 DUP4 LT PUSH2 0x2B01 JUMPI PUSH14 0x4EE2D6D415B85ACEF8100000000 DUP4 DUP2 PUSH2 0x2AF7 JUMPI PUSH2 0x2AF6 PUSH2 0x3D7A JUMP JUMPDEST JUMPDEST DIV SWAP3 POP PUSH1 0x20 DUP2 ADD SWAP1 POP JUMPDEST PUSH7 0x2386F26FC10000 DUP4 LT PUSH2 0x2B30 JUMPI PUSH7 0x2386F26FC10000 DUP4 DUP2 PUSH2 0x2B26 JUMPI PUSH2 0x2B25 PUSH2 0x3D7A JUMP JUMPDEST JUMPDEST DIV SWAP3 POP PUSH1 0x10 DUP2 ADD SWAP1 POP JUMPDEST PUSH4 0x5F5E100 DUP4 LT PUSH2 0x2B59 JUMPI PUSH4 0x5F5E100 DUP4 DUP2 PUSH2 0x2B4F JUMPI PUSH2 0x2B4E PUSH2 0x3D7A JUMP JUMPDEST JUMPDEST DIV SWAP3 POP PUSH1 0x8 DUP2 ADD SWAP1 POP JUMPDEST PUSH2 0x2710 DUP4 LT PUSH2 0x2B7E JUMPI PUSH2 0x2710 DUP4 DUP2 PUSH2 0x2B74 JUMPI PUSH2 0x2B73 PUSH2 0x3D7A JUMP JUMPDEST JUMPDEST DIV SWAP3 POP PUSH1 0x4 DUP2 ADD SWAP1 POP JUMPDEST PUSH1 0x64 DUP4 LT PUSH2 0x2BA1 JUMPI PUSH1 0x64 DUP4 DUP2 PUSH2 0x2B97 JUMPI PUSH2 0x2B96 PUSH2 0x3D7A JUMP JUMPDEST JUMPDEST DIV SWAP3 POP PUSH1 0x2 DUP2 ADD SWAP1 POP JUMPDEST PUSH1 0xA DUP4 LT PUSH2 0x2BB0 JUMPI PUSH1 0x1 DUP2 ADD SWAP1 POP JUMPDEST DUP1 SWAP2 POP POP SWAP2 SWAP1 POP JUMP JUMPDEST DUP3 DUP1 SLOAD PUSH2 0x2BC5 SWAP1 PUSH2 0x3C9F JUMP JUMPDEST SWAP1 PUSH1 0x0 MSTORE PUSH1 0x20 PUSH1 0x0 KECCAK256 SWAP1 PUSH1 0x1F ADD PUSH1 0x20 SWAP1 DIV DUP2 ADD SWAP3 DUP3 PUSH2 0x2BE7 JUMPI PUSH1 0x0 DUP6 SSTORE PUSH2 0x2C2E JUMP JUMPDEST DUP3 PUSH1 0x1F LT PUSH2 0x2C00 JUMPI DUP1 MLOAD PUSH1 0xFF NOT AND DUP4 DUP1 ADD OR DUP6 SSTORE PUSH2 0x2C2E JUMP JUMPDEST DUP3 DUP1 ADD PUSH1 0x1 ADD DUP6 SSTORE DUP3 ISZERO PUSH2 0x2C2E JUMPI SWAP2 DUP3 ADD JUMPDEST DUP3 DUP2 GT ISZERO PUSH2 0x2C2D JUMPI DUP3 MLOAD DUP3 SSTORE SWAP2 PUSH1 0x20 ADD SWAP2 SWAP1 PUSH1 0x1 ADD SWAP1 PUSH2 0x2C12 JUMP JUMPDEST JUMPDEST POP SWAP1 POP PUSH2 0x2C3B SWAP2 SWAP1 PUSH2 0x2C7F JUMP JUMPDEST POP SWAP1 JUMP JUMPDEST POP DUP1 SLOAD PUSH2 0x2C4B SWAP1 PUSH2 0x3C9F JUMP JUMPDEST PUSH1 0x0 DUP3 SSTORE DUP1 PUSH1 0x1F LT PUSH2 0x2C5D JUMPI POP PUSH2 0x2C7C JUMP JUMPDEST PUSH1 0x1F ADD PUSH1 0x20 SWAP1 DIV SWAP1 PUSH1 0x0 MSTORE PUSH1 0x20 PUSH1 0x0 KECCAK256 SWAP1 DUP2 ADD SWAP1 PUSH2 0x2C7B SWAP2 SWAP1 PUSH2 0x2C7F JUMP JUMPDEST JUMPDEST POP JUMP JUMPDEST JUMPDEST DUP1 DUP3 GT ISZERO PUSH2 0x2C98 JUMPI PUSH1 0x0 DUP2 PUSH1 0x0 SWAP1 SSTORE POP PUSH1 0x1 ADD PUSH2 0x2C80 JUMP JUMPDEST POP SWAP1 JUMP JUMPDEST PUSH1 0x0 PUSH2 0x2CAF PUSH2 0x2CAA DUP5 PUSH2 0x3B25 JUMP JUMPDEST PUSH2 0x3B00 JUMP JUMPDEST SWAP1 POP DUP3 DUP2 MSTORE PUSH1 0x20 DUP2 ADD DUP5 DUP5 DUP5 ADD GT ISZERO PUSH2 0x2CCB JUMPI PUSH2 0x2CCA PUSH2 0x3E3B JUMP JUMPDEST JUMPDEST PUSH2 0x2CD6 DUP5 DUP3 DUP6 PUSH2 0x3C5D JUMP JUMPDEST POP SWAP4 SWAP3 POP POP POP JUMP JUMPDEST PUSH1 0x0 DUP3 PUSH1 0x1F DUP4 ADD SLT PUSH2 0x2CF3 JUMPI PUSH2 0x2CF2 PUSH2 0x3E36 JUMP JUMPDEST JUMPDEST DUP2 CALLDATALOAD PUSH2 0x2D03 DUP5 DUP3 PUSH1 0x20 DUP7 ADD PUSH2 0x2C9C JUMP JUMPDEST SWAP2 POP POP SWAP3 SWAP2 POP POP JUMP JUMPDEST PUSH1 0x0 DUP2 CALLDATALOAD SWAP1 POP PUSH2 0x2D1B DUP2 PUSH2 0x3E5B JUMP JUMPDEST SWAP3 SWAP2 POP POP JUMP JUMPDEST PUSH1 0x0 PUSH1 0x20 DUP3 DUP5 SUB SLT ISZERO PUSH2 0x2D37 JUMPI PUSH2 0x2D36 PUSH2 0x3E45 JUMP JUMPDEST JUMPDEST PUSH1 0x0 DUP3 ADD CALLDATALOAD PUSH8 0xFFFFFFFFFFFFFFFF DUP2 GT ISZERO PUSH2 0x2D55 JUMPI PUSH2 0x2D54 PUSH2 0x3E40 JUMP JUMPDEST JUMPDEST PUSH2 0x2D61 DUP5 DUP3 DUP6 ADD PUSH2 0x2CDE JUMP JUMPDEST SWAP2 POP POP SWAP3 SWAP2 POP POP JUMP JUMPDEST PUSH1 0x0 DUP1 PUSH1 0x40 DUP4 DUP6 SUB SLT ISZERO PUSH2 0x2D81 JUMPI PUSH2 0x2D80 PUSH2 0x3E45 JUMP JUMPDEST JUMPDEST PUSH1 0x0 DUP4 ADD CALLDATALOAD PUSH8 0xFFFFFFFFFFFFFFFF DUP2 GT ISZERO PUSH2 0x2D9F JUMPI PUSH2 0x2D9E PUSH2 0x3E40 JUMP JUMPDEST JUMPDEST PUSH2 0x2DAB DUP6 DUP3 DUP7 ADD PUSH2 0x2CDE JUMP JUMPDEST SWAP3 POP POP PUSH1 0x20 DUP4 ADD CALLDATALOAD PUSH8 0xFFFFFFFFFFFFFFFF DUP2 GT ISZERO PUSH2 0x2DCC JUMPI PUSH2 0x2DCB PUSH2 0x3E40 JUMP JUMPDEST JUMPDEST PUSH2 0x2DD8 DUP6 DUP3 DUP7 ADD PUSH2 0x2CDE JUMP JUMPDEST SWAP2 POP POP SWAP3 POP SWAP3 SWAP1 POP JUMP JUMPDEST PUSH1 0x0 DUP1 PUSH1 0x0 PUSH1 0x60 DUP5 DUP7 SUB SLT ISZERO PUSH2 0x2DFB JUMPI PUSH2 0x2DFA PUSH2 0x3E45 JUMP JUMPDEST JUMPDEST PUSH1 0x0 DUP5 ADD CALLDATALOAD PUSH8 0xFFFFFFFFFFFFFFFF DUP2 GT ISZERO PUSH2 0x2E19 JUMPI PUSH2 0x2E18 PUSH2 0x3E40 JUMP JUMPDEST JUMPDEST PUSH2 0x2E25 DUP7 DUP3 DUP8 ADD PUSH2 0x2CDE JUMP JUMPDEST SWAP4 POP POP PUSH1 0x20 DUP5 ADD CALLDATALOAD PUSH8 0xFFFFFFFFFFFFFFFF DUP2 GT ISZERO PUSH2 0x2E46 JUMPI PUSH2 0x2E45 PUSH2 0x3E40 JUMP JUMPDEST JUMPDEST PUSH2 0x2E52 DUP7 DUP3 DUP8 ADD PUSH2 0x2CDE JUMP JUMPDEST SWAP3 POP POP PUSH1 0x40 DUP5 ADD CALLDATALOAD PUSH8 0xFFFFFFFFFFFFFFFF DUP2 GT ISZERO PUSH2 0x2E73 JUMPI PUSH2 0x2E72 PUSH2 0x3E40 JUMP JUMPDEST JUMPDEST PUSH2 0x2E7F DUP7 DUP3 DUP8 ADD PUSH2 0x2CDE JUMP JUMPDEST SWAP2 POP POP SWAP3 POP SWAP3 POP SWAP3 JUMP JUMPDEST PUSH1 0x0 PUSH1 0x20 DUP3 DUP5 SUB SLT ISZERO PUSH2 0x2E9F JUMPI PUSH2 0x2E9E PUSH2 0x3E45 JUMP JUMPDEST JUMPDEST PUSH1 0x0 PUSH2 0x2EAD DUP5 DUP3 DUP6 ADD PUSH2 0x2D0C JUMP JUMPDEST SWAP2 POP POP SWAP3 SWAP2 POP POP JUMP JUMPDEST PUSH1 0x0 DUP1 PUSH1 0x40 DUP4 DUP6 SUB SLT ISZERO PUSH2 0x2ECD JUMPI PUSH2 0x2ECC PUSH2 0x3E45 JUMP JUMPDEST JUMPDEST PUSH1 0x0 PUSH2 0x2EDB DUP6 DUP3 DUP7 ADD PUSH2 0x2D0C JUMP JUMPDEST SWAP3 POP POP PUSH1 0x20 DUP4 ADD CALLDATALOAD PUSH8 0xFFFFFFFFFFFFFFFF DUP2 GT ISZERO PUSH2 0x2EFC JUMPI PUSH2 0x2EFB PUSH2 0x3E40 JUMP JUMPDEST JUMPDEST PUSH2 0x2F08 DUP6 DUP3 DUP7 ADD PUSH2 0x2CDE JUMP JUMPDEST SWAP2 POP POP SWAP3 POP SWAP3 SWAP1 POP JUMP JUMPDEST PUSH1 0x0 DUP1 PUSH1 0x0 DUP1 PUSH1 0x80 DUP6 DUP8 SUB SLT ISZERO PUSH2 0x2F2C JUMPI PUSH2 0x2F2B PUSH2 0x3E45 JUMP JUMPDEST JUMPDEST PUSH1 0x0 PUSH2 0x2F3A DUP8 DUP3 DUP9 ADD PUSH2 0x2D0C JUMP JUMPDEST SWAP5 POP POP PUSH1 0x20 DUP6 ADD CALLDATALOAD PUSH8 0xFFFFFFFFFFFFFFFF DUP2 GT ISZERO PUSH2 0x2F5B JUMPI PUSH2 0x2F5A PUSH2 0x3E40 JUMP JUMPDEST JUMPDEST PUSH2 0x2F67 DUP8 DUP3 DUP9 ADD PUSH2 0x2CDE JUMP JUMPDEST SWAP4 POP POP PUSH1 0x40 DUP6 ADD CALLDATALOAD PUSH8 0xFFFFFFFFFFFFFFFF DUP2 GT ISZERO PUSH2 0x2F88 JUMPI PUSH2 0x2F87 PUSH2 0x3E40 JUMP JUMPDEST JUMPDEST PUSH2 0x2F94 DUP8 DUP3 DUP9 ADD PUSH2 0x2CDE JUMP JUMPDEST SWAP3 POP POP PUSH1 0x60 DUP6 ADD CALLDATALOAD PUSH8 0xFFFFFFFFFFFFFFFF DUP2 GT ISZERO PUSH2 0x2FB5 JUMPI PUSH2 0x2FB4 PUSH2 0x3E40 JUMP JUMPDEST JUMPDEST PUSH2 0x2FC1 DUP8 DUP3 DUP9 ADD PUSH2 0x2CDE JUMP JUMPDEST SWAP2 POP POP SWAP3 SWAP6 SWAP2 SWAP5 POP SWAP3 POP JUMP JUMPDEST PUSH1 0x0 DUP1 PUSH1 0x0 DUP1 PUSH1 0x0 PUSH1 0xA0 DUP7 DUP9 SUB SLT ISZERO PUSH2 0x2FE9 JUMPI PUSH2 0x2FE8 PUSH2 0x3E45 JUMP JUMPDEST JUMPDEST PUSH1 0x0 PUSH2 0x2FF7 DUP9 DUP3 DUP10 ADD PUSH2 0x2D0C JUMP JUMPDEST SWAP6 POP POP PUSH1 0x20 DUP7 ADD CALLDATALOAD PUSH8 0xFFFFFFFFFFFFFFFF DUP2 GT ISZERO PUSH2 0x3018 JUMPI PUSH2 0x3017 PUSH2 0x3E40 JUMP JUMPDEST JUMPDEST PUSH2 0x3024 DUP9 DUP3 DUP10 ADD PUSH2 0x2CDE JUMP JUMPDEST SWAP5 POP POP PUSH1 0x40 DUP7 ADD CALLDATALOAD PUSH8 0xFFFFFFFFFFFFFFFF DUP2 GT ISZERO PUSH2 0x3045 JUMPI PUSH2 0x3044 PUSH2 0x3E40 JUMP JUMPDEST JUMPDEST PUSH2 0x3051 DUP9 DUP3 DUP10 ADD PUSH2 0x2CDE JUMP JUMPDEST SWAP4 POP POP PUSH1 0x60 DUP7 ADD CALLDATALOAD PUSH8 0xFFFFFFFFFFFFFFFF DUP2 GT ISZERO PUSH2 0x3072 JUMPI PUSH2 0x3071 PUSH2 0x3E40 JUMP JUMPDEST JUMPDEST PUSH2 0x307E DUP9 DUP3 DUP10 ADD PUSH2 0x2CDE JUMP JUMPDEST SWAP3 POP POP PUSH1 0x80 PUSH2 0x308F DUP9 DUP3 DUP10 ADD PUSH2 0x2D0C JUMP JUMPDEST SWAP2 POP POP SWAP3 SWAP6 POP SWAP3 SWAP6 SWAP1 SWAP4 POP JUMP JUMPDEST PUSH1 0x0 DUP1 PUSH1 0x0 DUP1 PUSH1 0x0 DUP1 PUSH1 0x0 DUP1 PUSH2 0x100 DUP10 DUP12 SUB SLT ISZERO PUSH2 0x30BD JUMPI PUSH2 0x30BC PUSH2 0x3E45 JUMP JUMPDEST JUMPDEST PUSH1 0x0 PUSH2 0x30CB DUP12 DUP3 DUP13 ADD PUSH2 0x2D0C JUMP JUMPDEST SWAP9 POP POP PUSH1 0x20 DUP10 ADD CALLDATALOAD PUSH8 0xFFFFFFFFFFFFFFFF DUP2 GT ISZERO PUSH2 0x30EC JUMPI PUSH2 0x30EB PUSH2 0x3E40 JUMP JUMPDEST JUMPDEST PUSH2 0x30F8 DUP12 DUP3 DUP13 ADD PUSH2 0x2CDE JUMP JUMPDEST SWAP8 POP POP PUSH1 0x40 DUP10 ADD CALLDATALOAD PUSH8 0xFFFFFFFFFFFFFFFF DUP2 GT ISZERO PUSH2 0x3119 JUMPI PUSH2 0x3118 PUSH2 0x3E40 JUMP JUMPDEST JUMPDEST PUSH2 0x3125 DUP12 DUP3 DUP13 ADD PUSH2 0x2CDE JUMP JUMPDEST SWAP7 POP POP PUSH1 0x60 DUP10 ADD CALLDATALOAD PUSH8 0xFFFFFFFFFFFFFFFF DUP2 GT ISZERO PUSH2 0x3146 JUMPI PUSH2 0x3145 PUSH2 0x3E40 JUMP JUMPDEST JUMPDEST PUSH2 0x3152 DUP12 DUP3 DUP13 ADD PUSH2 0x2CDE JUMP JUMPDEST SWAP6 POP POP PUSH1 0x80 PUSH2 0x3163 DUP12 DUP3 DUP13 ADD PUSH2 0x2D0C JUMP JUMPDEST SWAP5 POP POP PUSH1 0xA0 PUSH2 0x3174 DUP12 DUP3 DUP13 ADD PUSH2 0x2D0C JUMP JUMPDEST SWAP4 POP POP PUSH1 0xC0 PUSH2 0x3185 DUP12 DUP3 DUP13 ADD PUSH2 0x2D0C JUMP JUMPDEST SWAP3 POP POP PUSH1 0xE0 DUP10 ADD CALLDATALOAD PUSH8 0xFFFFFFFFFFFFFFFF DUP2 GT ISZERO PUSH2 0x31A6 JUMPI PUSH2 0x31A5 PUSH2 0x3E40 JUMP JUMPDEST JUMPDEST PUSH2 0x31B2 DUP12 DUP3 DUP13 ADD PUSH2 0x2CDE JUMP JUMPDEST SWAP2 POP POP SWAP3 SWAP6 SWAP9 POP SWAP3 SWAP6 SWAP9 SWAP1 SWAP4 SWAP7 POP JUMP JUMPDEST PUSH1 0x0 DUP1 PUSH1 0x0 PUSH1 0x60 DUP5 DUP7 SUB SLT ISZERO PUSH2 0x31DB JUMPI PUSH2 0x31DA PUSH2 0x3E45 JUMP JUMPDEST JUMPDEST PUSH1 0x0 PUSH2 0x31E9 DUP7 DUP3 DUP8 ADD PUSH2 0x2D0C JUMP JUMPDEST SWAP4 POP POP PUSH1 0x20 DUP5 ADD CALLDATALOAD PUSH8 0xFFFFFFFFFFFFFFFF DUP2 GT ISZERO PUSH2 0x320A JUMPI PUSH2 0x3209 PUSH2 0x3E40 JUMP JUMPDEST JUMPDEST PUSH2 0x3216 DUP7 DUP3 DUP8 ADD PUSH2 0x2CDE JUMP JUMPDEST SWAP3 POP POP PUSH1 0x40 PUSH2 0x3227 DUP7 DUP3 DUP8 ADD PUSH2 0x2D0C JUMP JUMPDEST SWAP2 POP POP SWAP3 POP SWAP3 POP SWAP3 JUMP JUMPDEST PUSH1 0x0 DUP1 PUSH1 0x0 DUP1 PUSH1 0x80 DUP6 DUP8 SUB SLT ISZERO PUSH2 0x324B JUMPI PUSH2 0x324A PUSH2 0x3E45 JUMP JUMPDEST JUMPDEST PUSH1 0x0 PUSH2 0x3259 DUP8 DUP3 DUP9 ADD PUSH2 0x2D0C JUMP JUMPDEST SWAP5 POP POP PUSH1 0x20 DUP6 ADD CALLDATALOAD PUSH8 0xFFFFFFFFFFFFFFFF DUP2 GT ISZERO PUSH2 0x327A JUMPI PUSH2 0x3279 PUSH2 0x3E40 JUMP JUMPDEST JUMPDEST PUSH2 0x3286 DUP8 DUP3 DUP9 ADD PUSH2 0x2CDE JUMP JUMPDEST SWAP4 POP POP PUSH1 0x40 PUSH2 0x3297 DUP8 DUP3 DUP9 ADD PUSH2 0x2D0C JUMP JUMPDEST SWAP3 POP POP PUSH1 0x60 PUSH2 0x32A8 DUP8 DUP3 DUP9 ADD PUSH2 0x2D0C JUMP JUMPDEST SWAP2 POP POP SWAP3 SWAP6 SWAP2 SWAP5 POP SWAP3 POP JUMP JUMPDEST PUSH1 0x0 DUP1 PUSH1 0x0 PUSH1 0x60 DUP5 DUP7 SUB SLT ISZERO PUSH2 0x32CD JUMPI PUSH2 0x32CC PUSH2 0x3E45 JUMP JUMPDEST JUMPDEST PUSH1 0x0 PUSH2 0x32DB DUP7 DUP3 DUP8 ADD PUSH2 0x2D0C JUMP JUMPDEST SWAP4 POP POP PUSH1 0x20 PUSH2 0x32EC DUP7 DUP3 DUP8 ADD PUSH2 0x2D0C JUMP JUMPDEST SWAP3 POP POP PUSH1 0x40 DUP5 ADD CALLDATALOAD PUSH8 0xFFFFFFFFFFFFFFFF DUP2 GT ISZERO PUSH2 0x330D JUMPI PUSH2 0x330C PUSH2 0x3E40 JUMP JUMPDEST JUMPDEST PUSH2 0x3319 DUP7 DUP3 DUP8 ADD PUSH2 0x2CDE JUMP JUMPDEST SWAP2 POP POP SWAP3 POP SWAP3 POP SWAP3 JUMP JUMPDEST PUSH1 0x0 DUP1 PUSH1 0x0 DUP1 PUSH1 0x0 DUP1 PUSH1 0x0 PUSH1 0xE0 DUP9 DUP11 SUB SLT ISZERO PUSH2 0x3342 JUMPI PUSH2 0x3341 PUSH2 0x3E45 JUMP JUMPDEST JUMPDEST PUSH1 0x0 PUSH2 0x3350 DUP11 DUP3 DUP12 ADD PUSH2 0x2D0C JUMP JUMPDEST SWAP8 POP POP PUSH1 0x20 PUSH2 0x3361 DUP11 DUP3 DUP12 ADD PUSH2 0x2D0C JUMP JUMPDEST SWAP7 POP POP PUSH1 0x40 DUP9 ADD CALLDATALOAD PUSH8 0xFFFFFFFFFFFFFFFF DUP2 GT ISZERO PUSH2 0x3382 JUMPI PUSH2 0x3381 PUSH2 0x3E40 JUMP JUMPDEST JUMPDEST PUSH2 0x338E DUP11 DUP3 DUP12 ADD PUSH2 0x2CDE JUMP JUMPDEST SWAP6 POP POP PUSH1 0x60 DUP9 ADD CALLDATALOAD PUSH8 0xFFFFFFFFFFFFFFFF DUP2 GT ISZERO PUSH2 0x33AF JUMPI PUSH2 0x33AE PUSH2 0x3E40 JUMP JUMPDEST JUMPDEST PUSH2 0x33BB DUP11 DUP3 DUP12 ADD PUSH2 0x2CDE JUMP JUMPDEST SWAP5 POP POP PUSH1 0x80 DUP9 ADD CALLDATALOAD PUSH8 0xFFFFFFFFFFFFFFFF DUP2 GT ISZERO PUSH2 0x33DC JUMPI PUSH2 0x33DB PUSH2 0x3E40 JUMP JUMPDEST JUMPDEST PUSH2 0x33E8 DUP11 DUP3 DUP12 ADD PUSH2 0x2CDE JUMP JUMPDEST SWAP4 POP POP PUSH1 0xA0 DUP9 ADD CALLDATALOAD PUSH8 0xFFFFFFFFFFFFFFFF DUP2 GT ISZERO PUSH2 0x3409 JUMPI PUSH2 0x3408 PUSH2 0x3E40 JUMP JUMPDEST JUMPDEST PUSH2 0x3415 DUP11 DUP3 DUP12 ADD PUSH2 0x2CDE JUMP JUMPDEST SWAP3 POP POP PUSH1 0xC0 PUSH2 0x3426 DUP11 DUP3 DUP12 ADD PUSH2 0x2D0C JUMP JUMPDEST SWAP2 POP POP SWAP3 SWAP6 SWAP9 SWAP2 SWAP5 SWAP8 POP SWAP3 SWAP6 POP JUMP JUMPDEST PUSH1 0x0 DUP1 PUSH1 0x0 DUP1 PUSH1 0x80 DUP6 DUP8 SUB SLT ISZERO PUSH2 0x344F JUMPI PUSH2 0x344E PUSH2 0x3E45 JUMP JUMPDEST JUMPDEST PUSH1 0x0 PUSH2 0x345D DUP8 DUP3 DUP9 ADD PUSH2 0x2D0C JUMP JUMPDEST SWAP5 POP POP PUSH1 0x20 PUSH2 0x346E DUP8 DUP3 DUP9 ADD PUSH2 0x2D0C JUMP JUMPDEST SWAP4 POP POP PUSH1 0x40 DUP6 ADD CALLDATALOAD PUSH8 0xFFFFFFFFFFFFFFFF DUP2 GT ISZERO PUSH2 0x348F JUMPI PUSH2 0x348E PUSH2 0x3E40 JUMP JUMPDEST JUMPDEST PUSH2 0x349B DUP8 DUP3 DUP9 ADD PUSH2 0x2CDE JUMP JUMPDEST SWAP3 POP POP PUSH1 0x60 PUSH2 0x34AC DUP8 DUP3 DUP9 ADD PUSH2 0x2D0C JUMP JUMPDEST SWAP2 POP POP SWAP3 SWAP6 SWAP2 SWAP5 POP SWAP3 POP JUMP JUMPDEST PUSH1 0x0 DUP1 PUSH1 0x0 DUP1 PUSH1 0x0 DUP1 PUSH1 0xC0 DUP8 DUP10 SUB SLT ISZERO PUSH2 0x34D5 JUMPI PUSH2 0x34D4 PUSH2 0x3E45 JUMP JUMPDEST JUMPDEST PUSH1 0x0 PUSH2 0x34E3 DUP10 DUP3 DUP11 ADD PUSH2 0x2D0C JUMP JUMPDEST SWAP7 POP POP PUSH1 0x20 PUSH2 0x34F4 DUP10 DUP3 DUP11 ADD PUSH2 0x2D0C JUMP JUMPDEST SWAP6 POP POP PUSH1 0x40 PUSH2 0x3505 DUP10 DUP3 DUP11 ADD PUSH2 0x2D0C JUMP JUMPDEST SWAP5 POP POP PUSH1 0x60 PUSH2 0x3516 DUP10 DUP3 DUP11 ADD PUSH2 0x2D0C JUMP JUMPDEST SWAP4 POP POP PUSH1 0x80 PUSH2 0x3527 DUP10 DUP3 DUP11 ADD PUSH2 0x2D0C JUMP JUMPDEST SWAP3 POP POP PUSH1 0xA0 DUP8 ADD CALLDATALOAD PUSH8 0xFFFFFFFFFFFFFFFF DUP2 GT ISZERO PUSH2 0x3548 JUMPI PUSH2 0x3547 PUSH2 0x3E40 JUMP JUMPDEST JUMPDEST PUSH2 0x3554 DUP10 DUP3 DUP11 ADD PUSH2 0x2CDE JUMP JUMPDEST SWAP2 POP POP SWAP3 SWAP6 POP SWAP3 SWAP6 POP SWAP3 SWAP6 JUMP JUMPDEST PUSH1 0x0 PUSH2 0x356D DUP4 DUP4 PUSH2 0x369E JUMP JUMPDEST PUSH1 0x20 DUP4 ADD SWAP1 POP SWAP3 SWAP2 POP POP JUMP JUMPDEST PUSH2 0x3582 DUP2 PUSH2 0x3C21 JUMP JUMPDEST DUP3 MSTORE POP POP JUMP JUMPDEST PUSH1 0x0 PUSH2 0x3593 DUP3 PUSH2 0x3B7B JUMP JUMPDEST PUSH2 0x359D DUP2 DUP6 PUSH2 0x3B9E JUMP JUMPDEST SWAP4 POP PUSH2 0x35A8 DUP4 PUSH2 0x3B56 JUMP JUMPDEST DUP1 PUSH1 0x0 JUMPDEST DUP4 DUP2 LT ISZERO PUSH2 0x35D9 JUMPI DUP2 MLOAD PUSH2 0x35C0 DUP9 DUP3 PUSH2 0x3561 JUMP JUMPDEST SWAP8 POP PUSH2 0x35CB DUP4 PUSH2 0x3B91 JUMP JUMPDEST SWAP3 POP POP PUSH1 0x1 DUP2 ADD SWAP1 POP PUSH2 0x35AC JUMP JUMPDEST POP DUP6 SWAP4 POP POP POP POP SWAP3 SWAP2 POP POP JUMP JUMPDEST PUSH1 0x0 DUP2 SLOAD PUSH2 0x35F3 DUP2 PUSH2 0x3C9F JUMP JUMPDEST PUSH2 0x35FD DUP2 DUP7 PUSH2 0x3BAF JUMP JUMPDEST SWAP5 POP PUSH1 0x1 DUP3 AND PUSH1 0x0 DUP2 EQ PUSH2 0x3618 JUMPI PUSH1 0x1 DUP2 EQ PUSH2 0x3629 JUMPI PUSH2 0x365C JUMP JUMPDEST PUSH1 0xFF NOT DUP4 AND DUP7 MSTORE DUP2 DUP7 ADD SWAP4 POP PUSH2 0x365C JUMP JUMPDEST PUSH2 0x3632 DUP6 PUSH2 0x3B66 JUMP JUMPDEST PUSH1 0x0 JUMPDEST DUP4 DUP2 LT ISZERO PUSH2 0x3654 JUMPI DUP2 SLOAD DUP2 DUP10 ADD MSTORE PUSH1 0x1 DUP3 ADD SWAP2 POP PUSH1 0x20 DUP2 ADD SWAP1 POP PUSH2 0x3635 JUMP JUMPDEST DUP4 DUP9 ADD SWAP6 POP POP POP JUMPDEST POP POP POP SWAP3 SWAP2 POP POP JUMP JUMPDEST PUSH1 0x0 PUSH2 0x3670 DUP3 PUSH2 0x3B86 JUMP JUMPDEST PUSH2 0x367A DUP2 DUP6 PUSH2 0x3BBA JUMP JUMPDEST SWAP4 POP PUSH2 0x368A DUP2 DUP6 PUSH1 0x20 DUP7 ADD PUSH2 0x3C6C JUMP JUMPDEST PUSH2 0x3693 DUP2 PUSH2 0x3E4A JUMP JUMPDEST DUP5 ADD SWAP2 POP POP SWAP3 SWAP2 POP POP JUMP JUMPDEST PUSH2 0x36A7 DUP2 PUSH2 0x3C53 JUMP JUMPDEST DUP3 MSTORE POP POP JUMP JUMPDEST PUSH2 0x36B6 DUP2 PUSH2 0x3C53 JUMP JUMPDEST DUP3 MSTORE POP POP JUMP JUMPDEST PUSH1 0x0 PUSH2 0x36C8 DUP3 DUP5 PUSH2 0x35E6 JUMP JUMPDEST SWAP2 POP DUP2 SWAP1 POP SWAP3 SWAP2 POP POP JUMP JUMPDEST PUSH1 0x0 PUSH1 0x20 DUP3 ADD SWAP1 POP PUSH2 0x36E8 PUSH1 0x0 DUP4 ADD DUP5 PUSH2 0x3579 JUMP JUMPDEST SWAP3 SWAP2 POP POP JUMP JUMPDEST PUSH1 0x0 PUSH1 0x20 DUP3 ADD SWAP1 POP DUP2 DUP2 SUB PUSH1 0x0 DUP4 ADD MSTORE PUSH2 0x3708 DUP2 DUP5 PUSH2 0x3588 JUMP JUMPDEST SWAP1 POP SWAP3 SWAP2 POP POP JUMP JUMPDEST PUSH1 0x0 PUSH1 0x20 DUP3 ADD SWAP1 POP DUP2 DUP2 SUB PUSH1 0x0 DUP4 ADD MSTORE PUSH2 0x372A DUP2 DUP5 PUSH2 0x3665 JUMP JUMPDEST SWAP1 POP SWAP3 SWAP2 POP POP JUMP JUMPDEST PUSH1 0x0 PUSH1 0x40 DUP3 ADD SWAP1 POP DUP2 DUP2 SUB PUSH1 0x0 DUP4 ADD MSTORE PUSH2 0x374C DUP2 DUP6 PUSH2 0x3665 JUMP JUMPDEST SWAP1 POP DUP2 DUP2 SUB PUSH1 0x20 DUP4 ADD MSTORE PUSH2 0x3760 DUP2 DUP5 PUSH2 0x3665 JUMP JUMPDEST SWAP1 POP SWAP4 SWAP3 POP POP POP JUMP JUMPDEST PUSH1 0x0 PUSH1 0x80 DUP3 ADD SWAP1 POP DUP2 DUP2 SUB PUSH1 0x0 DUP4 ADD MSTORE PUSH2 0x3783 DUP2 DUP8 PUSH2 0x3665 JUMP JUMPDEST SWAP1 POP PUSH2 0x3792 PUSH1 0x20 DUP4 ADD DUP7 PUSH2 0x36AD JUMP JUMPDEST DUP2 DUP2 SUB PUSH1 0x40 DUP4 ADD MSTORE PUSH2 0x37A4 DUP2 DUP6 PUSH2 0x3665 JUMP JUMPDEST SWAP1 POP DUP2 DUP2 SUB PUSH1 0x60 DUP4 ADD MSTORE PUSH2 0x37B8 DUP2 DUP5 PUSH2 0x3665 JUMP JUMPDEST SWAP1 POP SWAP6 SWAP5 POP POP POP POP POP JUMP JUMPDEST PUSH1 0x0 PUSH1 0x20 DUP3 ADD SWAP1 POP PUSH2 0x37D8 PUSH1 0x0 DUP4 ADD DUP5 PUSH2 0x36AD JUMP JUMPDEST SWAP3 SWAP2 POP POP JUMP JUMPDEST PUSH1 0x0 PUSH1 0x80 DUP3 ADD SWAP1 POP PUSH2 0x37F3 PUSH1 0x0 DUP4 ADD DUP8 PUSH2 0x36AD JUMP JUMPDEST DUP2 DUP2 SUB PUSH1 0x20 DUP4 ADD MSTORE PUSH2 0x3805 DUP2 DUP7 PUSH2 0x3665 JUMP JUMPDEST SWAP1 POP DUP2 DUP2 SUB PUSH1 0x40 DUP4 ADD MSTORE PUSH2 0x3819 DUP2 DUP6 PUSH2 0x3665 JUMP JUMPDEST SWAP1 POP DUP2 DUP2 SUB PUSH1 0x60 DUP4 ADD MSTORE PUSH2 0x382D DUP2 DUP5 PUSH2 0x3665 JUMP JUMPDEST SWAP1 POP SWAP6 SWAP5 POP POP POP POP POP JUMP JUMPDEST PUSH1 0x0 PUSH2 0x120 DUP3 ADD SWAP1 POP PUSH2 0x384E PUSH1 0x0 DUP4 ADD DUP13 PUSH2 0x36AD JUMP JUMPDEST PUSH2 0x385B PUSH1 0x20 DUP4 ADD DUP12 PUSH2 0x36AD JUMP JUMPDEST DUP2 DUP2 SUB PUSH1 0x40 DUP4 ADD MSTORE PUSH2 0x386D DUP2 DUP11 PUSH2 0x3665 JUMP JUMPDEST SWAP1 POP DUP2 DUP2 SUB PUSH1 0x60 DUP4 ADD MSTORE PUSH2 0x3881 DUP2 DUP10 PUSH2 0x3665 JUMP JUMPDEST SWAP1 POP DUP2 DUP2 SUB PUSH1 0x80 DUP4 ADD MSTORE PUSH2 0x3895 DUP2 DUP9 PUSH2 0x3665 JUMP JUMPDEST SWAP1 POP PUSH2 0x38A4 PUSH1 0xA0 DUP4 ADD DUP8 PUSH2 0x36AD JUMP JUMPDEST PUSH2 0x38B1 PUSH1 0xC0 DUP4 ADD DUP7 PUSH2 0x36AD JUMP JUMPDEST PUSH2 0x38BE PUSH1 0xE0 DUP4 ADD DUP6 PUSH2 0x36AD JUMP JUMPDEST DUP2 DUP2 SUB PUSH2 0x100 DUP4 ADD MSTORE PUSH2 0x38D1 DUP2 DUP5 PUSH2 0x3665 JUMP JUMPDEST SWAP1 POP SWAP11 SWAP10 POP POP POP POP POP POP POP POP POP POP JUMP JUMPDEST PUSH1 0x0 PUSH1 0xA0 DUP3 ADD SWAP1 POP PUSH2 0x38F6 PUSH1 0x0 DUP4 ADD DUP9 PUSH2 0x36AD JUMP JUMPDEST PUSH2 0x3903 PUSH1 0x20 DUP4 ADD DUP8 PUSH2 0x36AD JUMP JUMPDEST DUP2 DUP2 SUB PUSH1 0x40 DUP4 ADD MSTORE PUSH2 0x3915 DUP2 DUP7 PUSH2 0x3665 JUMP JUMPDEST SWAP1 POP PUSH2 0x3924 PUSH1 0x60 DUP4 ADD DUP6 PUSH2 0x36AD JUMP JUMPDEST PUSH2 0x3931 PUSH1 0x80 DUP4 ADD DUP5 PUSH2 0x36AD JUMP JUMPDEST SWAP7 SWAP6 POP POP POP POP POP POP JUMP JUMPDEST PUSH1 0x0 PUSH1 0x80 DUP3 ADD SWAP1 POP PUSH2 0x3950 PUSH1 0x0 DUP4 ADD DUP8 PUSH2 0x36AD JUMP JUMPDEST PUSH2 0x395D PUSH1 0x20 DUP4 ADD DUP7 PUSH2 0x36AD JUMP JUMPDEST PUSH2 0x396A PUSH1 0x40 DUP4 ADD DUP6 PUSH2 0x36AD JUMP JUMPDEST DUP2 DUP2 SUB PUSH1 0x60 DUP4 ADD MSTORE PUSH2 0x397C DUP2 DUP5 PUSH2 0x3665 JUMP JUMPDEST SWAP1 POP SWAP6 SWAP5 POP POP POP POP POP JUMP JUMPDEST PUSH1 0x0 PUSH2 0x120 DUP3 ADD SWAP1 POP PUSH2 0x399D PUSH1 0x0 DUP4 ADD DUP13 PUSH2 0x36AD JUMP JUMPDEST PUSH2 0x39AA PUSH1 0x20 DUP4 ADD DUP12 PUSH2 0x36AD JUMP JUMPDEST PUSH2 0x39B7 PUSH1 0x40 DUP4 ADD DUP11 PUSH2 0x36AD JUMP JUMPDEST DUP2 DUP2 SUB PUSH1 0x60 DUP4 ADD MSTORE PUSH2 0x39C9 DUP2 DUP10 PUSH2 0x3665 JUMP JUMPDEST SWAP1 POP DUP2 DUP2 SUB PUSH1 0x80 DUP4 ADD MSTORE PUSH2 0x39DD DUP2 DUP9 PUSH2 0x3665 JUMP JUMPDEST SWAP1 POP DUP2 DUP2 SUB PUSH1 0xA0 DUP4 ADD MSTORE PUSH2 0x39F1 DUP2 DUP8 PUSH2 0x3665 JUMP JUMPDEST SWAP1 POP DUP2 DUP2 SUB PUSH1 0xC0 DUP4 ADD MSTORE PUSH2 0x3A05 DUP2 DUP7 PUSH2 0x3665 JUMP JUMPDEST SWAP1 POP PUSH2 0x3A14 PUSH1 0xE0 DUP4 ADD DUP6 PUSH2 0x36AD JUMP JUMPDEST PUSH2 0x3A22 PUSH2 0x100 DUP4 ADD DUP5 PUSH2 0x36AD JUMP JUMPDEST SWAP11 SWAP10 POP POP POP POP POP POP POP POP POP POP JUMP JUMPDEST PUSH1 0x0 PUSH1 0xA0 DUP3 ADD SWAP1 POP PUSH2 0x3A45 PUSH1 0x0 DUP4 ADD DUP9 PUSH2 0x36AD JUMP JUMPDEST PUSH2 0x3A52 PUSH1 0x20 DUP4 ADD DUP8 PUSH2 0x36AD JUMP JUMPDEST PUSH2 0x3A5F PUSH1 0x40 DUP4 ADD DUP7 PUSH2 0x36AD JUMP JUMPDEST PUSH2 0x3A6C PUSH1 0x60 DUP4 ADD DUP6 PUSH2 0x36AD JUMP JUMPDEST DUP2 DUP2 SUB PUSH1 0x80 DUP4 ADD MSTORE PUSH2 0x3A7E DUP2 DUP5 PUSH2 0x3665 JUMP JUMPDEST SWAP1 POP SWAP7 SWAP6 POP POP POP POP POP POP JUMP JUMPDEST PUSH1 0x0 PUSH1 0xE0 DUP3 ADD SWAP1 POP PUSH2 0x3A9F PUSH1 0x0 DUP4 ADD DUP11 PUSH2 0x36AD JUMP JUMPDEST PUSH2 0x3AAC PUSH1 0x20 DUP4 ADD DUP10 PUSH2 0x36AD JUMP JUMPDEST PUSH2 0x3AB9 PUSH1 0x40 DUP4 ADD DUP9 PUSH2 0x36AD JUMP JUMPDEST PUSH2 0x3AC6 PUSH1 0x60 DUP4 ADD DUP8 PUSH2 0x36AD JUMP JUMPDEST PUSH2 0x3AD3 PUSH1 0x80 DUP4 ADD DUP7 PUSH2 0x36AD JUMP JUMPDEST PUSH2 0x3AE0 PUSH1 0xA0 DUP4 ADD DUP6 PUSH2 0x36AD JUMP JUMPDEST DUP2 DUP2 SUB PUSH1 0xC0 DUP4 ADD MSTORE PUSH2 0x3AF2 DUP2 DUP5 PUSH2 0x3665 JUMP JUMPDEST SWAP1 POP SWAP9 SWAP8 POP POP POP POP POP POP POP POP JUMP JUMPDEST PUSH1 0x0 PUSH2 0x3B0A PUSH2 0x3B1B JUMP JUMPDEST SWAP1 POP PUSH2 0x3B16 DUP3 DUP3 PUSH2 0x3CD1 JUMP JUMPDEST SWAP2 SWAP1 POP JUMP JUMPDEST PUSH1 0x0 PUSH1 0x40 MLOAD SWAP1 POP SWAP1 JUMP JUMPDEST PUSH1 0x0 PUSH8 0xFFFFFFFFFFFFFFFF DUP3 GT ISZERO PUSH2 0x3B40 JUMPI PUSH2 0x3B3F PUSH2 0x3E07 JUMP JUMPDEST JUMPDEST PUSH2 0x3B49 DUP3 PUSH2 0x3E4A JUMP JUMPDEST SWAP1 POP PUSH1 0x20 DUP2 ADD SWAP1 POP SWAP2 SWAP1 POP JUMP JUMPDEST PUSH1 0x0 DUP2 SWAP1 POP PUSH1 0x20 DUP3 ADD SWAP1 POP SWAP2 SWAP1 POP JUMP JUMPDEST PUSH1 0x0 DUP2 SWAP1 POP DUP2 PUSH1 0x0 MSTORE PUSH1 0x20 PUSH1 0x0 KECCAK256 SWAP1 POP SWAP2 SWAP1 POP JUMP JUMPDEST PUSH1 0x0 DUP2 MLOAD SWAP1 POP SWAP2 SWAP1 POP JUMP JUMPDEST PUSH1 0x0 DUP2 MLOAD SWAP1 POP SWAP2 SWAP1 POP JUMP JUMPDEST PUSH1 0x0 PUSH1 0x20 DUP3 ADD SWAP1 POP SWAP2 SWAP1 POP JUMP JUMPDEST PUSH1 0x0 DUP3 DUP3 MSTORE PUSH1 0x20 DUP3 ADD SWAP1 POP SWAP3 SWAP2 POP POP JUMP JUMPDEST PUSH1 0x0 DUP2 SWAP1 POP SWAP3 SWAP2 POP POP JUMP JUMPDEST PUSH1 0x0 DUP3 DUP3 MSTORE PUSH1 0x20 DUP3 ADD SWAP1 POP SWAP3 SWAP2 POP POP JUMP JUMPDEST PUSH1 0x0 PUSH2 0x3BD6 DUP3 PUSH2 0x3C53 JUMP JUMPDEST SWAP2 POP PUSH2 0x3BE1 DUP4 PUSH2 0x3C53 JUMP JUMPDEST SWAP3 POP DUP3 PUSH32 0xFFFFFFFFFFFFFFFFFFFFFFFFFFFFFFFFFFFFFFFFFFFFFFFFFFFFFFFFFFFFFFFF SUB DUP3 GT ISZERO PUSH2 0x3C16 JUMPI PUSH2 0x3C15 PUSH2 0x3D4B JUMP JUMPDEST JUMPDEST DUP3 DUP3 ADD SWAP1 POP SWAP3 SWAP2 POP POP JUMP JUMPDEST PUSH1 0x0 PUSH2 0x3C2C DUP3 PUSH2 0x3C33 JUMP JUMPDEST SWAP1 POP SWAP2 SWAP1 POP JUMP JUMPDEST PUSH1 0x0 PUSH20 0xFFFFFFFFFFFFFFFFFFFFFFFFFFFFFFFFFFFFFFFF DUP3 AND SWAP1 POP SWAP2 SWAP1 POP JUMP JUMPDEST PUSH1 0x0 DUP2 SWAP1 POP SWAP2 SWAP1 POP JUMP JUMPDEST DUP3 DUP2 DUP4 CALLDATACOPY PUSH1 0x0 DUP4 DUP4 ADD MSTORE POP POP POP JUMP JUMPDEST PUSH1 0x0 JUMPDEST DUP4 DUP2 LT ISZERO PUSH2 0x3C8A JUMPI DUP1 DUP3 ADD MLOAD DUP2 DUP5 ADD MSTORE PUSH1 0x20 DUP2 ADD SWAP1 POP PUSH2 0x3C6F JUMP JUMPDEST DUP4 DUP2 GT ISZERO PUSH2 0x3C99 JUMPI PUSH1 0x0 DUP5 DUP5 ADD MSTORE JUMPDEST POP POP POP POP JUMP JUMPDEST PUSH1 0x0 PUSH1 0x2 DUP3 DIV SWAP1 POP PUSH1 0x1 DUP3 AND DUP1 PUSH2 0x3CB7 JUMPI PUSH1 0x7F DUP3 AND SWAP2 POP JUMPDEST PUSH1 0x20 DUP3 LT DUP2 EQ ISZERO PUSH2 0x3CCB JUMPI PUSH2 0x3CCA PUSH2 0x3DA9 JUMP JUMPDEST JUMPDEST POP SWAP2 SWAP1 POP JUMP JUMPDEST PUSH2 0x3CDA DUP3 PUSH2 0x3E4A JUMP JUMPDEST DUP2 ADD DUP2 DUP2 LT PUSH8 0xFFFFFFFFFFFFFFFF DUP3 GT OR ISZERO PUSH2 0x3CF9 JUMPI PUSH2 0x3CF8 PUSH2 0x3E07 JUMP JUMPDEST JUMPDEST DUP1 PUSH1 0x40 MSTORE POP POP POP JUMP JUMPDEST PUSH1 0x0 PUSH2 0x3D0D DUP3 PUSH2 0x3C53 JUMP JUMPDEST SWAP2 POP PUSH32 0xFFFFFFFFFFFFFFFFFFFFFFFFFFFFFFFFFFFFFFFFFFFFFFFFFFFFFFFFFFFFFFFF DUP3 EQ ISZERO PUSH2 0x3D40 JUMPI PUSH2 0x3D3F PUSH2 0x3D4B JUMP JUMPDEST JUMPDEST PUSH1 0x1 DUP3 ADD SWAP1 POP SWAP2 SWAP1 POP JUMP JUMPDEST PUSH32 0x4E487B7100000000000000000000000000000000000000000000000000000000 PUSH1 0x0 MSTORE PUSH1 0x11 PUSH1 0x4 MSTORE PUSH1 0x24 PUSH1 0x0 REVERT JUMPDEST PUSH32 0x4E487B7100000000000000000000000000000000000000000000000000000000 PUSH1 0x0 MSTORE PUSH1 0x12 PUSH1 0x4 MSTORE PUSH1 0x24 PUSH1 0x0 REVERT JUMPDEST PUSH32 0x4E487B7100000000000000000000000000000000000000000000000000000000 PUSH1 0x0 MSTORE PUSH1 0x22 PUSH1 0x4 MSTORE PUSH1 0x24 PUSH1 0x0 REVERT JUMPDEST PUSH32 0x4E487B7100000000000000000000000000000000000000000000000000000000 PUSH1 0x0 MSTORE PUSH1 0x32 PUSH1 0x4 MSTORE PUSH1 0x24 PUSH1 0x0 REVERT JUMPDEST PUSH32 0x4E487B7100000000000000000000000000000000000000000000000000000000 PUSH1 0x0 MSTORE PUSH1 0x41 PUSH1 0x4 MSTORE PUSH1 0x24 PUSH1 0x0 REVERT JUMPDEST PUSH1 0x0 DUP1 REVERT JUMPDEST PUSH1 0x0 DUP1 REVERT JUMPDEST PUSH1 0x0 DUP1 REVERT JUMPDEST PUSH1 0x0 DUP1 REVERT JUMPDEST PUSH1 0x0 PUSH1 0x1F NOT PUSH1 0x1F DUP4 ADD AND SWAP1 POP SWAP2 SWAP1 POP JUMP JUMPDEST PUSH2 0x3E64 DUP2 PUSH2 0x3C53 JUMP JUMPDEST DUP2 EQ PUSH2 0x3E6F JUMPI PUSH1 0x0 DUP1 REVERT JUMPDEST POP JUMP INVALID PUSH9 0x747470733A2F2F692E PUSH17 0x6F7374696D672E63632F53737847773563 GAS 0x2F PUSH17 0x6572736F6E2E6A7067A264697066735822 SLT KECCAK256 0xBF EXP PUSH7 0x347F943723BED1 SWAP7 0xCA PUSH19 0x59A85329819AB0E868813D11C5FB9B72E15887 PUSH5 0x736F6C6343 STOP ADDMOD MOD STOP CALLER "},"gasEstimates":{"creation":{"codeDepositCost":"3216000","executionCost":"3563","totalCost":"3219563"},"external":{"CheckEmail(string)":"infinite","CreateAccount(string,string,string)":"infinite","CreateCompletedSurveys(uint256,uint256,string,uint256)":"infinite","CreateOngoingTrail(uint256,uint256,string)":"infinite","CreateOrSaveSections(uint256,string)":"infinite","CreateQuestionAnswer(uint256,uint256,uint256,uint256,uint256,string)":"infinite","CreateSurvey(uint256,uint256,string,string,string,string,uint256)":"infinite","CreateSurveyCategory(string,string)":"infinite","CreateTrial(uint256,string,string,string,uint256,uint256,uint256,string)":"infinite","GetOngoingTrial(uint256)":"infinite","Login(string,string)":"infinite","UpdateAudience(uint256,string)":"infinite","UpdateFhir(uint256,string,string,string)":"infinite","UpdateReward(uint256,string,uint256,uint256)":"infinite","UpdateSurvey(uint256,string,string,string,uint256)":"infinite","UpdateTrial(uint256,string,string,string,uint256)":"infinite","UpdateUser(uint256,string,uint256)":"infinite","_AnsweredIds()":"2476","_CompletedSurveyIds()":"2496","_OngoingIds()":"2473","_SurveyCategoryIds()":"2542","_SurveyIds()":"2498","_TrialIds()":"2541","_UserIds()":"2474","_categoryMap(uint256)":"infinite","_completedsurveyMap(uint256)":"infinite","_fhirMap(uint256)":"infinite","_ongoingMap(uint256)":"infinite","_questionanswerdMap(uint256)":"infinite","_sectionsMap(uint256)":"infinite","_surveyMap(uint256)":"infinite","_trialAudienceMap(uint256)":"infinite","_trialMap(uint256)":"infinite","_trialRewardMap(uint256)":"infinite","getAllCompletedSurveysIDByUser(uint256)":"infinite","getAllSurveysIDByTrial(uint256)":"infinite","getUserDetails(uint256)":"infinite","owner()":"2625","reset_all()":"infinite"}},"methodIdentifiers":{"CheckEmail(string)":"f8b7800f","CreateAccount(string,string,string)":"45948fde","CreateCompletedSurveys(uint256,uint256,string,uint256)":"7d423e10","CreateOngoingTrail(uint256,uint256,string)":"a5f3fc7d","CreateOrSaveSections(uint256,string)":"66cad734","CreateQuestionAnswer(uint256,uint256,uint256,uint256,uint256,string)":"2ffb08f7","CreateSurvey(uint256,uint256,string,string,string,string,uint256)":"3896f130","CreateSurveyCategory(string,string)":"4f8b36eb","CreateTrial(uint256,string,string,string,uint256,uint256,uint256,string)":"2c02dd60","GetOngoingTrial(uint256)":"902841d4","Login(string,string)":"ccef4218","UpdateAudience(uint256,string)":"ad23f8f9","UpdateFhir(uint256,string,string,string)":"a92e1c4c","UpdateReward(uint256,string,uint256,uint256)":"3eebd0d0","UpdateSurvey(uint256,string,string,string,uint256)":"5f27aea1","UpdateTrial(uint256,string,string,string,uint256)":"55391705","UpdateUser(uint256,string,uint256)":"e57f973f","_AnsweredIds()":"01c66109","_CompletedSurveyIds()":"b6e604bd","_OngoingIds()":"eb6b2870","_SurveyCategoryIds()":"29b36423","_SurveyIds()":"1429f775","_TrialIds()":"ac7aef0e","_UserIds()":"ce08988c","_categoryMap(uint256)":"f0d8e873","_completedsurveyMap(uint256)":"90d6cf05","_fhirMap(uint256)":"ebe197ca","_ongoingMap(uint256)":"f6aaa804","_questionanswerdMap(uint256)":"c13b2836","_sectionsMap(uint256)":"ea7efaa6","_surveyMap(uint256)":"de7acfd7","_trialAudienceMap(uint256)":"2a8caf4a","_trialMap(uint256)":"bed208fe","_trialRewardMap(uint256)":"da01f01e","getAllCompletedSurveysIDByUser(uint256)":"49b9b07b","getAllSurveysIDByTrial(uint256)":"682d562b","getUserDetails(uint256)":"1c1a9f7b","owner()":"8da5cb5b","reset_all()":"b16060a6"}},"storageLayout":{"storage":[{"astId":1190,"contract":"contracts/WaveData.sol:WaveData","label":"_UserIds","offset":0,"slot":"0","type":"t_uint256"},{"astId":1192,"contract":"contracts/WaveData.sol:WaveData","label":"_TrialIds","offset":0,"slot":"1","type":"t_uint256"},{"astId":1194,"contract":"contracts/WaveData.sol:WaveData","label":"_SurveyIds","offset":0,"slot":"2","type":"t_uint256"},{"astId":1196,"contract":"contracts/WaveData.sol:WaveData","label":"_SurveyCategoryIds","offset":0,"slot":"3","type":"t_uint256"},{"astId":1198,"contract":"contracts/WaveData.sol:WaveData","label":"_OngoingIds","offset":0,"slot":"4","type":"t_uint256"},{"astId":1200,"contract":"contracts/WaveData.sol:WaveData","label":"_AnsweredIds","offset":0,"slot":"5","type":"t_uint256"},{"astId":1202,"contract":"contracts/WaveData.sol:WaveData","label":"_CompletedSurveyIds","offset":0,"slot":"6","type":"t_uint256"},{"astId":1208,"contract":"contracts/WaveData.sol:WaveData","label":"_userMap","offset":0,"slot":"7","type":"t_mapping(t_uint256,t_struct(user_struct)1061_storage)"},{"astId":1214,"contract":"contracts/WaveData.sol:WaveData","label":"_trialMap","offset":0,"slot":"8","type":"t_mapping(t_uint256,t_struct(trial_struct)1096_storage)"},{"astId":1220,"contract":"contracts/WaveData.sol:WaveData","label":"_trialRewardMap","offset":0,"slot":"9","type":"t_mapping(t_uint256,t_struct(reward_struct)1112_storage)"},{"astId":1225,"contract":"contracts/WaveData.sol:WaveData","label":"_trialAudienceMap","offset":0,"slot":"10","type":"t_mapping(t_uint256,t_string_storage)"},{"astId":1231,"contract":"contracts/WaveData.sol:WaveData","label":"_surveyMap","offset":0,"slot":"11","type":"t_mapping(t_uint256,t_struct(survey_struct)1140_storage)"},{"astId":1237,"contract":"contracts/WaveData.sol:WaveData","label":"_categoryMap","offset":0,"slot":"12","type":"t_mapping(t_uint256,t_struct(survey_category_struct)1068_storage)"},{"astId":1242,"contract":"contracts/WaveData.sol:WaveData","label":"_sectionsMap","offset":0,"slot":"13","type":"t_mapping(t_uint256,t_string_storage)"},{"astId":1248,"contract":"contracts/WaveData.sol:WaveData","label":"_fhirMap","offset":0,"slot":"14","type":"t_mapping(t_uint256,t_struct(fhir_struct)1153_storage)"},{"astId":1254,"contract":"contracts/WaveData.sol:WaveData","label":"_ongoingMap","offset":0,"slot":"15","type":"t_mapping(t_uint256,t_struct(ongoing_struct)1162_storage)"},{"astId":1260,"contract":"contracts/WaveData.sol:WaveData","label":"_questionanswerdMap","offset":0,"slot":"16","type":"t_mapping(t_uint256,t_struct(survey_question_answer_struct)1177_storage)"},{"astId":1266,"contract":"contracts/WaveData.sol:WaveData","label":"_completedsurveyMap","offset":0,"slot":"17","type":"t_mapping(t_uint256,t_struct(completed_survey_struct)1188_storage)"},{"astId":1268,"contract":"contracts/WaveData.sol:WaveData","label":"owner","offset":0,"slot":"18","type":"t_address"}],"types":{"t_address":{"encoding":"inplace","label":"address","numberOfBytes":"20"},"t_mapping(t_uint256,t_string_storage)":{"encoding":"mapping","key":"t_uint256","label":"mapping(uint256 => string)","numberOfBytes":"32","value":"t_string_storage"},"t_mapping(t_uint256,t_struct(completed_survey_struct)1188_storage)":{"encoding":"mapping","key":"t_uint256","label":"mapping(uint256 => struct WaveData.completed_survey_struct)","numberOfBytes":"32","value":"t_struct(completed_survey_struct)1188_storage"},"t_mapping(t_uint256,t_struct(fhir_struct)1153_storage)":{"encoding":"mapping","key":"t_uint256","label":"mapping(uint256 => struct WaveData.fhir_struct)","numberOfBytes":"32","value":"t_struct(fhir_struct)1153_storage"},"t_mapping(t_uint256,t_struct(ongoing_struct)1162_storage)":{"encoding":"mapping","key":"t_uint256","label":"mapping(uint256 => struct WaveData.ongoing_struct)","numberOfBytes":"32","value":"t_struct(ongoing_struct)1162_storage"},"t_mapping(t_uint256,t_struct(reward_struct)1112_storage)":{"encoding":"mapping","key":"t_uint256","label":"mapping(uint256 => struct WaveData.reward_struct)","numberOfBytes":"32","value":"t_struct(reward_struct)1112_storage"},"t_mapping(t_uint256,t_struct(survey_category_struct)1068_storage)":{"encoding":"mapping","key":"t_uint256","label":"mapping(uint256 => struct WaveData.survey_category_struct)","numberOfBytes":"32","value":"t_struct(survey_category_struct)1068_storage"},"t_mapping(t_uint256,t_struct(survey_question_answer_struct)1177_storage)":{"encoding":"mapping","key":"t_uint256","label":"mapping(uint256 => struct WaveData.survey_question_answer_struct)","numberOfBytes":"32","value":"t_struct(survey_question_answer_struct)1177_storage"},"t_mapping(t_uint256,t_struct(survey_struct)1140_storage)":{"encoding":"mapping","key":"t_uint256","label":"mapping(uint256 => struct WaveData.survey_struct)","numberOfBytes":"32","value":"t_struct(survey_struct)1140_storage"},"t_mapping(t_uint256,t_struct(trial_struct)1096_storage)":{"encoding":"mapping","key":"t_uint256","label":"mapping(uint256 => struct WaveData.trial_struct)","numberOfBytes":"32","value":"t_struct(trial_struct)1096_storage"},"t_mapping(t_uint256,t_struct(user_struct)1061_storage)":{"encoding":"mapping","key":"t_uint256","label":"mapping(uint256 => struct WaveData.user_struct)","numberOfBytes":"32","value":"t_struct(user_struct)1061_storage"},"t_string_storage":{"encoding":"bytes","label":"string","numberOfBytes":"32"},"t_struct(completed_survey_struct)1188_storage":{"encoding":"inplace","label":"struct WaveData.completed_survey_struct","members":[{"astId":1179,"contract":"contracts/WaveData.sol:WaveData","label":"completed_survey_id","offset":0,"slot":"0","type":"t_uint256"},{"astId":1181,"contract":"contracts/WaveData.sol:WaveData","label":"trial_id","offset":0,"slot":"1","type":"t_uint256"},{"astId":1183,"contract":"contracts/WaveData.sol:WaveData","label":"user_id","offset":0,"slot":"2","type":"t_uint256"},{"astId":1185,"contract":"contracts/WaveData.sol:WaveData","label":"survey_id","offset":0,"slot":"3","type":"t_uint256"},{"astId":1187,"contract":"contracts/WaveData.sol:WaveData","label":"date","offset":0,"slot":"4","type":"t_string_storage"}],"numberOfBytes":"160"},"t_struct(fhir_struct)1153_storage":{"encoding":"inplace","label":"struct WaveData.fhir_struct","members":[{"astId":1143,"contract":"contracts/WaveData.sol:WaveData","label":"user_id","offset":0,"slot":"0","type":"t_uint256"},{"astId":1146,"contract":"contracts/WaveData.sol:WaveData","label":"given_name","offset":0,"slot":"1","type":"t_string_storage"},{"astId":1149,"contract":"contracts/WaveData.sol:WaveData","label":"identifier","offset":0,"slot":"2","type":"t_string_storage"},{"astId":1152,"contract":"contracts/WaveData.sol:WaveData","label":"patient_id","offset":0,"slot":"3","type":"t_string_storage"}],"numberOfBytes":"128"},"t_struct(ongoing_struct)1162_storage":{"encoding":"inplace","label":"struct WaveData.ongoing_struct","members":[{"astId":1155,"contract":"contracts/WaveData.sol:WaveData","label":"ongoing_id","offset":0,"slot":"0","type":"t_uint256"},{"astId":1157,"contract":"contracts/WaveData.sol:WaveData","label":"trial_id","offset":0,"slot":"1","type":"t_uint256"},{"astId":1159,"contract":"contracts/WaveData.sol:WaveData","label":"user_id","offset":0,"slot":"2","type":"t_uint256"},{"astId":1161,"contract":"contracts/WaveData.sol:WaveData","label":"date","offset":0,"slot":"3","type":"t_string_storage"}],"numberOfBytes":"128"},"t_struct(reward_struct)1112_storage":{"encoding":"inplace","label":"struct WaveData.reward_struct","members":[{"astId":1099,"contract":"contracts/WaveData.sol:WaveData","label":"trial_id","offset":0,"slot":"0","type":"t_uint256"},{"astId":1102,"contract":"contracts/WaveData.sol:WaveData","label":"user_id","offset":0,"slot":"1","type":"t_uint256"},{"astId":1105,"contract":"contracts/WaveData.sol:WaveData","label":"reward_type","offset":0,"slot":"2","type":"t_string_storage"},{"astId":1108,"contract":"contracts/WaveData.sol:WaveData","label":"reward_price","offset":0,"slot":"3","type":"t_uint256"},{"astId":1111,"contract":"contracts/WaveData.sol:WaveData","label":"total_spending_limit","offset":0,"slot":"4","type":"t_uint256"}],"numberOfBytes":"160"},"t_struct(survey_category_struct)1068_storage":{"encoding":"inplace","label":"struct WaveData.survey_category_struct","members":[{"astId":1064,"contract":"contracts/WaveData.sol:WaveData","label":"name","offset":0,"slot":"0","type":"t_string_storage"},{"astId":1067,"contract":"contracts/WaveData.sol:WaveData","label":"image","offset":0,"slot":"1","type":"t_string_storage"}],"numberOfBytes":"64"},"t_struct(survey_question_answer_struct)1177_storage":{"encoding":"inplace","label":"struct WaveData.survey_question_answer_struct","members":[{"astId":1164,"contract":"contracts/WaveData.sol:WaveData","label":"answer_id","offset":0,"slot":"0","type":"t_uint256"},{"astId":1166,"contract":"contracts/WaveData.sol:WaveData","label":"trial_id","offset":0,"slot":"1","type":"t_uint256"},{"astId":1168,"contract":"contracts/WaveData.sol:WaveData","label":"user_id","offset":0,"slot":"2","type":"t_uint256"},{"astId":1170,"contract":"contracts/WaveData.sol:WaveData","label":"survey_id","offset":0,"slot":"3","type":"t_uint256"},{"astId":1172,"contract":"contracts/WaveData.sol:WaveData","label":"section_id","offset":0,"slot":"4","type":"t_uint256"},{"astId":1174,"contract":"contracts/WaveData.sol:WaveData","label":"question_id","offset":0,"slot":"5","type":"t_uint256"},{"astId":1176,"contract":"contracts/WaveData.sol:WaveData","label":"answer","offset":0,"slot":"6","type":"t_string_storage"}],"numberOfBytes":"224"},"t_struct(survey_struct)1140_storage":{"encoding":"inplace","label":"struct WaveData.survey_struct","members":[{"astId":1115,"contract":"contracts/WaveData.sol:WaveData","label":"survey_id","offset":0,"slot":"0","type":"t_uint256"},{"astId":1118,"contract":"contracts/WaveData.sol:WaveData","label":"trial_id","offset":0,"slot":"1","type":"t_uint256"},{"astId":1121,"contract":"contracts/WaveData.sol:WaveData","label":"user_id","offset":0,"slot":"2","type":"t_uint256"},{"astId":1124,"contract":"contracts/WaveData.sol:WaveData","label":"name","offset":0,"slot":"3","type":"t_string_storage"},{"astId":1127,"contract":"contracts/WaveData.sol:WaveData","label":"description","offset":0,"slot":"4","type":"t_string_storage"},{"astId":1130,"contract":"contracts/WaveData.sol:WaveData","label":"date","offset":0,"slot":"5","type":"t_string_storage"},{"astId":1133,"contract":"contracts/WaveData.sol:WaveData","label":"image","offset":0,"slot":"6","type":"t_string_storage"},{"astId":1136,"contract":"contracts/WaveData.sol:WaveData","label":"reward","offset":0,"slot":"7","type":"t_uint256"},{"astId":1139,"contract":"contracts/WaveData.sol:WaveData","label":"submission","offset":0,"slot":"8","type":"t_uint256"}],"numberOfBytes":"288"},"t_struct(trial_struct)1096_storage":{"encoding":"inplace","label":"struct WaveData.trial_struct","members":[{"astId":1071,"contract":"contracts/WaveData.sol:WaveData","label":"trial_id","offset":0,"slot":"0","type":"t_uint256"},{"astId":1074,"contract":"contracts/WaveData.sol:WaveData","label":"user_id","offset":0,"slot":"1","type":"t_uint256"},{"astId":1077,"contract":"contracts/WaveData.sol:WaveData","label":"image","offset":0,"slot":"2","type":"t_string_storage"},{"astId":1080,"contract":"contracts/WaveData.sol:WaveData","label":"title","offset":0,"slot":"3","type":"t_string_storage"},{"astId":1083,"contract":"contracts/WaveData.sol:WaveData","label":"description","offset":0,"slot":"4","type":"t_string_storage"},{"astId":1086,"contract":"contracts/WaveData.sol:WaveData","label":"contributors","offset":0,"slot":"5","type":"t_uint256"},{"astId":1089,"contract":"contracts/WaveData.sol:WaveData","label":"audience","offset":0,"slot":"6","type":"t_uint256"},{"astId":1092,"contract":"contracts/WaveData.sol:WaveData","label":"budget","offset":0,"slot":"7","type":"t_uint256"},{"astId":1095,"contract":"contracts/WaveData.sol:WaveData","label":"date","offset":0,"slot":"8","type":"t_string_storage"}],"numberOfBytes":"288"},"t_struct(user_struct)1061_storage":{"encoding":"inplace","label":"struct WaveData.user_struct","members":[{"astId":1045,"contract":"contracts/WaveData.sol:WaveData","label":"user_id","offset":0,"slot":"0","type":"t_uint256"},{"astId":1048,"contract":"contracts/WaveData.sol:WaveData","label":"name","offset":0,"slot":"1","type":"t_string_storage"},{"astId":1051,"contract":"contracts/WaveData.sol:WaveData","label":"email","offset":0,"slot":"2","type":"t_string_storage"},{"astId":1054,"contract":"contracts/WaveData.sol:WaveData","label":"password","offset":0,"slot":"3","type":"t_string_storage"},{"astId":1057,"contract":"contracts/WaveData.sol:WaveData","label":"image","offset":0,"slot":"4","type":"t_string_storage"},{"astId":1060,"contract":"contracts/WaveData.sol:WaveData","label":"credits","offset":0,"slot":"5","type":"t_uint256"}],"numberOfBytes":"192"},"t_uint256":{"encoding":"inplace","label":"uint256","numberOfBytes":"32"}}},"userdoc":{"kind":"user","methods":{"_categoryMap(uint256)":{"notice":"The map of all the Survey Category ."},"_completedsurveyMap(uint256)":{"notice":"The map of all the Completed Surveys."},"_fhirMap(uint256)":{"notice":"The map of all the FHIR information."},"_ongoingMap(uint256)":{"notice":"The map of all the OnGoing Trials."},"_questionanswerdMap(uint256)":{"notice":"The map of all the Question Answerd in a Survey."},"_sectionsMap(uint256)":{"notice":"The map of all the Survey Sections  ."},"_surveyMap(uint256)":{"notice":"The map of all the Surveys information."},"_trialAudienceMap(uint256)":{"notice":"The map of all the Rewards information."},"_trialMap(uint256)":{"notice":"The map of all the Trials information."},"_trialRewardMap(uint256)":{"notice":"The map of all the Rewards information."}},"version":1}}}}